{
  "contractName": "AtivVotes",
  "abi": [
    {
      "inputs": [],
      "stateMutability": "nonpayable",
      "type": "constructor"
    },
    {
      "anonymous": false,
      "inputs": [
        {
          "indexed": true,
          "internalType": "address",
          "name": "owner",
          "type": "address"
        },
        {
          "indexed": true,
          "internalType": "address",
          "name": "spender",
          "type": "address"
        },
        {
          "indexed": false,
          "internalType": "uint256",
          "name": "value",
          "type": "uint256"
        }
      ],
      "name": "Approval",
      "type": "event"
    },
    {
      "anonymous": false,
      "inputs": [
        {
          "indexed": true,
          "internalType": "address",
          "name": "delegator",
          "type": "address"
        },
        {
          "indexed": true,
          "internalType": "address",
          "name": "fromDelegate",
          "type": "address"
        },
        {
          "indexed": true,
          "internalType": "address",
          "name": "toDelegate",
          "type": "address"
        }
      ],
      "name": "DelegateChanged",
      "type": "event"
    },
    {
      "anonymous": false,
      "inputs": [
        {
          "indexed": true,
          "internalType": "address",
          "name": "delegate",
          "type": "address"
        },
        {
          "indexed": false,
          "internalType": "uint256",
          "name": "previousBalance",
          "type": "uint256"
        },
        {
          "indexed": false,
          "internalType": "uint256",
          "name": "newBalance",
          "type": "uint256"
        }
      ],
      "name": "DelegateVotesChanged",
      "type": "event"
    },
    {
      "anonymous": false,
      "inputs": [
        {
          "indexed": true,
          "internalType": "address",
          "name": "previousOwner",
          "type": "address"
        },
        {
          "indexed": true,
          "internalType": "address",
          "name": "newOwner",
          "type": "address"
        }
      ],
      "name": "OwnershipTransferred",
      "type": "event"
    },
    {
      "anonymous": false,
      "inputs": [
        {
          "indexed": true,
          "internalType": "address",
          "name": "from",
          "type": "address"
        },
        {
          "indexed": true,
          "internalType": "address",
          "name": "to",
          "type": "address"
        },
        {
          "indexed": false,
          "internalType": "uint256",
          "name": "value",
          "type": "uint256"
        }
      ],
      "name": "Transfer",
      "type": "event"
    },
    {
      "inputs": [],
      "name": "DOMAIN_SEPARATOR",
      "outputs": [
        {
          "internalType": "bytes32",
          "name": "",
          "type": "bytes32"
        }
      ],
      "stateMutability": "view",
      "type": "function"
    },
    {
      "inputs": [
        {
          "internalType": "address",
          "name": "owner",
          "type": "address"
        },
        {
          "internalType": "address",
          "name": "spender",
          "type": "address"
        }
      ],
      "name": "allowance",
      "outputs": [
        {
          "internalType": "uint256",
          "name": "",
          "type": "uint256"
        }
      ],
      "stateMutability": "view",
      "type": "function"
    },
    {
      "inputs": [
        {
          "internalType": "address",
          "name": "spender",
          "type": "address"
        },
        {
          "internalType": "uint256",
          "name": "amount",
          "type": "uint256"
        }
      ],
      "name": "approve",
      "outputs": [
        {
          "internalType": "bool",
          "name": "",
          "type": "bool"
        }
      ],
      "stateMutability": "nonpayable",
      "type": "function"
    },
    {
      "inputs": [
        {
          "internalType": "address",
          "name": "account",
          "type": "address"
        }
      ],
      "name": "balanceOf",
      "outputs": [
        {
          "internalType": "uint256",
          "name": "",
          "type": "uint256"
        }
      ],
      "stateMutability": "view",
      "type": "function"
    },
    {
      "inputs": [
        {
          "internalType": "address",
          "name": "account",
          "type": "address"
        },
        {
          "internalType": "uint32",
          "name": "pos",
          "type": "uint32"
        }
      ],
      "name": "checkpoints",
      "outputs": [
        {
          "components": [
            {
              "internalType": "uint32",
              "name": "fromBlock",
              "type": "uint32"
            },
            {
              "internalType": "uint224",
              "name": "votes",
              "type": "uint224"
            }
          ],
          "internalType": "struct ERC20Votes.Checkpoint",
          "name": "",
          "type": "tuple"
        }
      ],
      "stateMutability": "view",
      "type": "function"
    },
    {
      "inputs": [],
      "name": "decimals",
      "outputs": [
        {
          "internalType": "uint8",
          "name": "",
          "type": "uint8"
        }
      ],
      "stateMutability": "view",
      "type": "function"
    },
    {
      "inputs": [
        {
          "internalType": "address",
          "name": "spender",
          "type": "address"
        },
        {
          "internalType": "uint256",
          "name": "subtractedValue",
          "type": "uint256"
        }
      ],
      "name": "decreaseAllowance",
      "outputs": [
        {
          "internalType": "bool",
          "name": "",
          "type": "bool"
        }
      ],
      "stateMutability": "nonpayable",
      "type": "function"
    },
    {
      "inputs": [
        {
          "internalType": "address",
          "name": "delegatee",
          "type": "address"
        }
      ],
      "name": "delegate",
      "outputs": [],
      "stateMutability": "nonpayable",
      "type": "function"
    },
    {
      "inputs": [
        {
          "internalType": "address",
          "name": "delegatee",
          "type": "address"
        },
        {
          "internalType": "uint256",
          "name": "nonce",
          "type": "uint256"
        },
        {
          "internalType": "uint256",
          "name": "expiry",
          "type": "uint256"
        },
        {
          "internalType": "uint8",
          "name": "v",
          "type": "uint8"
        },
        {
          "internalType": "bytes32",
          "name": "r",
          "type": "bytes32"
        },
        {
          "internalType": "bytes32",
          "name": "s",
          "type": "bytes32"
        }
      ],
      "name": "delegateBySig",
      "outputs": [],
      "stateMutability": "nonpayable",
      "type": "function"
    },
    {
      "inputs": [
        {
          "internalType": "address",
          "name": "account",
          "type": "address"
        }
      ],
      "name": "delegates",
      "outputs": [
        {
          "internalType": "address",
          "name": "",
          "type": "address"
        }
      ],
      "stateMutability": "view",
      "type": "function"
    },
    {
      "inputs": [
        {
          "internalType": "address",
          "name": "account",
          "type": "address"
        }
      ],
      "name": "getCurrentVotes",
      "outputs": [
        {
          "internalType": "uint96",
          "name": "",
          "type": "uint96"
        }
      ],
      "stateMutability": "view",
      "type": "function"
    },
    {
      "inputs": [
        {
          "internalType": "uint256",
          "name": "blockNumber",
          "type": "uint256"
        }
      ],
      "name": "getPastTotalSupply",
      "outputs": [
        {
          "internalType": "uint256",
          "name": "",
          "type": "uint256"
        }
      ],
      "stateMutability": "view",
      "type": "function"
    },
    {
      "inputs": [
        {
          "internalType": "address",
          "name": "account",
          "type": "address"
        },
        {
          "internalType": "uint256",
          "name": "blockNumber",
          "type": "uint256"
        }
      ],
      "name": "getPastVotes",
      "outputs": [
        {
          "internalType": "uint256",
          "name": "",
          "type": "uint256"
        }
      ],
      "stateMutability": "view",
      "type": "function"
    },
    {
      "inputs": [
        {
          "internalType": "address",
          "name": "account",
          "type": "address"
        },
        {
          "internalType": "uint256",
          "name": "blockNumber",
          "type": "uint256"
        }
      ],
      "name": "getPriorVotes",
      "outputs": [
        {
          "internalType": "uint96",
          "name": "",
          "type": "uint96"
        }
      ],
      "stateMutability": "view",
      "type": "function"
    },
    {
      "inputs": [
        {
          "internalType": "address",
          "name": "account",
          "type": "address"
        }
      ],
      "name": "getVotes",
      "outputs": [
        {
          "internalType": "uint256",
          "name": "",
          "type": "uint256"
        }
      ],
      "stateMutability": "view",
      "type": "function"
    },
    {
      "inputs": [
        {
          "internalType": "address",
          "name": "spender",
          "type": "address"
        },
        {
          "internalType": "uint256",
          "name": "addedValue",
          "type": "uint256"
        }
      ],
      "name": "increaseAllowance",
      "outputs": [
        {
          "internalType": "bool",
          "name": "",
          "type": "bool"
        }
      ],
      "stateMutability": "nonpayable",
      "type": "function"
    },
    {
      "inputs": [],
      "name": "name",
      "outputs": [
        {
          "internalType": "string",
          "name": "",
          "type": "string"
        }
      ],
      "stateMutability": "view",
      "type": "function"
    },
    {
      "inputs": [
        {
          "internalType": "address",
          "name": "owner",
          "type": "address"
        }
      ],
      "name": "nonces",
      "outputs": [
        {
          "internalType": "uint256",
          "name": "",
          "type": "uint256"
        }
      ],
      "stateMutability": "view",
      "type": "function"
    },
    {
      "inputs": [
        {
          "internalType": "address",
          "name": "account",
          "type": "address"
        }
      ],
      "name": "numCheckpoints",
      "outputs": [
        {
          "internalType": "uint32",
          "name": "",
          "type": "uint32"
        }
      ],
      "stateMutability": "view",
      "type": "function"
    },
    {
      "inputs": [],
      "name": "owner",
      "outputs": [
        {
          "internalType": "address",
          "name": "",
          "type": "address"
        }
      ],
      "stateMutability": "view",
      "type": "function"
    },
    {
      "inputs": [
        {
          "internalType": "address",
          "name": "owner",
          "type": "address"
        },
        {
          "internalType": "address",
          "name": "spender",
          "type": "address"
        },
        {
          "internalType": "uint256",
          "name": "value",
          "type": "uint256"
        },
        {
          "internalType": "uint256",
          "name": "deadline",
          "type": "uint256"
        },
        {
          "internalType": "uint8",
          "name": "v",
          "type": "uint8"
        },
        {
          "internalType": "bytes32",
          "name": "r",
          "type": "bytes32"
        },
        {
          "internalType": "bytes32",
          "name": "s",
          "type": "bytes32"
        }
      ],
      "name": "permit",
      "outputs": [],
      "stateMutability": "nonpayable",
      "type": "function"
    },
    {
      "inputs": [],
      "name": "renounceOwnership",
      "outputs": [],
      "stateMutability": "nonpayable",
      "type": "function"
    },
    {
      "inputs": [],
      "name": "symbol",
      "outputs": [
        {
          "internalType": "string",
          "name": "",
          "type": "string"
        }
      ],
      "stateMutability": "view",
      "type": "function"
    },
    {
      "inputs": [],
      "name": "totalSupply",
      "outputs": [
        {
          "internalType": "uint256",
          "name": "",
          "type": "uint256"
        }
      ],
      "stateMutability": "view",
      "type": "function"
    },
    {
      "inputs": [
        {
          "internalType": "address",
          "name": "recipient",
          "type": "address"
        },
        {
          "internalType": "uint256",
          "name": "amount",
          "type": "uint256"
        }
      ],
      "name": "transfer",
      "outputs": [
        {
          "internalType": "bool",
          "name": "",
          "type": "bool"
        }
      ],
      "stateMutability": "nonpayable",
      "type": "function"
    },
    {
      "inputs": [
        {
          "internalType": "address",
          "name": "sender",
          "type": "address"
        },
        {
          "internalType": "address",
          "name": "recipient",
          "type": "address"
        },
        {
          "internalType": "uint256",
          "name": "amount",
          "type": "uint256"
        }
      ],
      "name": "transferFrom",
      "outputs": [
        {
          "internalType": "bool",
          "name": "",
          "type": "bool"
        }
      ],
      "stateMutability": "nonpayable",
      "type": "function"
    },
    {
      "inputs": [
        {
          "internalType": "address",
          "name": "newOwner",
          "type": "address"
        }
      ],
      "name": "transferOwnership",
      "outputs": [],
      "stateMutability": "nonpayable",
      "type": "function"
    },
    {
      "inputs": [
        {
          "internalType": "address",
          "name": "account",
          "type": "address"
        },
        {
          "internalType": "uint256",
          "name": "amount",
          "type": "uint256"
        }
      ],
      "name": "mint",
      "outputs": [],
      "stateMutability": "nonpayable",
      "type": "function"
    }
  ],
  "bytecode": "0x6101606040527f6e71edae12b1b97f4d1f60370fef10105fa2faae0126114a169c64845d6126c9610140908152503480156200003a57600080fd5b506040518060400160405280600a81526020017f4154495620566f74657300000000000000000000000000000000000000000000815250806040518060400160405280600181526020017f31000000000000000000000000000000000000000000000000000000000000008152506040518060400160405280600a81526020017f4154495620566f746573000000000000000000000000000000000000000000008152506040518060400160405280600481526020017f415449560000000000000000000000000000000000000000000000000000000081525081600390805190602001906200012c9291906200032b565b508060049080519060200190620001459291906200032b565b50505060008280519060200120905060008280519060200120905060007f8b73c3c69bb8fe3d512ecc4cf759cc79239f7b179b0ffacaa9a75d522b39400f90508260e081815250508161010081815250504660a08181525050620001b18184846200022160201b60201c565b608081815250503073ffffffffffffffffffffffffffffffffffffffff1660c08173ffffffffffffffffffffffffffffffffffffffff16815250508061012081815250505050505050506200021b6200020f6200025d60201b60201c565b6200026560201b60201c565b62000518565b600083838346306040516020016200023e95949392919062000456565b6040516020818303038152906040528051906020012090509392505050565b600033905090565b6000600960009054906101000a900473ffffffffffffffffffffffffffffffffffffffff16905081600960006101000a81548173ffffffffffffffffffffffffffffffffffffffff021916908373ffffffffffffffffffffffffffffffffffffffff1602179055508173ffffffffffffffffffffffffffffffffffffffff168173ffffffffffffffffffffffffffffffffffffffff167f8be0079c531659141344cd1fd0a4f28419497f9722a3daafe3b4186f6b6457e060405160405180910390a35050565b8280546200033990620004e2565b90600052602060002090601f0160209004810192826200035d5760008555620003a9565b82601f106200037857805160ff1916838001178555620003a9565b82800160010185558215620003a9579182015b82811115620003a85782518255916020019190600101906200038b565b5b509050620003b89190620003bc565b5090565b5b80821115620003d7576000816000905550600101620003bd565b5090565b6000819050919050565b620003f081620003db565b82525050565b6000819050919050565b6200040b81620003f6565b82525050565b600073ffffffffffffffffffffffffffffffffffffffff82169050919050565b60006200043e8262000411565b9050919050565b620004508162000431565b82525050565b600060a0820190506200046d6000830188620003e5565b6200047c6020830187620003e5565b6200048b6040830186620003e5565b6200049a606083018562000400565b620004a9608083018462000445565b9695505050505050565b7f4e487b7100000000000000000000000000000000000000000000000000000000600052602260045260246000fd5b60006002820490506001821680620004fb57607f821691505b60208210811415620005125762000511620004b3565b5b50919050565b60805160a05160c05160e051610100516101205161014051613ef2620005736000396000611045015260006118d101526000611913015260006118f2015260006118270152600061187d015260006118a60152613ef26000f3fe608060405234801561001057600080fd5b50600436106101c45760003560e01c8063782d6fe1116100f9578063a9059cbb11610097578063d505accf11610071578063d505accf1461057b578063dd62ed3e14610597578063f1127ed8146105c7578063f2fde38b146105f7576101c4565b8063a9059cbb146104ff578063b4b5ea571461052f578063c3cda5201461055f576101c4565b80638e539e8c116100d35780638e539e8c1461045157806395d89b41146104815780639ab24eb01461049f578063a457c2d7146104cf576101c4565b8063782d6fe1146103d35780637ecebe00146104035780638da5cb5b14610433576101c4565b80633a46b1a8116101665780635c19a95c116101405780635c19a95c1461034d5780636fcfff451461036957806370a0823114610399578063715018a6146103c9576101c4565b80633a46b1a8146102d157806340c10f1914610301578063587cde1e1461031d576101c4565b806323b872dd116101a257806323b872dd14610235578063313ce567146102655780633644e5151461028357806339509351146102a1576101c4565b806306fdde03146101c9578063095ea7b3146101e757806318160ddd14610217575b600080fd5b6101d1610613565b6040516101de919061292a565b60405180910390f35b61020160048036038101906101fc91906129e5565b6106a5565b60405161020e9190612a40565b60405180910390f35b61021f6106c3565b60405161022c9190612a6a565b60405180910390f35b61024f600480360381019061024a9190612a85565b6106cd565b60405161025c9190612a40565b60405180910390f35b61026d6107c5565b60405161027a9190612af4565b60405180910390f35b61028b6107ce565b6040516102989190612b28565b60405180910390f35b6102bb60048036038101906102b691906129e5565b6107dd565b6040516102c89190612a40565b60405180910390f35b6102eb60048036038101906102e691906129e5565b610889565b6040516102f89190612a6a565b60405180910390f35b61031b600480360381019061031691906129e5565b61091d565b005b61033760048036038101906103329190612b43565b6109a7565b6040516103449190612b7f565b60405180910390f35b61036760048036038101906103629190612b43565b610a10565b005b610383600480360381019061037e9190612b43565b610a24565b6040516103909190612bb9565b60405180910390f35b6103b360048036038101906103ae9190612b43565b610a78565b6040516103c09190612a6a565b60405180910390f35b6103d1610ac0565b005b6103ed60048036038101906103e891906129e5565b610b48565b6040516103fa9190612bfb565b60405180910390f35b61041d60048036038101906104189190612b43565b610b64565b60405161042a9190612a6a565b60405180910390f35b61043b610bb4565b6040516104489190612b7f565b60405180910390f35b61046b60048036038101906104669190612c16565b610bde565b6040516104789190612a6a565b60405180910390f35b610489610c34565b604051610496919061292a565b60405180910390f35b6104b960048036038101906104b49190612b43565b610cc6565b6040516104c69190612a6a565b60405180910390f35b6104e960048036038101906104e491906129e5565b610dd7565b6040516104f69190612a40565b60405180910390f35b610519600480360381019061051491906129e5565b610ec2565b6040516105269190612a40565b60405180910390f35b61054960048036038101906105449190612b43565b610ee0565b6040516105569190612bfb565b60405180910390f35b61057960048036038101906105749190612c9b565b610efa565b005b61059560048036038101906105909190612d28565b610ffe565b005b6105b160048036038101906105ac9190612dca565b611140565b6040516105be9190612a6a565b60405180910390f35b6105e160048036038101906105dc9190612e36565b6111c7565b6040516105ee9190612eeb565b60405180910390f35b610611600480360381019061060c9190612b43565b6112d7565b005b60606003805461062290612f35565b80601f016020809104026020016040519081016040528092919081815260200182805461064e90612f35565b801561069b5780601f106106705761010080835404028352916020019161069b565b820191906000526020600020905b81548152906001019060200180831161067e57829003601f168201915b5050505050905090565b60006106b96106b26113cf565b84846113d7565b6001905092915050565b6000600254905090565b60006106da8484846115a2565b6000600160008673ffffffffffffffffffffffffffffffffffffffff1673ffffffffffffffffffffffffffffffffffffffff16815260200190815260200160002060006107256113cf565b73ffffffffffffffffffffffffffffffffffffffff1673ffffffffffffffffffffffffffffffffffffffff168152602001908152602001600020549050828110156107a5576040517f08c379a000000000000000000000000000000000000000000000000000000000815260040161079c90612fd9565b60405180910390fd5b6107b9856107b16113cf565b8584036113d7565b60019150509392505050565b60006012905090565b60006107d8611823565b905090565b600061087f6107ea6113cf565b8484600160006107f86113cf565b73ffffffffffffffffffffffffffffffffffffffff1673ffffffffffffffffffffffffffffffffffffffff16815260200190815260200160002060008873ffffffffffffffffffffffffffffffffffffffff1673ffffffffffffffffffffffffffffffffffffffff1681526020019081526020016000205461087a9190613028565b6113d7565b6001905092915050565b60004382106108cd576040517f08c379a00000000000000000000000000000000000000000000000000000000081526004016108c4906130ca565b60405180910390fd5b610915600760008573ffffffffffffffffffffffffffffffffffffffff1673ffffffffffffffffffffffffffffffffffffffff1681526020019081526020016000208361193d565b905092915050565b6109256113cf565b73ffffffffffffffffffffffffffffffffffffffff16610943610bb4565b73ffffffffffffffffffffffffffffffffffffffff1614610999576040517f08c379a000000000000000000000000000000000000000000000000000000000815260040161099090613136565b60405180910390fd5b6109a38282611a49565b5050565b6000600660008373ffffffffffffffffffffffffffffffffffffffff1673ffffffffffffffffffffffffffffffffffffffff16815260200190815260200160002060009054906101000a900473ffffffffffffffffffffffffffffffffffffffff169050919050565b610a21610a1b6113cf565b82611ad6565b50565b6000610a71600760008473ffffffffffffffffffffffffffffffffffffffff1673ffffffffffffffffffffffffffffffffffffffff16815260200190815260200160002080549050611bf0565b9050919050565b60008060008373ffffffffffffffffffffffffffffffffffffffff1673ffffffffffffffffffffffffffffffffffffffff168152602001908152602001600020549050919050565b610ac86113cf565b73ffffffffffffffffffffffffffffffffffffffff16610ae6610bb4565b73ffffffffffffffffffffffffffffffffffffffff1614610b3c576040517f08c379a0000000000000000000000000000000000000000000000000000000008152600401610b3390613136565b60405180910390fd5b610b466000611c43565b565b6000610b5c610b578484610889565b611d09565b905092915050565b6000610bad600560008473ffffffffffffffffffffffffffffffffffffffff1673ffffffffffffffffffffffffffffffffffffffff168152602001908152602001600020611d64565b9050919050565b6000600960009054906101000a900473ffffffffffffffffffffffffffffffffffffffff16905090565b6000438210610c22576040517f08c379a0000000000000000000000000000000000000000000000000000000008152600401610c19906130ca565b60405180910390fd5b610c2d60088361193d565b9050919050565b606060048054610c4390612f35565b80601f0160208091040260200160405190810160405280929190818152602001828054610c6f90612f35565b8015610cbc5780601f10610c9157610100808354040283529160200191610cbc565b820191906000526020600020905b815481529060010190602001808311610c9f57829003601f168201915b5050505050905090565b600080600760008473ffffffffffffffffffffffffffffffffffffffff1673ffffffffffffffffffffffffffffffffffffffff16815260200190815260200160002080549050905060008114610dae57600760008473ffffffffffffffffffffffffffffffffffffffff1673ffffffffffffffffffffffffffffffffffffffff168152602001908152602001600020600182610d629190613156565b81548110610d7357610d7261318a565b5b9060005260206000200160000160049054906101000a90047bffffffffffffffffffffffffffffffffffffffffffffffffffffffff16610db1565b60005b7bffffffffffffffffffffffffffffffffffffffffffffffffffffffff16915050919050565b60008060016000610de66113cf565b73ffffffffffffffffffffffffffffffffffffffff1673ffffffffffffffffffffffffffffffffffffffff16815260200190815260200160002060008573ffffffffffffffffffffffffffffffffffffffff1673ffffffffffffffffffffffffffffffffffffffff16815260200190815260200160002054905082811015610ea3576040517f08c379a0000000000000000000000000000000000000000000000000000000008152600401610e9a9061322b565b60405180910390fd5b610eb7610eae6113cf565b858584036113d7565b600191505092915050565b6000610ed6610ecf6113cf565b84846115a2565b6001905092915050565b6000610ef3610eee83610cc6565b611d09565b9050919050565b83421115610f3d576040517f08c379a0000000000000000000000000000000000000000000000000000000008152600401610f3490613297565b60405180910390fd5b6000610f9f610f977fe48329057bfd03d55e49b547132e39cffd9c1820ad7b9d4c5307691425d15adf898989604051602001610f7c94939291906132b7565b60405160208183030381529060405280519060200120611d72565b858585611d8c565b9050610faa81611db7565b8614610feb576040517f08c379a0000000000000000000000000000000000000000000000000000000008152600401610fe290613348565b60405180910390fd5b610ff58188611ad6565b50505050505050565b83421115611041576040517f08c379a0000000000000000000000000000000000000000000000000000000008152600401611038906133b4565b60405180910390fd5b60007f00000000000000000000000000000000000000000000000000000000000000008888886110708c611db7565b89604051602001611086969594939291906133d4565b60405160208183030381529060405280519060200120905060006110a982611d72565b905060006110b982878787611d8c565b90508973ffffffffffffffffffffffffffffffffffffffff168173ffffffffffffffffffffffffffffffffffffffff1614611129576040517f08c379a000000000000000000000000000000000000000000000000000000000815260040161112090613481565b60405180910390fd5b6111348a8a8a6113d7565b50505050505050505050565b6000600160008473ffffffffffffffffffffffffffffffffffffffff1673ffffffffffffffffffffffffffffffffffffffff16815260200190815260200160002060008373ffffffffffffffffffffffffffffffffffffffff1673ffffffffffffffffffffffffffffffffffffffff16815260200190815260200160002054905092915050565b6111cf612853565b600760008473ffffffffffffffffffffffffffffffffffffffff1673ffffffffffffffffffffffffffffffffffffffff1681526020019081526020016000208263ffffffff16815481106112265761122561318a565b5b906000526020600020016040518060400160405290816000820160009054906101000a900463ffffffff1663ffffffff1663ffffffff1681526020016000820160049054906101000a90047bffffffffffffffffffffffffffffffffffffffffffffffffffffffff167bffffffffffffffffffffffffffffffffffffffffffffffffffffffff167bffffffffffffffffffffffffffffffffffffffffffffffffffffffff1681525050905092915050565b6112df6113cf565b73ffffffffffffffffffffffffffffffffffffffff166112fd610bb4565b73ffffffffffffffffffffffffffffffffffffffff1614611353576040517f08c379a000000000000000000000000000000000000000000000000000000000815260040161134a90613136565b60405180910390fd5b600073ffffffffffffffffffffffffffffffffffffffff168173ffffffffffffffffffffffffffffffffffffffff1614156113c3576040517f08c379a00000000000000000000000000000000000000000000000000000000081526004016113ba90613513565b60405180910390fd5b6113cc81611c43565b50565b600033905090565b600073ffffffffffffffffffffffffffffffffffffffff168373ffffffffffffffffffffffffffffffffffffffff161415611447576040517f08c379a000000000000000000000000000000000000000000000000000000000815260040161143e906135a5565b60405180910390fd5b600073ffffffffffffffffffffffffffffffffffffffff168273ffffffffffffffffffffffffffffffffffffffff1614156114b7576040517f08c379a00000000000000000000000000000000000000000000000000000000081526004016114ae90613637565b60405180910390fd5b80600160008573ffffffffffffffffffffffffffffffffffffffff1673ffffffffffffffffffffffffffffffffffffffff16815260200190815260200160002060008473ffffffffffffffffffffffffffffffffffffffff1673ffffffffffffffffffffffffffffffffffffffff168152602001908152602001600020819055508173ffffffffffffffffffffffffffffffffffffffff168373ffffffffffffffffffffffffffffffffffffffff167f8c5be1e5ebec7d5bd14f71427d1e84f3dd0314c0f7b2291e5b200ac8c7c3b925836040516115959190612a6a565b60405180910390a3505050565b600073ffffffffffffffffffffffffffffffffffffffff168373ffffffffffffffffffffffffffffffffffffffff161415611612576040517f08c379a0000000000000000000000000000000000000000000000000000000008152600401611609906136c9565b60405180910390fd5b600073ffffffffffffffffffffffffffffffffffffffff168273ffffffffffffffffffffffffffffffffffffffff161415611682576040517f08c379a00000000000000000000000000000000000000000000000000000000081526004016116799061375b565b60405180910390fd5b61168d838383611e15565b60008060008573ffffffffffffffffffffffffffffffffffffffff1673ffffffffffffffffffffffffffffffffffffffff16815260200190815260200160002054905081811015611713576040517f08c379a000000000000000000000000000000000000000000000000000000000815260040161170a906137ed565b60405180910390fd5b8181036000808673ffffffffffffffffffffffffffffffffffffffff1673ffffffffffffffffffffffffffffffffffffffff16815260200190815260200160002081905550816000808573ffffffffffffffffffffffffffffffffffffffff1673ffffffffffffffffffffffffffffffffffffffff16815260200190815260200160002060008282546117a69190613028565b925050819055508273ffffffffffffffffffffffffffffffffffffffff168473ffffffffffffffffffffffffffffffffffffffff167fddf252ad1be2c89b69c2b068fc378daa952ba7f163c4a11628f55a4df523b3ef8460405161180a9190612a6a565b60405180910390a361181d848484611e1a565b50505050565b60007f000000000000000000000000000000000000000000000000000000000000000073ffffffffffffffffffffffffffffffffffffffff163073ffffffffffffffffffffffffffffffffffffffff1614801561189f57507f000000000000000000000000000000000000000000000000000000000000000046145b156118cc577f0000000000000000000000000000000000000000000000000000000000000000905061193a565b6119377f00000000000000000000000000000000000000000000000000000000000000007f00000000000000000000000000000000000000000000000000000000000000007f0000000000000000000000000000000000000000000000000000000000000000611e45565b90505b90565b6000808380549050905060005b818110156119bc57600061195e8284611e7f565b9050848682815481106119745761197361318a565b5b9060005260206000200160000160009054906101000a900463ffffffff1663ffffffff1611156119a6578092506119b6565b6001816119b39190613028565b91505b5061194a565b60008214611a1e57846001836119d29190613156565b815481106119e3576119e261318a565b5b9060005260206000200160000160049054906101000a90047bffffffffffffffffffffffffffffffffffffffffffffffffffffffff16611a21565b60005b7bffffffffffffffffffffffffffffffffffffffffffffffffffffffff169250505092915050565b611a538282611ea5565b611a5b612005565b7bffffffffffffffffffffffffffffffffffffffffffffffffffffffff16611a816106c3565b1115611ac2576040517f08c379a0000000000000000000000000000000000000000000000000000000008152600401611ab99061387f565b60405180910390fd5b611ad0600861201b83612031565b50505050565b6000611ae1836109a7565b90506000611aee84610a78565b905082600660008673ffffffffffffffffffffffffffffffffffffffff1673ffffffffffffffffffffffffffffffffffffffff16815260200190815260200160002060006101000a81548173ffffffffffffffffffffffffffffffffffffffff021916908373ffffffffffffffffffffffffffffffffffffffff1602179055508273ffffffffffffffffffffffffffffffffffffffff168273ffffffffffffffffffffffffffffffffffffffff168573ffffffffffffffffffffffffffffffffffffffff167f3134e8a2e6d97e929a7e54011ea5485d7d196dd5f0ba4d4ef95803e8e3fc257f60405160405180910390a4611bea8284836122a9565b50505050565b600063ffffffff8016821115611c3b576040517f08c379a0000000000000000000000000000000000000000000000000000000008152600401611c3290613911565b60405180910390fd5b819050919050565b6000600960009054906101000a900473ffffffffffffffffffffffffffffffffffffffff16905081600960006101000a81548173ffffffffffffffffffffffffffffffffffffffff021916908373ffffffffffffffffffffffffffffffffffffffff1602179055508173ffffffffffffffffffffffffffffffffffffffff168173ffffffffffffffffffffffffffffffffffffffff167f8be0079c531659141344cd1fd0a4f28419497f9722a3daafe3b4186f6b6457e060405160405180910390a35050565b60006bffffffffffffffffffffffff8016821115611d5c576040517f08c379a0000000000000000000000000000000000000000000000000000000008152600401611d53906139a3565b60405180910390fd5b819050919050565b600081600001549050919050565b6000611d85611d7f611823565b836124a2565b9050919050565b6000806000611d9d878787876124d5565b91509150611daa816125e2565b8192505050949350505050565b600080600560008473ffffffffffffffffffffffffffffffffffffffff1673ffffffffffffffffffffffffffffffffffffffff1681526020019081526020016000209050611e0481611d64565b9150611e0f816127b7565b50919050565b505050565b611e258383836127cd565b611e40611e31846109a7565b611e3a846109a7565b836122a9565b505050565b60008383834630604051602001611e609594939291906139c3565b6040516020818303038152906040528051906020012090509392505050565b60006002828418611e909190613a45565b828416611e9d9190613028565b905092915050565b600073ffffffffffffffffffffffffffffffffffffffff168273ffffffffffffffffffffffffffffffffffffffff161415611f15576040517f08c379a0000000000000000000000000000000000000000000000000000000008152600401611f0c90613ac2565b60405180910390fd5b611f2160008383611e15565b8060026000828254611f339190613028565b92505081905550806000808473ffffffffffffffffffffffffffffffffffffffff1673ffffffffffffffffffffffffffffffffffffffff1681526020019081526020016000206000828254611f889190613028565b925050819055508173ffffffffffffffffffffffffffffffffffffffff16600073ffffffffffffffffffffffffffffffffffffffff167fddf252ad1be2c89b69c2b068fc378daa952ba7f163c4a11628f55a4df523b3ef83604051611fed9190612a6a565b60405180910390a361200160008383611e1a565b5050565b60006bffffffffffffffffffffffff8016905090565b600081836120299190613028565b905092915050565b6000806000858054905090506000811461209f57856001826120539190613156565b815481106120645761206361318a565b5b9060005260206000200160000160049054906101000a90047bffffffffffffffffffffffffffffffffffffffffffffffffffffffff166120a2565b60005b7bffffffffffffffffffffffffffffffffffffffffffffffffffffffff1692506120d083858763ffffffff16565b9150600081118015612123575043866001836120ec9190613156565b815481106120fd576120fc61318a565b5b9060005260206000200160000160009054906101000a900463ffffffff1663ffffffff16145b156121b057612131826127d2565b8660018361213f9190613156565b815481106121505761214f61318a565b5b9060005260206000200160000160046101000a8154817bffffffffffffffffffffffffffffffffffffffffffffffffffffffff02191690837bffffffffffffffffffffffffffffffffffffffffffffffffffffffff1602179055506122a0565b8560405180604001604052806121c543611bf0565b63ffffffff1681526020016121d9856127d2565b7bffffffffffffffffffffffffffffffffffffffffffffffffffffffff168152509080600181540180825580915050600190039060005260206000200160009091909190915060008201518160000160006101000a81548163ffffffff021916908363ffffffff16021790555060208201518160000160046101000a8154817bffffffffffffffffffffffffffffffffffffffffffffffffffffffff02191690837bffffffffffffffffffffffffffffffffffffffffffffffffffffffff16021790555050505b50935093915050565b8173ffffffffffffffffffffffffffffffffffffffff168373ffffffffffffffffffffffffffffffffffffffff16141580156122e55750600081115b1561249d57600073ffffffffffffffffffffffffffffffffffffffff168373ffffffffffffffffffffffffffffffffffffffff16146123c35760008061236c600760008773ffffffffffffffffffffffffffffffffffffffff1673ffffffffffffffffffffffffffffffffffffffff16815260200190815260200160002061283d85612031565b915091508473ffffffffffffffffffffffffffffffffffffffff167fdec2bacdd2f05b59de34da9b523dff8be42e5e38e818c82fdb0bae774387a72483836040516123b8929190613ae2565b60405180910390a250505b600073ffffffffffffffffffffffffffffffffffffffff168273ffffffffffffffffffffffffffffffffffffffff161461249c57600080612445600760008673ffffffffffffffffffffffffffffffffffffffff1673ffffffffffffffffffffffffffffffffffffffff16815260200190815260200160002061201b85612031565b915091508373ffffffffffffffffffffffffffffffffffffffff167fdec2bacdd2f05b59de34da9b523dff8be42e5e38e818c82fdb0bae774387a7248383604051612491929190613ae2565b60405180910390a250505b5b505050565b600082826040516020016124b7929190613b83565b60405160208183030381529060405280519060200120905092915050565b6000807f7fffffffffffffffffffffffffffffff5d576e7357a4501ddfe92f46681b20a08360001c11156125105760006003915091506125d9565b601b8560ff16141580156125285750601c8560ff1614155b1561253a5760006004915091506125d9565b60006001878787876040516000815260200160405260405161255f9493929190613bba565b6020604051602081039080840390855afa158015612581573d6000803e3d6000fd5b505050602060405103519050600073ffffffffffffffffffffffffffffffffffffffff168173ffffffffffffffffffffffffffffffffffffffff1614156125d0576000600192509250506125d9565b80600092509250505b94509492505050565b600060048111156125f6576125f5613bff565b5b81600481111561260957612608613bff565b5b1415612614576127b4565b6001600481111561262857612627613bff565b5b81600481111561263b5761263a613bff565b5b141561267c576040517f08c379a000000000000000000000000000000000000000000000000000000000815260040161267390613c7a565b60405180910390fd5b600260048111156126905761268f613bff565b5b8160048111156126a3576126a2613bff565b5b14156126e4576040517f08c379a00000000000000000000000000000000000000000000000000000000081526004016126db90613ce6565b60405180910390fd5b600360048111156126f8576126f7613bff565b5b81600481111561270b5761270a613bff565b5b141561274c576040517f08c379a000000000000000000000000000000000000000000000000000000000815260040161274390613d78565b60405180910390fd5b60048081111561275f5761275e613bff565b5b81600481111561277257612771613bff565b5b14156127b3576040517f08c379a00000000000000000000000000000000000000000000000000000000081526004016127aa90613e0a565b60405180910390fd5b5b50565b6001816000016000828254019250508190555050565b505050565b60007bffffffffffffffffffffffffffffffffffffffffffffffffffffffff8016821115612835576040517f08c379a000000000000000000000000000000000000000000000000000000000815260040161282c90613e9c565b60405180910390fd5b819050919050565b6000818361284b9190613156565b905092915050565b6040518060400160405280600063ffffffff16815260200160007bffffffffffffffffffffffffffffffffffffffffffffffffffffffff1681525090565b600081519050919050565b600082825260208201905092915050565b60005b838110156128cb5780820151818401526020810190506128b0565b838111156128da576000848401525b50505050565b6000601f19601f8301169050919050565b60006128fc82612891565b612906818561289c565b93506129168185602086016128ad565b61291f816128e0565b840191505092915050565b6000602082019050818103600083015261294481846128f1565b905092915050565b600080fd5b600073ffffffffffffffffffffffffffffffffffffffff82169050919050565b600061297c82612951565b9050919050565b61298c81612971565b811461299757600080fd5b50565b6000813590506129a981612983565b92915050565b6000819050919050565b6129c2816129af565b81146129cd57600080fd5b50565b6000813590506129df816129b9565b92915050565b600080604083850312156129fc576129fb61294c565b5b6000612a0a8582860161299a565b9250506020612a1b858286016129d0565b9150509250929050565b60008115159050919050565b612a3a81612a25565b82525050565b6000602082019050612a556000830184612a31565b92915050565b612a64816129af565b82525050565b6000602082019050612a7f6000830184612a5b565b92915050565b600080600060608486031215612a9e57612a9d61294c565b5b6000612aac8682870161299a565b9350506020612abd8682870161299a565b9250506040612ace868287016129d0565b9150509250925092565b600060ff82169050919050565b612aee81612ad8565b82525050565b6000602082019050612b096000830184612ae5565b92915050565b6000819050919050565b612b2281612b0f565b82525050565b6000602082019050612b3d6000830184612b19565b92915050565b600060208284031215612b5957612b5861294c565b5b6000612b678482850161299a565b91505092915050565b612b7981612971565b82525050565b6000602082019050612b946000830184612b70565b92915050565b600063ffffffff82169050919050565b612bb381612b9a565b82525050565b6000602082019050612bce6000830184612baa565b92915050565b60006bffffffffffffffffffffffff82169050919050565b612bf581612bd4565b82525050565b6000602082019050612c106000830184612bec565b92915050565b600060208284031215612c2c57612c2b61294c565b5b6000612c3a848285016129d0565b91505092915050565b612c4c81612ad8565b8114612c5757600080fd5b50565b600081359050612c6981612c43565b92915050565b612c7881612b0f565b8114612c8357600080fd5b50565b600081359050612c9581612c6f565b92915050565b60008060008060008060c08789031215612cb857612cb761294c565b5b6000612cc689828a0161299a565b9650506020612cd789828a016129d0565b9550506040612ce889828a016129d0565b9450506060612cf989828a01612c5a565b9350506080612d0a89828a01612c86565b92505060a0612d1b89828a01612c86565b9150509295509295509295565b600080600080600080600060e0888a031215612d4757612d4661294c565b5b6000612d558a828b0161299a565b9750506020612d668a828b0161299a565b9650506040612d778a828b016129d0565b9550506060612d888a828b016129d0565b9450506080612d998a828b01612c5a565b93505060a0612daa8a828b01612c86565b92505060c0612dbb8a828b01612c86565b91505092959891949750929550565b60008060408385031215612de157612de061294c565b5b6000612def8582860161299a565b9250506020612e008582860161299a565b9150509250929050565b612e1381612b9a565b8114612e1e57600080fd5b50565b600081359050612e3081612e0a565b92915050565b60008060408385031215612e4d57612e4c61294c565b5b6000612e5b8582860161299a565b9250506020612e6c85828601612e21565b9150509250929050565b612e7f81612b9a565b82525050565b60007bffffffffffffffffffffffffffffffffffffffffffffffffffffffff82169050919050565b612eb681612e85565b82525050565b604082016000820151612ed26000850182612e76565b506020820151612ee56020850182612ead565b50505050565b6000604082019050612f006000830184612ebc565b92915050565b7f4e487b7100000000000000000000000000000000000000000000000000000000600052602260045260246000fd5b60006002820490506001821680612f4d57607f821691505b60208210811415612f6157612f60612f06565b5b50919050565b7f45524332303a207472616e7366657220616d6f756e742065786365656473206160008201527f6c6c6f77616e6365000000000000000000000000000000000000000000000000602082015250565b6000612fc360288361289c565b9150612fce82612f67565b604082019050919050565b60006020820190508181036000830152612ff281612fb6565b9050919050565b7f4e487b7100000000000000000000000000000000000000000000000000000000600052601160045260246000fd5b6000613033826129af565b915061303e836129af565b9250827fffffffffffffffffffffffffffffffffffffffffffffffffffffffffffffffff0382111561307357613072612ff9565b5b828201905092915050565b7f4552433230566f7465733a20626c6f636b206e6f7420796574206d696e656400600082015250565b60006130b4601f8361289c565b91506130bf8261307e565b602082019050919050565b600060208201905081810360008301526130e3816130a7565b9050919050565b7f4f776e61626c653a2063616c6c6572206973206e6f7420746865206f776e6572600082015250565b600061312060208361289c565b915061312b826130ea565b602082019050919050565b6000602082019050818103600083015261314f81613113565b9050919050565b6000613161826129af565b915061316c836129af565b92508282101561317f5761317e612ff9565b5b828203905092915050565b7f4e487b7100000000000000000000000000000000000000000000000000000000600052603260045260246000fd5b7f45524332303a2064656372656173656420616c6c6f77616e63652062656c6f7760008201527f207a65726f000000000000000000000000000000000000000000000000000000602082015250565b600061321560258361289c565b9150613220826131b9565b604082019050919050565b6000602082019050818103600083015261324481613208565b9050919050565b7f4552433230566f7465733a207369676e61747572652065787069726564000000600082015250565b6000613281601d8361289c565b915061328c8261324b565b602082019050919050565b600060208201905081810360008301526132b081613274565b9050919050565b60006080820190506132cc6000830187612b19565b6132d96020830186612b70565b6132e66040830185612a5b565b6132f36060830184612a5b565b95945050505050565b7f4552433230566f7465733a20696e76616c6964206e6f6e636500000000000000600082015250565b600061333260198361289c565b915061333d826132fc565b602082019050919050565b6000602082019050818103600083015261336181613325565b9050919050565b7f45524332305065726d69743a206578706972656420646561646c696e65000000600082015250565b600061339e601d8361289c565b91506133a982613368565b602082019050919050565b600060208201905081810360008301526133cd81613391565b9050919050565b600060c0820190506133e96000830189612b19565b6133f66020830188612b70565b6134036040830187612b70565b6134106060830186612a5b565b61341d6080830185612a5b565b61342a60a0830184612a5b565b979650505050505050565b7f45524332305065726d69743a20696e76616c6964207369676e61747572650000600082015250565b600061346b601e8361289c565b915061347682613435565b602082019050919050565b6000602082019050818103600083015261349a8161345e565b9050919050565b7f4f776e61626c653a206e6577206f776e657220697320746865207a65726f206160008201527f6464726573730000000000000000000000000000000000000000000000000000602082015250565b60006134fd60268361289c565b9150613508826134a1565b604082019050919050565b6000602082019050818103600083015261352c816134f0565b9050919050565b7f45524332303a20617070726f76652066726f6d20746865207a65726f2061646460008201527f7265737300000000000000000000000000000000000000000000000000000000602082015250565b600061358f60248361289c565b915061359a82613533565b604082019050919050565b600060208201905081810360008301526135be81613582565b9050919050565b7f45524332303a20617070726f766520746f20746865207a65726f20616464726560008201527f7373000000000000000000000000000000000000000000000000000000000000602082015250565b600061362160228361289c565b915061362c826135c5565b604082019050919050565b6000602082019050818103600083015261365081613614565b9050919050565b7f45524332303a207472616e736665722066726f6d20746865207a65726f20616460008201527f6472657373000000000000000000000000000000000000000000000000000000602082015250565b60006136b360258361289c565b91506136be82613657565b604082019050919050565b600060208201905081810360008301526136e2816136a6565b9050919050565b7f45524332303a207472616e7366657220746f20746865207a65726f206164647260008201527f6573730000000000000000000000000000000000000000000000000000000000602082015250565b600061374560238361289c565b9150613750826136e9565b604082019050919050565b6000602082019050818103600083015261377481613738565b9050919050565b7f45524332303a207472616e7366657220616d6f756e742065786365656473206260008201527f616c616e63650000000000000000000000000000000000000000000000000000602082015250565b60006137d760268361289c565b91506137e28261377b565b604082019050919050565b60006020820190508181036000830152613806816137ca565b9050919050565b7f4552433230566f7465733a20746f74616c20737570706c79207269736b73206f60008201527f766572666c6f77696e6720766f74657300000000000000000000000000000000602082015250565b600061386960308361289c565b91506138748261380d565b604082019050919050565b600060208201905081810360008301526138988161385c565b9050919050565b7f53616665436173743a2076616c756520646f65736e27742066697420696e203360008201527f3220626974730000000000000000000000000000000000000000000000000000602082015250565b60006138fb60268361289c565b91506139068261389f565b604082019050919050565b6000602082019050818103600083015261392a816138ee565b9050919050565b7f53616665436173743a2076616c756520646f65736e27742066697420696e203960008201527f3620626974730000000000000000000000000000000000000000000000000000602082015250565b600061398d60268361289c565b915061399882613931565b604082019050919050565b600060208201905081810360008301526139bc81613980565b9050919050565b600060a0820190506139d86000830188612b19565b6139e56020830187612b19565b6139f26040830186612b19565b6139ff6060830185612a5b565b613a0c6080830184612b70565b9695505050505050565b7f4e487b7100000000000000000000000000000000000000000000000000000000600052601260045260246000fd5b6000613a50826129af565b9150613a5b836129af565b925082613a6b57613a6a613a16565b5b828204905092915050565b7f45524332303a206d696e7420746f20746865207a65726f206164647265737300600082015250565b6000613aac601f8361289c565b9150613ab782613a76565b602082019050919050565b60006020820190508181036000830152613adb81613a9f565b9050919050565b6000604082019050613af76000830185612a5b565b613b046020830184612a5b565b9392505050565b600081905092915050565b7f1901000000000000000000000000000000000000000000000000000000000000600082015250565b6000613b4c600283613b0b565b9150613b5782613b16565b600282019050919050565b6000819050919050565b613b7d613b7882612b0f565b613b62565b82525050565b6000613b8e82613b3f565b9150613b9a8285613b6c565b602082019150613baa8284613b6c565b6020820191508190509392505050565b6000608082019050613bcf6000830187612b19565b613bdc6020830186612ae5565b613be96040830185612b19565b613bf66060830184612b19565b95945050505050565b7f4e487b7100000000000000000000000000000000000000000000000000000000600052602160045260246000fd5b7f45434453413a20696e76616c6964207369676e61747572650000000000000000600082015250565b6000613c6460188361289c565b9150613c6f82613c2e565b602082019050919050565b60006020820190508181036000830152613c9381613c57565b9050919050565b7f45434453413a20696e76616c6964207369676e6174757265206c656e67746800600082015250565b6000613cd0601f8361289c565b9150613cdb82613c9a565b602082019050919050565b60006020820190508181036000830152613cff81613cc3565b9050919050565b7f45434453413a20696e76616c6964207369676e6174757265202773272076616c60008201527f7565000000000000000000000000000000000000000000000000000000000000602082015250565b6000613d6260228361289c565b9150613d6d82613d06565b604082019050919050565b60006020820190508181036000830152613d9181613d55565b9050919050565b7f45434453413a20696e76616c6964207369676e6174757265202776272076616c60008201527f7565000000000000000000000000000000000000000000000000000000000000602082015250565b6000613df460228361289c565b9150613dff82613d98565b604082019050919050565b60006020820190508181036000830152613e2381613de7565b9050919050565b7f53616665436173743a2076616c756520646f65736e27742066697420696e203260008201527f3234206269747300000000000000000000000000000000000000000000000000602082015250565b6000613e8660278361289c565b9150613e9182613e2a565b604082019050919050565b60006020820190508181036000830152613eb581613e79565b905091905056fea264697066735822122035187396bc36bf78a373ae3741f5b3087672d98de765c08fa5d0edcbf461847064736f6c634300080a0033",
  "immutableReferences": {
    "1483": [
      {
        "length": 32,
        "start": 4165
      }
    ],
    "3644": [
      {
        "length": 32,
        "start": 6310
      }
    ],
    "3646": [
      {
        "length": 32,
        "start": 6269
      }
    ],
    "3648": [
      {
        "length": 32,
        "start": 6183
      }
    ],
    "3650": [
      {
        "length": 32,
        "start": 6386
      }
    ],
    "3652": [
      {
        "length": 32,
        "start": 6419
      }
    ],
    "3654": [
      {
        "length": 32,
        "start": 6353
      }
    ]
  },
  "source": "// SPDX-License-Identifier: MIT\n\npragma solidity ^0.8.0;\n\nimport \"@openzeppelin/contracts/token/ERC20/extensions/ERC20VotesComp.sol\";\nimport \"@openzeppelin/contracts/access/Ownable.sol\";\n\ncontract AtivVotes is ERC20VotesComp, Ownable {\n    constructor() ERC20(\"ATIV Votes\", \"ATIV\") ERC20Permit(\"ATIV Votes\") {}\n    \n    function mint(address account, uint256 amount) public onlyOwner {\n        _mint(account, amount);\n    }\n}\n",
  "sourcePath": "/Users/lukepark/Desktop//dev/ativ-EVM/contracts/AtivVotes.sol",
  "compiler": {
    "name": "solc",
    "version": "0.8.10+commit.fc410830.Emscripten.clang"
  },
  "schemaVersion": "3.4.3",
  "updatedAt": "2021-12-17T16:08:15.837Z",
  "devdoc": {
    "kind": "dev",
    "methods": {
      "DOMAIN_SEPARATOR()": {
        "details": "See {IERC20Permit-DOMAIN_SEPARATOR}."
      },
      "allowance(address,address)": {
        "details": "See {IERC20-allowance}."
      },
      "approve(address,uint256)": {
        "details": "See {IERC20-approve}. Requirements: - `spender` cannot be the zero address."
      },
      "balanceOf(address)": {
        "details": "See {IERC20-balanceOf}."
      },
      "checkpoints(address,uint32)": {
        "details": "Get the `pos`-th checkpoint for `account`."
      },
      "decimals()": {
        "details": "Returns the number of decimals used to get its user representation. For example, if `decimals` equals `2`, a balance of `505` tokens should be displayed to a user as `5.05` (`505 / 10 ** 2`). Tokens usually opt for a value of 18, imitating the relationship between Ether and Wei. This is the value {ERC20} uses, unless this function is overridden; NOTE: This information is only used for _display_ purposes: it in no way affects any of the arithmetic of the contract, including {IERC20-balanceOf} and {IERC20-transfer}."
      },
      "decreaseAllowance(address,uint256)": {
        "details": "Atomically decreases the allowance granted to `spender` by the caller. This is an alternative to {approve} that can be used as a mitigation for problems described in {IERC20-approve}. Emits an {Approval} event indicating the updated allowance. Requirements: - `spender` cannot be the zero address. - `spender` must have allowance for the caller of at least `subtractedValue`."
      },
      "delegate(address)": {
        "details": "Delegate votes from the sender to `delegatee`."
      },
      "delegateBySig(address,uint256,uint256,uint8,bytes32,bytes32)": {
        "details": "Delegates votes from signer to `delegatee`"
      },
      "delegates(address)": {
        "details": "Get the address `account` is currently delegating to."
      },
      "getCurrentVotes(address)": {
        "details": "Comp version of the {getVotes} accessor, with `uint96` return type."
      },
      "getPastTotalSupply(uint256)": {
        "details": "Retrieve the `totalSupply` at the end of `blockNumber`. Note, this value is the sum of all balances. It is but NOT the sum of all the delegated votes! Requirements: - `blockNumber` must have been already mined"
      },
      "getPastVotes(address,uint256)": {
        "details": "Retrieve the number of votes for `account` at the end of `blockNumber`. Requirements: - `blockNumber` must have been already mined"
      },
      "getPriorVotes(address,uint256)": {
        "details": "Comp version of the {getPastVotes} accessor, with `uint96` return type."
      },
      "getVotes(address)": {
        "details": "Gets the current votes balance for `account`"
      },
      "increaseAllowance(address,uint256)": {
        "details": "Atomically increases the allowance granted to `spender` by the caller. This is an alternative to {approve} that can be used as a mitigation for problems described in {IERC20-approve}. Emits an {Approval} event indicating the updated allowance. Requirements: - `spender` cannot be the zero address."
      },
      "name()": {
        "details": "Returns the name of the token."
      },
      "nonces(address)": {
        "details": "See {IERC20Permit-nonces}."
      },
      "numCheckpoints(address)": {
        "details": "Get number of checkpoints for `account`."
      },
      "owner()": {
        "details": "Returns the address of the current owner."
      },
      "permit(address,address,uint256,uint256,uint8,bytes32,bytes32)": {
        "details": "See {IERC20Permit-permit}."
      },
      "renounceOwnership()": {
        "details": "Leaves the contract without owner. It will not be possible to call `onlyOwner` functions anymore. Can only be called by the current owner. NOTE: Renouncing ownership will leave the contract without an owner, thereby removing any functionality that is only available to the owner."
      },
      "symbol()": {
        "details": "Returns the symbol of the token, usually a shorter version of the name."
      },
      "totalSupply()": {
        "details": "See {IERC20-totalSupply}."
      },
      "transfer(address,uint256)": {
        "details": "See {IERC20-transfer}. Requirements: - `recipient` cannot be the zero address. - the caller must have a balance of at least `amount`."
      },
      "transferFrom(address,address,uint256)": {
        "details": "See {IERC20-transferFrom}. Emits an {Approval} event indicating the updated allowance. This is not required by the EIP. See the note at the beginning of {ERC20}. Requirements: - `sender` and `recipient` cannot be the zero address. - `sender` must have a balance of at least `amount`. - the caller must have allowance for ``sender``'s tokens of at least `amount`."
      },
      "transferOwnership(address)": {
        "details": "Transfers ownership of the contract to a new account (`newOwner`). Can only be called by the current owner."
      }
    },
    "version": 1
  },
  "userdoc": {
    "kind": "user",
    "methods": {},
    "version": 1
  }
}