{
  "contractName": "AtivVotes",
  "abi": [
    {
      "inputs": [],
      "stateMutability": "nonpayable",
      "type": "constructor"
    },
    {
      "anonymous": false,
      "inputs": [
        {
          "indexed": true,
          "internalType": "address",
          "name": "owner",
          "type": "address"
        },
        {
          "indexed": true,
          "internalType": "address",
          "name": "spender",
          "type": "address"
        },
        {
          "indexed": false,
          "internalType": "uint256",
          "name": "value",
          "type": "uint256"
        }
      ],
      "name": "Approval",
      "type": "event"
    },
    {
      "anonymous": false,
      "inputs": [
        {
          "indexed": true,
          "internalType": "address",
          "name": "delegator",
          "type": "address"
        },
        {
          "indexed": true,
          "internalType": "address",
          "name": "fromDelegate",
          "type": "address"
        },
        {
          "indexed": true,
          "internalType": "address",
          "name": "toDelegate",
          "type": "address"
        }
      ],
      "name": "DelegateChanged",
      "type": "event"
    },
    {
      "anonymous": false,
      "inputs": [
        {
          "indexed": true,
          "internalType": "address",
          "name": "delegate",
          "type": "address"
        },
        {
          "indexed": false,
          "internalType": "uint256",
          "name": "previousBalance",
          "type": "uint256"
        },
        {
          "indexed": false,
          "internalType": "uint256",
          "name": "newBalance",
          "type": "uint256"
        }
      ],
      "name": "DelegateVotesChanged",
      "type": "event"
    },
    {
      "anonymous": false,
      "inputs": [
        {
          "indexed": true,
          "internalType": "address",
          "name": "previousOwner",
          "type": "address"
        },
        {
          "indexed": true,
          "internalType": "address",
          "name": "newOwner",
          "type": "address"
        }
      ],
      "name": "OwnershipTransferred",
      "type": "event"
    },
    {
      "anonymous": false,
      "inputs": [
        {
          "indexed": true,
          "internalType": "address",
          "name": "from",
          "type": "address"
        },
        {
          "indexed": true,
          "internalType": "address",
          "name": "to",
          "type": "address"
        },
        {
          "indexed": false,
          "internalType": "uint256",
          "name": "value",
          "type": "uint256"
        }
      ],
      "name": "Transfer",
      "type": "event"
    },
    {
      "inputs": [],
      "name": "DOMAIN_SEPARATOR",
      "outputs": [
        {
          "internalType": "bytes32",
          "name": "",
          "type": "bytes32"
        }
      ],
      "stateMutability": "view",
      "type": "function"
    },
    {
      "inputs": [
        {
          "internalType": "address",
          "name": "owner",
          "type": "address"
        },
        {
          "internalType": "address",
          "name": "spender",
          "type": "address"
        }
      ],
      "name": "allowance",
      "outputs": [
        {
          "internalType": "uint256",
          "name": "",
          "type": "uint256"
        }
      ],
      "stateMutability": "view",
      "type": "function"
    },
    {
      "inputs": [
        {
          "internalType": "address",
          "name": "spender",
          "type": "address"
        },
        {
          "internalType": "uint256",
          "name": "amount",
          "type": "uint256"
        }
      ],
      "name": "approve",
      "outputs": [
        {
          "internalType": "bool",
          "name": "",
          "type": "bool"
        }
      ],
      "stateMutability": "nonpayable",
      "type": "function"
    },
    {
      "inputs": [
        {
          "internalType": "address",
          "name": "account",
          "type": "address"
        }
      ],
      "name": "balanceOf",
      "outputs": [
        {
          "internalType": "uint256",
          "name": "",
          "type": "uint256"
        }
      ],
      "stateMutability": "view",
      "type": "function"
    },
    {
      "inputs": [
        {
          "internalType": "address",
          "name": "account",
          "type": "address"
        },
        {
          "internalType": "uint32",
          "name": "pos",
          "type": "uint32"
        }
      ],
      "name": "checkpoints",
      "outputs": [
        {
          "components": [
            {
              "internalType": "uint32",
              "name": "fromBlock",
              "type": "uint32"
            },
            {
              "internalType": "uint224",
              "name": "votes",
              "type": "uint224"
            }
          ],
          "internalType": "struct ERC20Votes.Checkpoint",
          "name": "",
          "type": "tuple"
        }
      ],
      "stateMutability": "view",
      "type": "function"
    },
    {
      "inputs": [],
      "name": "decimals",
      "outputs": [
        {
          "internalType": "uint8",
          "name": "",
          "type": "uint8"
        }
      ],
      "stateMutability": "view",
      "type": "function"
    },
    {
      "inputs": [
        {
          "internalType": "address",
          "name": "spender",
          "type": "address"
        },
        {
          "internalType": "uint256",
          "name": "subtractedValue",
          "type": "uint256"
        }
      ],
      "name": "decreaseAllowance",
      "outputs": [
        {
          "internalType": "bool",
          "name": "",
          "type": "bool"
        }
      ],
      "stateMutability": "nonpayable",
      "type": "function"
    },
    {
      "inputs": [
        {
          "internalType": "address",
          "name": "delegatee",
          "type": "address"
        }
      ],
      "name": "delegate",
      "outputs": [],
      "stateMutability": "nonpayable",
      "type": "function"
    },
    {
      "inputs": [
        {
          "internalType": "address",
          "name": "delegatee",
          "type": "address"
        },
        {
          "internalType": "uint256",
          "name": "nonce",
          "type": "uint256"
        },
        {
          "internalType": "uint256",
          "name": "expiry",
          "type": "uint256"
        },
        {
          "internalType": "uint8",
          "name": "v",
          "type": "uint8"
        },
        {
          "internalType": "bytes32",
          "name": "r",
          "type": "bytes32"
        },
        {
          "internalType": "bytes32",
          "name": "s",
          "type": "bytes32"
        }
      ],
      "name": "delegateBySig",
      "outputs": [],
      "stateMutability": "nonpayable",
      "type": "function"
    },
    {
      "inputs": [
        {
          "internalType": "address",
          "name": "account",
          "type": "address"
        }
      ],
      "name": "delegates",
      "outputs": [
        {
          "internalType": "address",
          "name": "",
          "type": "address"
        }
      ],
      "stateMutability": "view",
      "type": "function"
    },
    {
      "inputs": [
        {
          "internalType": "address",
          "name": "account",
          "type": "address"
        }
      ],
      "name": "getCurrentVotes",
      "outputs": [
        {
          "internalType": "uint96",
          "name": "",
          "type": "uint96"
        }
      ],
      "stateMutability": "view",
      "type": "function"
    },
    {
      "inputs": [
        {
          "internalType": "uint256",
          "name": "blockNumber",
          "type": "uint256"
        }
      ],
      "name": "getPastTotalSupply",
      "outputs": [
        {
          "internalType": "uint256",
          "name": "",
          "type": "uint256"
        }
      ],
      "stateMutability": "view",
      "type": "function"
    },
    {
      "inputs": [
        {
          "internalType": "address",
          "name": "account",
          "type": "address"
        },
        {
          "internalType": "uint256",
          "name": "blockNumber",
          "type": "uint256"
        }
      ],
      "name": "getPastVotes",
      "outputs": [
        {
          "internalType": "uint256",
          "name": "",
          "type": "uint256"
        }
      ],
      "stateMutability": "view",
      "type": "function"
    },
    {
      "inputs": [
        {
          "internalType": "address",
          "name": "account",
          "type": "address"
        },
        {
          "internalType": "uint256",
          "name": "blockNumber",
          "type": "uint256"
        }
      ],
      "name": "getPriorVotes",
      "outputs": [
        {
          "internalType": "uint96",
          "name": "",
          "type": "uint96"
        }
      ],
      "stateMutability": "view",
      "type": "function"
    },
    {
      "inputs": [
        {
          "internalType": "address",
          "name": "account",
          "type": "address"
        }
      ],
      "name": "getVotes",
      "outputs": [
        {
          "internalType": "uint256",
          "name": "",
          "type": "uint256"
        }
      ],
      "stateMutability": "view",
      "type": "function"
    },
    {
      "inputs": [
        {
          "internalType": "address",
          "name": "spender",
          "type": "address"
        },
        {
          "internalType": "uint256",
          "name": "addedValue",
          "type": "uint256"
        }
      ],
      "name": "increaseAllowance",
      "outputs": [
        {
          "internalType": "bool",
          "name": "",
          "type": "bool"
        }
      ],
      "stateMutability": "nonpayable",
      "type": "function"
    },
    {
      "inputs": [],
      "name": "masterChef",
      "outputs": [
        {
          "internalType": "address",
          "name": "",
          "type": "address"
        }
      ],
      "stateMutability": "view",
      "type": "function"
    },
    {
      "inputs": [],
      "name": "name",
      "outputs": [
        {
          "internalType": "string",
          "name": "",
          "type": "string"
        }
      ],
      "stateMutability": "view",
      "type": "function"
    },
    {
      "inputs": [
        {
          "internalType": "address",
          "name": "owner",
          "type": "address"
        }
      ],
      "name": "nonces",
      "outputs": [
        {
          "internalType": "uint256",
          "name": "",
          "type": "uint256"
        }
      ],
      "stateMutability": "view",
      "type": "function"
    },
    {
      "inputs": [
        {
          "internalType": "address",
          "name": "account",
          "type": "address"
        }
      ],
      "name": "numCheckpoints",
      "outputs": [
        {
          "internalType": "uint32",
          "name": "",
          "type": "uint32"
        }
      ],
      "stateMutability": "view",
      "type": "function"
    },
    {
      "inputs": [],
      "name": "owner",
      "outputs": [
        {
          "internalType": "address",
          "name": "",
          "type": "address"
        }
      ],
      "stateMutability": "view",
      "type": "function"
    },
    {
      "inputs": [
        {
          "internalType": "address",
          "name": "owner",
          "type": "address"
        },
        {
          "internalType": "address",
          "name": "spender",
          "type": "address"
        },
        {
          "internalType": "uint256",
          "name": "value",
          "type": "uint256"
        },
        {
          "internalType": "uint256",
          "name": "deadline",
          "type": "uint256"
        },
        {
          "internalType": "uint8",
          "name": "v",
          "type": "uint8"
        },
        {
          "internalType": "bytes32",
          "name": "r",
          "type": "bytes32"
        },
        {
          "internalType": "bytes32",
          "name": "s",
          "type": "bytes32"
        }
      ],
      "name": "permit",
      "outputs": [],
      "stateMutability": "nonpayable",
      "type": "function"
    },
    {
      "inputs": [],
      "name": "renounceOwnership",
      "outputs": [],
      "stateMutability": "nonpayable",
      "type": "function"
    },
    {
      "inputs": [],
      "name": "symbol",
      "outputs": [
        {
          "internalType": "string",
          "name": "",
          "type": "string"
        }
      ],
      "stateMutability": "view",
      "type": "function"
    },
    {
      "inputs": [],
      "name": "totalSupply",
      "outputs": [
        {
          "internalType": "uint256",
          "name": "",
          "type": "uint256"
        }
      ],
      "stateMutability": "view",
      "type": "function"
    },
    {
      "inputs": [
        {
          "internalType": "address",
          "name": "recipient",
          "type": "address"
        },
        {
          "internalType": "uint256",
          "name": "amount",
          "type": "uint256"
        }
      ],
      "name": "transfer",
      "outputs": [
        {
          "internalType": "bool",
          "name": "",
          "type": "bool"
        }
      ],
      "stateMutability": "nonpayable",
      "type": "function"
    },
    {
      "inputs": [
        {
          "internalType": "address",
          "name": "sender",
          "type": "address"
        },
        {
          "internalType": "address",
          "name": "recipient",
          "type": "address"
        },
        {
          "internalType": "uint256",
          "name": "amount",
          "type": "uint256"
        }
      ],
      "name": "transferFrom",
      "outputs": [
        {
          "internalType": "bool",
          "name": "",
          "type": "bool"
        }
      ],
      "stateMutability": "nonpayable",
      "type": "function"
    },
    {
      "inputs": [
        {
          "internalType": "address",
          "name": "newOwner",
          "type": "address"
        }
      ],
      "name": "transferOwnership",
      "outputs": [],
      "stateMutability": "nonpayable",
      "type": "function"
    },
    {
      "inputs": [
        {
          "internalType": "address",
          "name": "masterChef_",
          "type": "address"
        }
      ],
      "name": "init",
      "outputs": [],
      "stateMutability": "nonpayable",
      "type": "function"
    },
    {
      "inputs": [
        {
          "internalType": "address",
          "name": "account",
          "type": "address"
        },
        {
          "internalType": "uint256",
          "name": "amount",
          "type": "uint256"
        }
      ],
      "name": "mint",
      "outputs": [],
      "stateMutability": "nonpayable",
      "type": "function"
    },
    {
      "inputs": [
        {
          "internalType": "address",
          "name": "account",
          "type": "address"
        },
        {
          "internalType": "uint256",
          "name": "amount",
          "type": "uint256"
        }
      ],
      "name": "migrateFrom",
      "outputs": [],
      "stateMutability": "nonpayable",
      "type": "function"
    },
    {
      "inputs": [
        {
          "internalType": "address",
          "name": "account",
          "type": "address"
        },
        {
          "internalType": "uint256",
          "name": "amount",
          "type": "uint256"
        }
      ],
      "name": "migrateTo",
      "outputs": [],
      "stateMutability": "nonpayable",
      "type": "function"
    }
  ],
  "bytecode": "0x6101606040527f6e71edae12b1b97f4d1f60370fef10105fa2faae0126114a169c64845d6126c9610140908152503480156200003a57600080fd5b506040518060400160405280600a81526020017f4154495620566f74657300000000000000000000000000000000000000000000815250806040518060400160405280600181526020017f31000000000000000000000000000000000000000000000000000000000000008152506040518060400160405280600a81526020017f4154495620566f746573000000000000000000000000000000000000000000008152506040518060400160405280600481526020017f415449560000000000000000000000000000000000000000000000000000000081525081600390805190602001906200012c9291906200032b565b508060049080519060200190620001459291906200032b565b50505060008280519060200120905060008280519060200120905060007f8b73c3c69bb8fe3d512ecc4cf759cc79239f7b179b0ffacaa9a75d522b39400f90508260e081815250508161010081815250504660a08181525050620001b18184846200022160201b60201c565b608081815250503073ffffffffffffffffffffffffffffffffffffffff1660c08173ffffffffffffffffffffffffffffffffffffffff16815250508061012081815250505050505050506200021b6200020f6200025d60201b60201c565b6200026560201b60201c565b62000518565b600083838346306040516020016200023e95949392919062000456565b6040516020818303038152906040528051906020012090509392505050565b600033905090565b6000600960009054906101000a900473ffffffffffffffffffffffffffffffffffffffff16905081600960006101000a81548173ffffffffffffffffffffffffffffffffffffffff021916908373ffffffffffffffffffffffffffffffffffffffff1602179055508173ffffffffffffffffffffffffffffffffffffffff168173ffffffffffffffffffffffffffffffffffffffff167f8be0079c531659141344cd1fd0a4f28419497f9722a3daafe3b4186f6b6457e060405160405180910390a35050565b8280546200033990620004e2565b90600052602060002090601f0160209004810192826200035d5760008555620003a9565b82601f106200037857805160ff1916838001178555620003a9565b82800160010185558215620003a9579182015b82811115620003a85782518255916020019190600101906200038b565b5b509050620003b89190620003bc565b5090565b5b80821115620003d7576000816000905550600101620003bd565b5090565b6000819050919050565b620003f081620003db565b82525050565b6000819050919050565b6200040b81620003f6565b82525050565b600073ffffffffffffffffffffffffffffffffffffffff82169050919050565b60006200043e8262000411565b9050919050565b620004508162000431565b82525050565b600060a0820190506200046d6000830188620003e5565b6200047c6020830187620003e5565b6200048b6040830186620003e5565b6200049a606083018562000400565b620004a9608083018462000445565b9695505050505050565b7f4e487b7100000000000000000000000000000000000000000000000000000000600052602260045260246000fd5b60006002820490506001821680620004fb57607f821691505b60208210811415620005125762000511620004b3565b5b50919050565b60805160a05160c05160e0516101005161012051610140516144a762000573600039600061127501526000611b1f01526000611b6101526000611b4001526000611a7501526000611acb01526000611af401526144a76000f3fe608060405234801561001057600080fd5b50600436106101f05760003560e01c8063715018a61161010f578063a457c2d7116100a2578063d505accf11610071578063d505accf14610619578063dd62ed3e14610635578063f1127ed814610665578063f2fde38b14610695576101f0565b8063a457c2d71461056d578063a9059cbb1461059d578063b4b5ea57146105cd578063c3cda520146105fd576101f0565b80638da5cb5b116100de5780638da5cb5b146104d15780638e539e8c146104ef57806395d89b411461051f5780639ab24eb01461053d576101f0565b8063715018a61461044b578063782d6fe1146104555780637a3130e3146104855780637ecebe00146104a1576101f0565b80633950935111610187578063587cde1e11610156578063587cde1e1461039f5780635c19a95c146103cf5780636fcfff45146103eb57806370a082311461041b576101f0565b806339509351146103055780633a46b1a81461033557806340c10f1914610365578063575a86b214610381576101f0565b806319ab453c116101c357806319ab453c1461027d57806323b872dd14610299578063313ce567146102c95780633644e515146102e7576101f0565b806306fdde03146101f5578063095ea7b3146102135780630d213d311461024357806318160ddd1461025f575b600080fd5b6101fd6106b1565b60405161020a9190612d4f565b60405180910390f35b61022d60048036038101906102289190612e0a565b610743565b60405161023a9190612e65565b60405180910390f35b61025d60048036038101906102589190612e0a565b610761565b005b6102676107eb565b6040516102749190612e8f565b60405180910390f35b61029760048036038101906102929190612eaa565b6107f5565b005b6102b360048036038101906102ae9190612ed7565b610839565b6040516102c09190612e65565b60405180910390f35b6102d1610931565b6040516102de9190612f46565b60405180910390f35b6102ef61093a565b6040516102fc9190612f7a565b60405180910390f35b61031f600480360381019061031a9190612e0a565b610949565b60405161032c9190612e65565b60405180910390f35b61034f600480360381019061034a9190612e0a565b6109f5565b60405161035c9190612e8f565b60405180910390f35b61037f600480360381019061037a9190612e0a565b610a89565b005b610389610b27565b6040516103969190612fa4565b60405180910390f35b6103b960048036038101906103b49190612eaa565b610b4d565b6040516103c69190612fa4565b60405180910390f35b6103e960048036038101906103e49190612eaa565b610bb6565b005b61040560048036038101906104009190612eaa565b610bca565b6040516104129190612fde565b60405180910390f35b61043560048036038101906104309190612eaa565b610c1e565b6040516104429190612e8f565b60405180910390f35b610453610c66565b005b61046f600480360381019061046a9190612e0a565b610cee565b60405161047c9190613020565b60405180910390f35b61049f600480360381019061049a9190612e0a565b610d0a565b005b6104bb60048036038101906104b69190612eaa565b610d94565b6040516104c89190612e8f565b60405180910390f35b6104d9610de4565b6040516104e69190612fa4565b60405180910390f35b6105096004803603810190610504919061303b565b610e0e565b6040516105169190612e8f565b60405180910390f35b610527610e64565b6040516105349190612d4f565b60405180910390f35b61055760048036038101906105529190612eaa565b610ef6565b6040516105649190612e8f565b60405180910390f35b61058760048036038101906105829190612e0a565b611007565b6040516105949190612e65565b60405180910390f35b6105b760048036038101906105b29190612e0a565b6110f2565b6040516105c49190612e65565b60405180910390f35b6105e760048036038101906105e29190612eaa565b611110565b6040516105f49190613020565b60405180910390f35b610617600480360381019061061291906130c0565b61112a565b005b610633600480360381019061062e919061314d565b61122e565b005b61064f600480360381019061064a91906131ef565b611370565b60405161065c9190612e8f565b60405180910390f35b61067f600480360381019061067a919061325b565b6113f7565b60405161068c9190613310565b60405180910390f35b6106af60048036038101906106aa9190612eaa565b611507565b005b6060600380546106c09061335a565b80601f01602080910402602001604051908101604052809291908181526020018280546106ec9061335a565b80156107395780601f1061070e57610100808354040283529160200191610739565b820191906000526020600020905b81548152906001019060200180831161071c57829003601f168201915b5050505050905090565b60006107576107506115ff565b8484611607565b6001905092915050565b6107696115ff565b73ffffffffffffffffffffffffffffffffffffffff16610787610de4565b73ffffffffffffffffffffffffffffffffffffffff16146107dd576040517f08c379a00000000000000000000000000000000000000000000000000000000081526004016107d4906133d8565b60405180910390fd5b6107e782826117d2565b5050565b6000600254905090565b80600a60006101000a81548173ffffffffffffffffffffffffffffffffffffffff021916908373ffffffffffffffffffffffffffffffffffffffff16021790555050565b60006108468484846117f0565b6000600160008673ffffffffffffffffffffffffffffffffffffffff1673ffffffffffffffffffffffffffffffffffffffff16815260200190815260200160002060006108916115ff565b73ffffffffffffffffffffffffffffffffffffffff1673ffffffffffffffffffffffffffffffffffffffff16815260200190815260200160002054905082811015610911576040517f08c379a00000000000000000000000000000000000000000000000000000000081526004016109089061346a565b60405180910390fd5b6109258561091d6115ff565b858403611607565b60019150509392505050565b60006012905090565b6000610944611a71565b905090565b60006109eb6109566115ff565b8484600160006109646115ff565b73ffffffffffffffffffffffffffffffffffffffff1673ffffffffffffffffffffffffffffffffffffffff16815260200190815260200160002060008873ffffffffffffffffffffffffffffffffffffffff1673ffffffffffffffffffffffffffffffffffffffff168152602001908152602001600020546109e691906134b9565b611607565b6001905092915050565b6000438210610a39576040517f08c379a0000000000000000000000000000000000000000000000000000000008152600401610a309061355b565b60405180910390fd5b610a81600760008573ffffffffffffffffffffffffffffffffffffffff1673ffffffffffffffffffffffffffffffffffffffff16815260200190815260200160002083611b8b565b905092915050565b600a60009054906101000a900473ffffffffffffffffffffffffffffffffffffffff1673ffffffffffffffffffffffffffffffffffffffff163373ffffffffffffffffffffffffffffffffffffffff1614610b19576040517f08c379a0000000000000000000000000000000000000000000000000000000008152600401610b10906135c7565b60405180910390fd5b610b238282611c97565b5050565b600a60009054906101000a900473ffffffffffffffffffffffffffffffffffffffff1681565b6000600660008373ffffffffffffffffffffffffffffffffffffffff1673ffffffffffffffffffffffffffffffffffffffff16815260200190815260200160002060009054906101000a900473ffffffffffffffffffffffffffffffffffffffff169050919050565b610bc7610bc16115ff565b82611d24565b50565b6000610c17600760008473ffffffffffffffffffffffffffffffffffffffff1673ffffffffffffffffffffffffffffffffffffffff16815260200190815260200160002080549050611e3e565b9050919050565b60008060008373ffffffffffffffffffffffffffffffffffffffff1673ffffffffffffffffffffffffffffffffffffffff168152602001908152602001600020549050919050565b610c6e6115ff565b73ffffffffffffffffffffffffffffffffffffffff16610c8c610de4565b73ffffffffffffffffffffffffffffffffffffffff1614610ce2576040517f08c379a0000000000000000000000000000000000000000000000000000000008152600401610cd9906133d8565b60405180910390fd5b610cec6000611e91565b565b6000610d02610cfd84846109f5565b611f57565b905092915050565b610d126115ff565b73ffffffffffffffffffffffffffffffffffffffff16610d30610de4565b73ffffffffffffffffffffffffffffffffffffffff1614610d86576040517f08c379a0000000000000000000000000000000000000000000000000000000008152600401610d7d906133d8565b60405180910390fd5b610d908282611c97565b5050565b6000610ddd600560008473ffffffffffffffffffffffffffffffffffffffff1673ffffffffffffffffffffffffffffffffffffffff168152602001908152602001600020611fb2565b9050919050565b6000600960009054906101000a900473ffffffffffffffffffffffffffffffffffffffff16905090565b6000438210610e52576040517f08c379a0000000000000000000000000000000000000000000000000000000008152600401610e499061355b565b60405180910390fd5b610e5d600883611b8b565b9050919050565b606060048054610e739061335a565b80601f0160208091040260200160405190810160405280929190818152602001828054610e9f9061335a565b8015610eec5780601f10610ec157610100808354040283529160200191610eec565b820191906000526020600020905b815481529060010190602001808311610ecf57829003601f168201915b5050505050905090565b600080600760008473ffffffffffffffffffffffffffffffffffffffff1673ffffffffffffffffffffffffffffffffffffffff16815260200190815260200160002080549050905060008114610fde57600760008473ffffffffffffffffffffffffffffffffffffffff1673ffffffffffffffffffffffffffffffffffffffff168152602001908152602001600020600182610f9291906135e7565b81548110610fa357610fa261361b565b5b9060005260206000200160000160049054906101000a90047bffffffffffffffffffffffffffffffffffffffffffffffffffffffff16610fe1565b60005b7bffffffffffffffffffffffffffffffffffffffffffffffffffffffff16915050919050565b600080600160006110166115ff565b73ffffffffffffffffffffffffffffffffffffffff1673ffffffffffffffffffffffffffffffffffffffff16815260200190815260200160002060008573ffffffffffffffffffffffffffffffffffffffff1673ffffffffffffffffffffffffffffffffffffffff168152602001908152602001600020549050828110156110d3576040517f08c379a00000000000000000000000000000000000000000000000000000000081526004016110ca906136bc565b60405180910390fd5b6110e76110de6115ff565b85858403611607565b600191505092915050565b60006111066110ff6115ff565b84846117f0565b6001905092915050565b600061112361111e83610ef6565b611f57565b9050919050565b8342111561116d576040517f08c379a000000000000000000000000000000000000000000000000000000000815260040161116490613728565b60405180910390fd5b60006111cf6111c77fe48329057bfd03d55e49b547132e39cffd9c1820ad7b9d4c5307691425d15adf8989896040516020016111ac9493929190613748565b60405160208183030381529060405280519060200120611fc0565b858585611fda565b90506111da81612005565b861461121b576040517f08c379a0000000000000000000000000000000000000000000000000000000008152600401611212906137d9565b60405180910390fd5b6112258188611d24565b50505050505050565b83421115611271576040517f08c379a000000000000000000000000000000000000000000000000000000000815260040161126890613845565b60405180910390fd5b60007f00000000000000000000000000000000000000000000000000000000000000008888886112a08c612005565b896040516020016112b696959493929190613865565b60405160208183030381529060405280519060200120905060006112d982611fc0565b905060006112e982878787611fda565b90508973ffffffffffffffffffffffffffffffffffffffff168173ffffffffffffffffffffffffffffffffffffffff1614611359576040517f08c379a000000000000000000000000000000000000000000000000000000000815260040161135090613912565b60405180910390fd5b6113648a8a8a611607565b50505050505050505050565b6000600160008473ffffffffffffffffffffffffffffffffffffffff1673ffffffffffffffffffffffffffffffffffffffff16815260200190815260200160002060008373ffffffffffffffffffffffffffffffffffffffff1673ffffffffffffffffffffffffffffffffffffffff16815260200190815260200160002054905092915050565b6113ff612c78565b600760008473ffffffffffffffffffffffffffffffffffffffff1673ffffffffffffffffffffffffffffffffffffffff1681526020019081526020016000208263ffffffff16815481106114565761145561361b565b5b906000526020600020016040518060400160405290816000820160009054906101000a900463ffffffff1663ffffffff1663ffffffff1681526020016000820160049054906101000a90047bffffffffffffffffffffffffffffffffffffffffffffffffffffffff167bffffffffffffffffffffffffffffffffffffffffffffffffffffffff167bffffffffffffffffffffffffffffffffffffffffffffffffffffffff1681525050905092915050565b61150f6115ff565b73ffffffffffffffffffffffffffffffffffffffff1661152d610de4565b73ffffffffffffffffffffffffffffffffffffffff1614611583576040517f08c379a000000000000000000000000000000000000000000000000000000000815260040161157a906133d8565b60405180910390fd5b600073ffffffffffffffffffffffffffffffffffffffff168173ffffffffffffffffffffffffffffffffffffffff1614156115f3576040517f08c379a00000000000000000000000000000000000000000000000000000000081526004016115ea906139a4565b60405180910390fd5b6115fc81611e91565b50565b600033905090565b600073ffffffffffffffffffffffffffffffffffffffff168373ffffffffffffffffffffffffffffffffffffffff161415611677576040517f08c379a000000000000000000000000000000000000000000000000000000000815260040161166e90613a36565b60405180910390fd5b600073ffffffffffffffffffffffffffffffffffffffff168273ffffffffffffffffffffffffffffffffffffffff1614156116e7576040517f08c379a00000000000000000000000000000000000000000000000000000000081526004016116de90613ac8565b60405180910390fd5b80600160008573ffffffffffffffffffffffffffffffffffffffff1673ffffffffffffffffffffffffffffffffffffffff16815260200190815260200160002060008473ffffffffffffffffffffffffffffffffffffffff1673ffffffffffffffffffffffffffffffffffffffff168152602001908152602001600020819055508173ffffffffffffffffffffffffffffffffffffffff168373ffffffffffffffffffffffffffffffffffffffff167f8c5be1e5ebec7d5bd14f71427d1e84f3dd0314c0f7b2291e5b200ac8c7c3b925836040516117c59190612e8f565b60405180910390a3505050565b6117dc8282612063565b6117ea600861223a83612250565b50505050565b600073ffffffffffffffffffffffffffffffffffffffff168373ffffffffffffffffffffffffffffffffffffffff161415611860576040517f08c379a000000000000000000000000000000000000000000000000000000000815260040161185790613b5a565b60405180910390fd5b600073ffffffffffffffffffffffffffffffffffffffff168273ffffffffffffffffffffffffffffffffffffffff1614156118d0576040517f08c379a00000000000000000000000000000000000000000000000000000000081526004016118c790613bec565b60405180910390fd5b6118db8383836124c8565b60008060008573ffffffffffffffffffffffffffffffffffffffff1673ffffffffffffffffffffffffffffffffffffffff16815260200190815260200160002054905081811015611961576040517f08c379a000000000000000000000000000000000000000000000000000000000815260040161195890613c7e565b60405180910390fd5b8181036000808673ffffffffffffffffffffffffffffffffffffffff1673ffffffffffffffffffffffffffffffffffffffff16815260200190815260200160002081905550816000808573ffffffffffffffffffffffffffffffffffffffff1673ffffffffffffffffffffffffffffffffffffffff16815260200190815260200160002060008282546119f491906134b9565b925050819055508273ffffffffffffffffffffffffffffffffffffffff168473ffffffffffffffffffffffffffffffffffffffff167fddf252ad1be2c89b69c2b068fc378daa952ba7f163c4a11628f55a4df523b3ef84604051611a589190612e8f565b60405180910390a3611a6b8484846124cd565b50505050565b60007f000000000000000000000000000000000000000000000000000000000000000073ffffffffffffffffffffffffffffffffffffffff163073ffffffffffffffffffffffffffffffffffffffff16148015611aed57507f000000000000000000000000000000000000000000000000000000000000000046145b15611b1a577f00000000000000000000000000000000000000000000000000000000000000009050611b88565b611b857f00000000000000000000000000000000000000000000000000000000000000007f00000000000000000000000000000000000000000000000000000000000000007f00000000000000000000000000000000000000000000000000000000000000006124f8565b90505b90565b6000808380549050905060005b81811015611c0a576000611bac8284612532565b905084868281548110611bc257611bc161361b565b5b9060005260206000200160000160009054906101000a900463ffffffff1663ffffffff161115611bf457809250611c04565b600181611c0191906134b9565b91505b50611b98565b60008214611c6c5784600183611c2091906135e7565b81548110611c3157611c3061361b565b5b9060005260206000200160000160049054906101000a90047bffffffffffffffffffffffffffffffffffffffffffffffffffffffff16611c6f565b60005b7bffffffffffffffffffffffffffffffffffffffffffffffffffffffff169250505092915050565b611ca18282612558565b611ca96126b8565b7bffffffffffffffffffffffffffffffffffffffffffffffffffffffff16611ccf6107eb565b1115611d10576040517f08c379a0000000000000000000000000000000000000000000000000000000008152600401611d0790613d10565b60405180910390fd5b611d1e60086126ce83612250565b50505050565b6000611d2f83610b4d565b90506000611d3c84610c1e565b905082600660008673ffffffffffffffffffffffffffffffffffffffff1673ffffffffffffffffffffffffffffffffffffffff16815260200190815260200160002060006101000a81548173ffffffffffffffffffffffffffffffffffffffff021916908373ffffffffffffffffffffffffffffffffffffffff1602179055508273ffffffffffffffffffffffffffffffffffffffff168273ffffffffffffffffffffffffffffffffffffffff168573ffffffffffffffffffffffffffffffffffffffff167f3134e8a2e6d97e929a7e54011ea5485d7d196dd5f0ba4d4ef95803e8e3fc257f60405160405180910390a4611e388284836126e4565b50505050565b600063ffffffff8016821115611e89576040517f08c379a0000000000000000000000000000000000000000000000000000000008152600401611e8090613da2565b60405180910390fd5b819050919050565b6000600960009054906101000a900473ffffffffffffffffffffffffffffffffffffffff16905081600960006101000a81548173ffffffffffffffffffffffffffffffffffffffff021916908373ffffffffffffffffffffffffffffffffffffffff1602179055508173ffffffffffffffffffffffffffffffffffffffff168173ffffffffffffffffffffffffffffffffffffffff167f8be0079c531659141344cd1fd0a4f28419497f9722a3daafe3b4186f6b6457e060405160405180910390a35050565b60006bffffffffffffffffffffffff8016821115611faa576040517f08c379a0000000000000000000000000000000000000000000000000000000008152600401611fa190613e34565b60405180910390fd5b819050919050565b600081600001549050919050565b6000611fd3611fcd611a71565b836128dd565b9050919050565b6000806000611feb87878787612910565b91509150611ff881612a1d565b8192505050949350505050565b600080600560008473ffffffffffffffffffffffffffffffffffffffff1673ffffffffffffffffffffffffffffffffffffffff168152602001908152602001600020905061205281611fb2565b915061205d81612bf2565b50919050565b600073ffffffffffffffffffffffffffffffffffffffff168273ffffffffffffffffffffffffffffffffffffffff1614156120d3576040517f08c379a00000000000000000000000000000000000000000000000000000000081526004016120ca90613ec6565b60405180910390fd5b6120df826000836124c8565b60008060008473ffffffffffffffffffffffffffffffffffffffff1673ffffffffffffffffffffffffffffffffffffffff16815260200190815260200160002054905081811015612165576040517f08c379a000000000000000000000000000000000000000000000000000000000815260040161215c90613f58565b60405180910390fd5b8181036000808573ffffffffffffffffffffffffffffffffffffffff1673ffffffffffffffffffffffffffffffffffffffff1681526020019081526020016000208190555081600260008282546121bc91906135e7565b92505081905550600073ffffffffffffffffffffffffffffffffffffffff168373ffffffffffffffffffffffffffffffffffffffff167fddf252ad1be2c89b69c2b068fc378daa952ba7f163c4a11628f55a4df523b3ef846040516122219190612e8f565b60405180910390a3612235836000846124cd565b505050565b6000818361224891906135e7565b905092915050565b600080600085805490509050600081146122be578560018261227291906135e7565b815481106122835761228261361b565b5b9060005260206000200160000160049054906101000a90047bffffffffffffffffffffffffffffffffffffffffffffffffffffffff166122c1565b60005b7bffffffffffffffffffffffffffffffffffffffffffffffffffffffff1692506122ef83858763ffffffff16565b91506000811180156123425750438660018361230b91906135e7565b8154811061231c5761231b61361b565b5b9060005260206000200160000160009054906101000a900463ffffffff1663ffffffff16145b156123cf5761235082612c08565b8660018361235e91906135e7565b8154811061236f5761236e61361b565b5b9060005260206000200160000160046101000a8154817bffffffffffffffffffffffffffffffffffffffffffffffffffffffff02191690837bffffffffffffffffffffffffffffffffffffffffffffffffffffffff1602179055506124bf565b8560405180604001604052806123e443611e3e565b63ffffffff1681526020016123f885612c08565b7bffffffffffffffffffffffffffffffffffffffffffffffffffffffff168152509080600181540180825580915050600190039060005260206000200160009091909190915060008201518160000160006101000a81548163ffffffff021916908363ffffffff16021790555060208201518160000160046101000a8154817bffffffffffffffffffffffffffffffffffffffffffffffffffffffff02191690837bffffffffffffffffffffffffffffffffffffffffffffffffffffffff16021790555050505b50935093915050565b505050565b6124d8838383612c73565b6124f36124e484610b4d565b6124ed84610b4d565b836126e4565b505050565b60008383834630604051602001612513959493929190613f78565b6040516020818303038152906040528051906020012090509392505050565b600060028284186125439190613ffa565b82841661255091906134b9565b905092915050565b600073ffffffffffffffffffffffffffffffffffffffff168273ffffffffffffffffffffffffffffffffffffffff1614156125c8576040517f08c379a00000000000000000000000000000000000000000000000000000000081526004016125bf90614077565b60405180910390fd5b6125d4600083836124c8565b80600260008282546125e691906134b9565b92505081905550806000808473ffffffffffffffffffffffffffffffffffffffff1673ffffffffffffffffffffffffffffffffffffffff168152602001908152602001600020600082825461263b91906134b9565b925050819055508173ffffffffffffffffffffffffffffffffffffffff16600073ffffffffffffffffffffffffffffffffffffffff167fddf252ad1be2c89b69c2b068fc378daa952ba7f163c4a11628f55a4df523b3ef836040516126a09190612e8f565b60405180910390a36126b4600083836124cd565b5050565b60006bffffffffffffffffffffffff8016905090565b600081836126dc91906134b9565b905092915050565b8173ffffffffffffffffffffffffffffffffffffffff168373ffffffffffffffffffffffffffffffffffffffff16141580156127205750600081115b156128d857600073ffffffffffffffffffffffffffffffffffffffff168373ffffffffffffffffffffffffffffffffffffffff16146127fe576000806127a7600760008773ffffffffffffffffffffffffffffffffffffffff1673ffffffffffffffffffffffffffffffffffffffff16815260200190815260200160002061223a85612250565b915091508473ffffffffffffffffffffffffffffffffffffffff167fdec2bacdd2f05b59de34da9b523dff8be42e5e38e818c82fdb0bae774387a72483836040516127f3929190614097565b60405180910390a250505b600073ffffffffffffffffffffffffffffffffffffffff168273ffffffffffffffffffffffffffffffffffffffff16146128d757600080612880600760008673ffffffffffffffffffffffffffffffffffffffff1673ffffffffffffffffffffffffffffffffffffffff1681526020019081526020016000206126ce85612250565b915091508373ffffffffffffffffffffffffffffffffffffffff167fdec2bacdd2f05b59de34da9b523dff8be42e5e38e818c82fdb0bae774387a72483836040516128cc929190614097565b60405180910390a250505b5b505050565b600082826040516020016128f2929190614138565b60405160208183030381529060405280519060200120905092915050565b6000807f7fffffffffffffffffffffffffffffff5d576e7357a4501ddfe92f46681b20a08360001c111561294b576000600391509150612a14565b601b8560ff16141580156129635750601c8560ff1614155b15612975576000600491509150612a14565b60006001878787876040516000815260200160405260405161299a949392919061416f565b6020604051602081039080840390855afa1580156129bc573d6000803e3d6000fd5b505050602060405103519050600073ffffffffffffffffffffffffffffffffffffffff168173ffffffffffffffffffffffffffffffffffffffff161415612a0b57600060019250925050612a14565b80600092509250505b94509492505050565b60006004811115612a3157612a306141b4565b5b816004811115612a4457612a436141b4565b5b1415612a4f57612bef565b60016004811115612a6357612a626141b4565b5b816004811115612a7657612a756141b4565b5b1415612ab7576040517f08c379a0000000000000000000000000000000000000000000000000000000008152600401612aae9061422f565b60405180910390fd5b60026004811115612acb57612aca6141b4565b5b816004811115612ade57612add6141b4565b5b1415612b1f576040517f08c379a0000000000000000000000000000000000000000000000000000000008152600401612b169061429b565b60405180910390fd5b60036004811115612b3357612b326141b4565b5b816004811115612b4657612b456141b4565b5b1415612b87576040517f08c379a0000000000000000000000000000000000000000000000000000000008152600401612b7e9061432d565b60405180910390fd5b600480811115612b9a57612b996141b4565b5b816004811115612bad57612bac6141b4565b5b1415612bee576040517f08c379a0000000000000000000000000000000000000000000000000000000008152600401612be5906143bf565b60405180910390fd5b5b50565b6001816000016000828254019250508190555050565b60007bffffffffffffffffffffffffffffffffffffffffffffffffffffffff8016821115612c6b576040517f08c379a0000000000000000000000000000000000000000000000000000000008152600401612c6290614451565b60405180910390fd5b819050919050565b505050565b6040518060400160405280600063ffffffff16815260200160007bffffffffffffffffffffffffffffffffffffffffffffffffffffffff1681525090565b600081519050919050565b600082825260208201905092915050565b60005b83811015612cf0578082015181840152602081019050612cd5565b83811115612cff576000848401525b50505050565b6000601f19601f8301169050919050565b6000612d2182612cb6565b612d2b8185612cc1565b9350612d3b818560208601612cd2565b612d4481612d05565b840191505092915050565b60006020820190508181036000830152612d698184612d16565b905092915050565b600080fd5b600073ffffffffffffffffffffffffffffffffffffffff82169050919050565b6000612da182612d76565b9050919050565b612db181612d96565b8114612dbc57600080fd5b50565b600081359050612dce81612da8565b92915050565b6000819050919050565b612de781612dd4565b8114612df257600080fd5b50565b600081359050612e0481612dde565b92915050565b60008060408385031215612e2157612e20612d71565b5b6000612e2f85828601612dbf565b9250506020612e4085828601612df5565b9150509250929050565b60008115159050919050565b612e5f81612e4a565b82525050565b6000602082019050612e7a6000830184612e56565b92915050565b612e8981612dd4565b82525050565b6000602082019050612ea46000830184612e80565b92915050565b600060208284031215612ec057612ebf612d71565b5b6000612ece84828501612dbf565b91505092915050565b600080600060608486031215612ef057612eef612d71565b5b6000612efe86828701612dbf565b9350506020612f0f86828701612dbf565b9250506040612f2086828701612df5565b9150509250925092565b600060ff82169050919050565b612f4081612f2a565b82525050565b6000602082019050612f5b6000830184612f37565b92915050565b6000819050919050565b612f7481612f61565b82525050565b6000602082019050612f8f6000830184612f6b565b92915050565b612f9e81612d96565b82525050565b6000602082019050612fb96000830184612f95565b92915050565b600063ffffffff82169050919050565b612fd881612fbf565b82525050565b6000602082019050612ff36000830184612fcf565b92915050565b60006bffffffffffffffffffffffff82169050919050565b61301a81612ff9565b82525050565b60006020820190506130356000830184613011565b92915050565b60006020828403121561305157613050612d71565b5b600061305f84828501612df5565b91505092915050565b61307181612f2a565b811461307c57600080fd5b50565b60008135905061308e81613068565b92915050565b61309d81612f61565b81146130a857600080fd5b50565b6000813590506130ba81613094565b92915050565b60008060008060008060c087890312156130dd576130dc612d71565b5b60006130eb89828a01612dbf565b96505060206130fc89828a01612df5565b955050604061310d89828a01612df5565b945050606061311e89828a0161307f565b935050608061312f89828a016130ab565b92505060a061314089828a016130ab565b9150509295509295509295565b600080600080600080600060e0888a03121561316c5761316b612d71565b5b600061317a8a828b01612dbf565b975050602061318b8a828b01612dbf565b965050604061319c8a828b01612df5565b95505060606131ad8a828b01612df5565b94505060806131be8a828b0161307f565b93505060a06131cf8a828b016130ab565b92505060c06131e08a828b016130ab565b91505092959891949750929550565b6000806040838503121561320657613205612d71565b5b600061321485828601612dbf565b925050602061322585828601612dbf565b9150509250929050565b61323881612fbf565b811461324357600080fd5b50565b6000813590506132558161322f565b92915050565b6000806040838503121561327257613271612d71565b5b600061328085828601612dbf565b925050602061329185828601613246565b9150509250929050565b6132a481612fbf565b82525050565b60007bffffffffffffffffffffffffffffffffffffffffffffffffffffffff82169050919050565b6132db816132aa565b82525050565b6040820160008201516132f7600085018261329b565b50602082015161330a60208501826132d2565b50505050565b600060408201905061332560008301846132e1565b92915050565b7f4e487b7100000000000000000000000000000000000000000000000000000000600052602260045260246000fd5b6000600282049050600182168061337257607f821691505b602082108114156133865761338561332b565b5b50919050565b7f4f776e61626c653a2063616c6c6572206973206e6f7420746865206f776e6572600082015250565b60006133c2602083612cc1565b91506133cd8261338c565b602082019050919050565b600060208201905081810360008301526133f1816133b5565b9050919050565b7f45524332303a207472616e7366657220616d6f756e742065786365656473206160008201527f6c6c6f77616e6365000000000000000000000000000000000000000000000000602082015250565b6000613454602883612cc1565b915061345f826133f8565b604082019050919050565b6000602082019050818103600083015261348381613447565b9050919050565b7f4e487b7100000000000000000000000000000000000000000000000000000000600052601160045260246000fd5b60006134c482612dd4565b91506134cf83612dd4565b9250827fffffffffffffffffffffffffffffffffffffffffffffffffffffffffffffffff038211156135045761350361348a565b5b828201905092915050565b7f4552433230566f7465733a20626c6f636b206e6f7420796574206d696e656400600082015250565b6000613545601f83612cc1565b91506135508261350f565b602082019050919050565b6000602082019050818103600083015261357481613538565b9050919050565b7f696e76616c696420616464726573732e00000000000000000000000000000000600082015250565b60006135b1601083612cc1565b91506135bc8261357b565b602082019050919050565b600060208201905081810360008301526135e0816135a4565b9050919050565b60006135f282612dd4565b91506135fd83612dd4565b9250828210156136105761360f61348a565b5b828203905092915050565b7f4e487b7100000000000000000000000000000000000000000000000000000000600052603260045260246000fd5b7f45524332303a2064656372656173656420616c6c6f77616e63652062656c6f7760008201527f207a65726f000000000000000000000000000000000000000000000000000000602082015250565b60006136a6602583612cc1565b91506136b18261364a565b604082019050919050565b600060208201905081810360008301526136d581613699565b9050919050565b7f4552433230566f7465733a207369676e61747572652065787069726564000000600082015250565b6000613712601d83612cc1565b915061371d826136dc565b602082019050919050565b6000602082019050818103600083015261374181613705565b9050919050565b600060808201905061375d6000830187612f6b565b61376a6020830186612f95565b6137776040830185612e80565b6137846060830184612e80565b95945050505050565b7f4552433230566f7465733a20696e76616c6964206e6f6e636500000000000000600082015250565b60006137c3601983612cc1565b91506137ce8261378d565b602082019050919050565b600060208201905081810360008301526137f2816137b6565b9050919050565b7f45524332305065726d69743a206578706972656420646561646c696e65000000600082015250565b600061382f601d83612cc1565b915061383a826137f9565b602082019050919050565b6000602082019050818103600083015261385e81613822565b9050919050565b600060c08201905061387a6000830189612f6b565b6138876020830188612f95565b6138946040830187612f95565b6138a16060830186612e80565b6138ae6080830185612e80565b6138bb60a0830184612e80565b979650505050505050565b7f45524332305065726d69743a20696e76616c6964207369676e61747572650000600082015250565b60006138fc601e83612cc1565b9150613907826138c6565b602082019050919050565b6000602082019050818103600083015261392b816138ef565b9050919050565b7f4f776e61626c653a206e6577206f776e657220697320746865207a65726f206160008201527f6464726573730000000000000000000000000000000000000000000000000000602082015250565b600061398e602683612cc1565b915061399982613932565b604082019050919050565b600060208201905081810360008301526139bd81613981565b9050919050565b7f45524332303a20617070726f76652066726f6d20746865207a65726f2061646460008201527f7265737300000000000000000000000000000000000000000000000000000000602082015250565b6000613a20602483612cc1565b9150613a2b826139c4565b604082019050919050565b60006020820190508181036000830152613a4f81613a13565b9050919050565b7f45524332303a20617070726f766520746f20746865207a65726f20616464726560008201527f7373000000000000000000000000000000000000000000000000000000000000602082015250565b6000613ab2602283612cc1565b9150613abd82613a56565b604082019050919050565b60006020820190508181036000830152613ae181613aa5565b9050919050565b7f45524332303a207472616e736665722066726f6d20746865207a65726f20616460008201527f6472657373000000000000000000000000000000000000000000000000000000602082015250565b6000613b44602583612cc1565b9150613b4f82613ae8565b604082019050919050565b60006020820190508181036000830152613b7381613b37565b9050919050565b7f45524332303a207472616e7366657220746f20746865207a65726f206164647260008201527f6573730000000000000000000000000000000000000000000000000000000000602082015250565b6000613bd6602383612cc1565b9150613be182613b7a565b604082019050919050565b60006020820190508181036000830152613c0581613bc9565b9050919050565b7f45524332303a207472616e7366657220616d6f756e742065786365656473206260008201527f616c616e63650000000000000000000000000000000000000000000000000000602082015250565b6000613c68602683612cc1565b9150613c7382613c0c565b604082019050919050565b60006020820190508181036000830152613c9781613c5b565b9050919050565b7f4552433230566f7465733a20746f74616c20737570706c79207269736b73206f60008201527f766572666c6f77696e6720766f74657300000000000000000000000000000000602082015250565b6000613cfa603083612cc1565b9150613d0582613c9e565b604082019050919050565b60006020820190508181036000830152613d2981613ced565b9050919050565b7f53616665436173743a2076616c756520646f65736e27742066697420696e203360008201527f3220626974730000000000000000000000000000000000000000000000000000602082015250565b6000613d8c602683612cc1565b9150613d9782613d30565b604082019050919050565b60006020820190508181036000830152613dbb81613d7f565b9050919050565b7f53616665436173743a2076616c756520646f65736e27742066697420696e203960008201527f3620626974730000000000000000000000000000000000000000000000000000602082015250565b6000613e1e602683612cc1565b9150613e2982613dc2565b604082019050919050565b60006020820190508181036000830152613e4d81613e11565b9050919050565b7f45524332303a206275726e2066726f6d20746865207a65726f2061646472657360008201527f7300000000000000000000000000000000000000000000000000000000000000602082015250565b6000613eb0602183612cc1565b9150613ebb82613e54565b604082019050919050565b60006020820190508181036000830152613edf81613ea3565b9050919050565b7f45524332303a206275726e20616d6f756e7420657863656564732062616c616e60008201527f6365000000000000000000000000000000000000000000000000000000000000602082015250565b6000613f42602283612cc1565b9150613f4d82613ee6565b604082019050919050565b60006020820190508181036000830152613f7181613f35565b9050919050565b600060a082019050613f8d6000830188612f6b565b613f9a6020830187612f6b565b613fa76040830186612f6b565b613fb46060830185612e80565b613fc16080830184612f95565b9695505050505050565b7f4e487b7100000000000000000000000000000000000000000000000000000000600052601260045260246000fd5b600061400582612dd4565b915061401083612dd4565b9250826140205761401f613fcb565b5b828204905092915050565b7f45524332303a206d696e7420746f20746865207a65726f206164647265737300600082015250565b6000614061601f83612cc1565b915061406c8261402b565b602082019050919050565b6000602082019050818103600083015261409081614054565b9050919050565b60006040820190506140ac6000830185612e80565b6140b96020830184612e80565b9392505050565b600081905092915050565b7f1901000000000000000000000000000000000000000000000000000000000000600082015250565b60006141016002836140c0565b915061410c826140cb565b600282019050919050565b6000819050919050565b61413261412d82612f61565b614117565b82525050565b6000614143826140f4565b915061414f8285614121565b60208201915061415f8284614121565b6020820191508190509392505050565b60006080820190506141846000830187612f6b565b6141916020830186612f37565b61419e6040830185612f6b565b6141ab6060830184612f6b565b95945050505050565b7f4e487b7100000000000000000000000000000000000000000000000000000000600052602160045260246000fd5b7f45434453413a20696e76616c6964207369676e61747572650000000000000000600082015250565b6000614219601883612cc1565b9150614224826141e3565b602082019050919050565b600060208201905081810360008301526142488161420c565b9050919050565b7f45434453413a20696e76616c6964207369676e6174757265206c656e67746800600082015250565b6000614285601f83612cc1565b91506142908261424f565b602082019050919050565b600060208201905081810360008301526142b481614278565b9050919050565b7f45434453413a20696e76616c6964207369676e6174757265202773272076616c60008201527f7565000000000000000000000000000000000000000000000000000000000000602082015250565b6000614317602283612cc1565b9150614322826142bb565b604082019050919050565b600060208201905081810360008301526143468161430a565b9050919050565b7f45434453413a20696e76616c6964207369676e6174757265202776272076616c60008201527f7565000000000000000000000000000000000000000000000000000000000000602082015250565b60006143a9602283612cc1565b91506143b48261434d565b604082019050919050565b600060208201905081810360008301526143d88161439c565b9050919050565b7f53616665436173743a2076616c756520646f65736e27742066697420696e203260008201527f3234206269747300000000000000000000000000000000000000000000000000602082015250565b600061443b602783612cc1565b9150614446826143df565b604082019050919050565b6000602082019050818103600083015261446a8161442e565b905091905056fea2646970667358221220f4d12b245974b2f9222e6c31d846bb70664ef2288fe5a8d30a1cbd9ea4360ff564736f6c634300080a0033",
  "immutableReferences": {
    "1483": [
      {
        "length": 32,
        "start": 4725
      }
    ],
    "3644": [
      {
        "length": 32,
        "start": 6900
      }
    ],
    "3646": [
      {
        "length": 32,
        "start": 6859
      }
    ],
    "3648": [
      {
        "length": 32,
        "start": 6773
      }
    ],
    "3650": [
      {
        "length": 32,
        "start": 6976
      }
    ],
    "3652": [
      {
        "length": 32,
        "start": 7009
      }
    ],
    "3654": [
      {
        "length": 32,
        "start": 6943
      }
    ]
  },
  "source": "// SPDX-License-Identifier: MIT\n\npragma solidity ^0.8.0;\n\nimport \"@openzeppelin/contracts/token/ERC20/extensions/ERC20VotesComp.sol\";\nimport \"@openzeppelin/contracts/access/Ownable.sol\";\n\ncontract AtivVotes is ERC20VotesComp, Ownable {\n    constructor() ERC20(\"ATIV Votes\", \"ATIV\") ERC20Permit(\"ATIV Votes\") {}\n    \n    /// @dev MasterChef address.\n    address public masterChef;\n\n    function init(address masterChef_) public {\n        masterChef = masterChef_;\n    }\n\n    function mint(address account, uint256 amount) public {\n        require(msg.sender == masterChef, \"invalid address.\");\n\n        _mint(account, amount);\n    }\n\n    function migrateFrom(address account, uint256 amount) public onlyOwner {        \n        _mint(account, amount);\n    }\n\n    function migrateTo(address account, uint256 amount) public onlyOwner {        \n        _burn(account, amount);\n    }\n}\n",
  "sourcePath": "/Users/lukepark/Desktop//dev/ativ-EVM/contracts/AtivVotes.sol",
  "compiler": {
    "name": "solc",
    "version": "0.8.10+commit.fc410830.Emscripten.clang"
  },
  "schemaVersion": "3.4.3",
  "updatedAt": "2021-12-17T17:53:57.344Z",
  "devdoc": {
    "kind": "dev",
    "methods": {
      "DOMAIN_SEPARATOR()": {
        "details": "See {IERC20Permit-DOMAIN_SEPARATOR}."
      },
      "allowance(address,address)": {
        "details": "See {IERC20-allowance}."
      },
      "approve(address,uint256)": {
        "details": "See {IERC20-approve}. Requirements: - `spender` cannot be the zero address."
      },
      "balanceOf(address)": {
        "details": "See {IERC20-balanceOf}."
      },
      "checkpoints(address,uint32)": {
        "details": "Get the `pos`-th checkpoint for `account`."
      },
      "decimals()": {
        "details": "Returns the number of decimals used to get its user representation. For example, if `decimals` equals `2`, a balance of `505` tokens should be displayed to a user as `5.05` (`505 / 10 ** 2`). Tokens usually opt for a value of 18, imitating the relationship between Ether and Wei. This is the value {ERC20} uses, unless this function is overridden; NOTE: This information is only used for _display_ purposes: it in no way affects any of the arithmetic of the contract, including {IERC20-balanceOf} and {IERC20-transfer}."
      },
      "decreaseAllowance(address,uint256)": {
        "details": "Atomically decreases the allowance granted to `spender` by the caller. This is an alternative to {approve} that can be used as a mitigation for problems described in {IERC20-approve}. Emits an {Approval} event indicating the updated allowance. Requirements: - `spender` cannot be the zero address. - `spender` must have allowance for the caller of at least `subtractedValue`."
      },
      "delegate(address)": {
        "details": "Delegate votes from the sender to `delegatee`."
      },
      "delegateBySig(address,uint256,uint256,uint8,bytes32,bytes32)": {
        "details": "Delegates votes from signer to `delegatee`"
      },
      "delegates(address)": {
        "details": "Get the address `account` is currently delegating to."
      },
      "getCurrentVotes(address)": {
        "details": "Comp version of the {getVotes} accessor, with `uint96` return type."
      },
      "getPastTotalSupply(uint256)": {
        "details": "Retrieve the `totalSupply` at the end of `blockNumber`. Note, this value is the sum of all balances. It is but NOT the sum of all the delegated votes! Requirements: - `blockNumber` must have been already mined"
      },
      "getPastVotes(address,uint256)": {
        "details": "Retrieve the number of votes for `account` at the end of `blockNumber`. Requirements: - `blockNumber` must have been already mined"
      },
      "getPriorVotes(address,uint256)": {
        "details": "Comp version of the {getPastVotes} accessor, with `uint96` return type."
      },
      "getVotes(address)": {
        "details": "Gets the current votes balance for `account`"
      },
      "increaseAllowance(address,uint256)": {
        "details": "Atomically increases the allowance granted to `spender` by the caller. This is an alternative to {approve} that can be used as a mitigation for problems described in {IERC20-approve}. Emits an {Approval} event indicating the updated allowance. Requirements: - `spender` cannot be the zero address."
      },
      "name()": {
        "details": "Returns the name of the token."
      },
      "nonces(address)": {
        "details": "See {IERC20Permit-nonces}."
      },
      "numCheckpoints(address)": {
        "details": "Get number of checkpoints for `account`."
      },
      "owner()": {
        "details": "Returns the address of the current owner."
      },
      "permit(address,address,uint256,uint256,uint8,bytes32,bytes32)": {
        "details": "See {IERC20Permit-permit}."
      },
      "renounceOwnership()": {
        "details": "Leaves the contract without owner. It will not be possible to call `onlyOwner` functions anymore. Can only be called by the current owner. NOTE: Renouncing ownership will leave the contract without an owner, thereby removing any functionality that is only available to the owner."
      },
      "symbol()": {
        "details": "Returns the symbol of the token, usually a shorter version of the name."
      },
      "totalSupply()": {
        "details": "See {IERC20-totalSupply}."
      },
      "transfer(address,uint256)": {
        "details": "See {IERC20-transfer}. Requirements: - `recipient` cannot be the zero address. - the caller must have a balance of at least `amount`."
      },
      "transferFrom(address,address,uint256)": {
        "details": "See {IERC20-transferFrom}. Emits an {Approval} event indicating the updated allowance. This is not required by the EIP. See the note at the beginning of {ERC20}. Requirements: - `sender` and `recipient` cannot be the zero address. - `sender` must have a balance of at least `amount`. - the caller must have allowance for ``sender``'s tokens of at least `amount`."
      },
      "transferOwnership(address)": {
        "details": "Transfers ownership of the contract to a new account (`newOwner`). Can only be called by the current owner."
      }
    },
    "stateVariables": {
      "masterChef": {
        "details": "MasterChef address."
      }
    },
    "version": 1
  },
  "userdoc": {
    "kind": "user",
    "methods": {},
    "version": 1
  }
}