{
  "contractName": "IPNFT",
  "abi": [
    {
      "anonymous": false,
      "inputs": [
        {
          "indexed": true,
          "internalType": "address",
          "name": "owner",
          "type": "address"
        },
        {
          "indexed": true,
          "internalType": "address",
          "name": "approved",
          "type": "address"
        },
        {
          "indexed": true,
          "internalType": "uint256",
          "name": "tokenId",
          "type": "uint256"
        }
      ],
      "name": "Approval",
      "type": "event"
    },
    {
      "anonymous": false,
      "inputs": [
        {
          "indexed": true,
          "internalType": "address",
          "name": "owner",
          "type": "address"
        },
        {
          "indexed": true,
          "internalType": "address",
          "name": "operator",
          "type": "address"
        },
        {
          "indexed": false,
          "internalType": "bool",
          "name": "approved",
          "type": "bool"
        }
      ],
      "name": "ApprovalForAll",
      "type": "event"
    },
    {
      "anonymous": false,
      "inputs": [
        {
          "indexed": true,
          "internalType": "address",
          "name": "previousOwner",
          "type": "address"
        },
        {
          "indexed": true,
          "internalType": "address",
          "name": "newOwner",
          "type": "address"
        }
      ],
      "name": "OwnershipTransferred",
      "type": "event"
    },
    {
      "anonymous": false,
      "inputs": [
        {
          "indexed": true,
          "internalType": "address",
          "name": "from",
          "type": "address"
        },
        {
          "indexed": true,
          "internalType": "address",
          "name": "to",
          "type": "address"
        },
        {
          "indexed": true,
          "internalType": "uint256",
          "name": "tokenId",
          "type": "uint256"
        }
      ],
      "name": "Transfer",
      "type": "event"
    },
    {
      "inputs": [
        {
          "internalType": "address",
          "name": "to",
          "type": "address"
        },
        {
          "internalType": "uint256",
          "name": "tokenId",
          "type": "uint256"
        }
      ],
      "name": "approve",
      "outputs": [],
      "stateMutability": "nonpayable",
      "type": "function"
    },
    {
      "inputs": [
        {
          "internalType": "address",
          "name": "owner",
          "type": "address"
        }
      ],
      "name": "balanceOf",
      "outputs": [
        {
          "internalType": "uint256",
          "name": "",
          "type": "uint256"
        }
      ],
      "stateMutability": "view",
      "type": "function"
    },
    {
      "inputs": [],
      "name": "epoch",
      "outputs": [
        {
          "internalType": "uint256",
          "name": "",
          "type": "uint256"
        }
      ],
      "stateMutability": "view",
      "type": "function"
    },
    {
      "inputs": [
        {
          "internalType": "uint256",
          "name": "tokenId",
          "type": "uint256"
        }
      ],
      "name": "getApproved",
      "outputs": [
        {
          "internalType": "address",
          "name": "",
          "type": "address"
        }
      ],
      "stateMutability": "view",
      "type": "function"
    },
    {
      "inputs": [
        {
          "internalType": "address",
          "name": "owner",
          "type": "address"
        },
        {
          "internalType": "address",
          "name": "operator",
          "type": "address"
        }
      ],
      "name": "isApprovedForAll",
      "outputs": [
        {
          "internalType": "bool",
          "name": "",
          "type": "bool"
        }
      ],
      "stateMutability": "view",
      "type": "function"
    },
    {
      "inputs": [],
      "name": "masterChef",
      "outputs": [
        {
          "internalType": "address",
          "name": "",
          "type": "address"
        }
      ],
      "stateMutability": "view",
      "type": "function"
    },
    {
      "inputs": [],
      "name": "name",
      "outputs": [
        {
          "internalType": "string",
          "name": "",
          "type": "string"
        }
      ],
      "stateMutability": "view",
      "type": "function"
    },
    {
      "inputs": [],
      "name": "owner",
      "outputs": [
        {
          "internalType": "address",
          "name": "",
          "type": "address"
        }
      ],
      "stateMutability": "view",
      "type": "function"
    },
    {
      "inputs": [
        {
          "internalType": "uint256",
          "name": "tokenId",
          "type": "uint256"
        }
      ],
      "name": "ownerOf",
      "outputs": [
        {
          "internalType": "address",
          "name": "",
          "type": "address"
        }
      ],
      "stateMutability": "view",
      "type": "function"
    },
    {
      "inputs": [],
      "name": "renounceOwnership",
      "outputs": [],
      "stateMutability": "nonpayable",
      "type": "function"
    },
    {
      "inputs": [
        {
          "internalType": "address",
          "name": "from",
          "type": "address"
        },
        {
          "internalType": "address",
          "name": "to",
          "type": "address"
        },
        {
          "internalType": "uint256",
          "name": "tokenId",
          "type": "uint256"
        }
      ],
      "name": "safeTransferFrom",
      "outputs": [],
      "stateMutability": "nonpayable",
      "type": "function"
    },
    {
      "inputs": [
        {
          "internalType": "address",
          "name": "from",
          "type": "address"
        },
        {
          "internalType": "address",
          "name": "to",
          "type": "address"
        },
        {
          "internalType": "uint256",
          "name": "tokenId",
          "type": "uint256"
        },
        {
          "internalType": "bytes",
          "name": "_data",
          "type": "bytes"
        }
      ],
      "name": "safeTransferFrom",
      "outputs": [],
      "stateMutability": "nonpayable",
      "type": "function"
    },
    {
      "inputs": [
        {
          "internalType": "address",
          "name": "operator",
          "type": "address"
        },
        {
          "internalType": "bool",
          "name": "approved",
          "type": "bool"
        }
      ],
      "name": "setApprovalForAll",
      "outputs": [],
      "stateMutability": "nonpayable",
      "type": "function"
    },
    {
      "inputs": [
        {
          "internalType": "bytes4",
          "name": "interfaceId",
          "type": "bytes4"
        }
      ],
      "name": "supportsInterface",
      "outputs": [
        {
          "internalType": "bool",
          "name": "",
          "type": "bool"
        }
      ],
      "stateMutability": "view",
      "type": "function"
    },
    {
      "inputs": [],
      "name": "symbol",
      "outputs": [
        {
          "internalType": "string",
          "name": "",
          "type": "string"
        }
      ],
      "stateMutability": "view",
      "type": "function"
    },
    {
      "inputs": [
        {
          "internalType": "uint256",
          "name": "tokenId",
          "type": "uint256"
        }
      ],
      "name": "tokenURI",
      "outputs": [
        {
          "internalType": "string",
          "name": "",
          "type": "string"
        }
      ],
      "stateMutability": "view",
      "type": "function"
    },
    {
      "inputs": [
        {
          "internalType": "address",
          "name": "from",
          "type": "address"
        },
        {
          "internalType": "address",
          "name": "to",
          "type": "address"
        },
        {
          "internalType": "uint256",
          "name": "tokenId",
          "type": "uint256"
        }
      ],
      "name": "transferFrom",
      "outputs": [],
      "stateMutability": "nonpayable",
      "type": "function"
    },
    {
      "inputs": [
        {
          "internalType": "address",
          "name": "newOwner",
          "type": "address"
        }
      ],
      "name": "transferOwnership",
      "outputs": [],
      "stateMutability": "nonpayable",
      "type": "function"
    },
    {
      "inputs": [
        {
          "internalType": "address",
          "name": "masterChef_",
          "type": "address"
        }
      ],
      "name": "init",
      "outputs": [],
      "stateMutability": "nonpayable",
      "type": "function"
    },
    {
      "inputs": [
        {
          "internalType": "uint256",
          "name": "tokenId",
          "type": "uint256"
        }
      ],
      "name": "meta",
      "outputs": [
        {
          "internalType": "uint256",
          "name": "",
          "type": "uint256"
        },
        {
          "internalType": "uint256",
          "name": "",
          "type": "uint256"
        },
        {
          "internalType": "uint256",
          "name": "",
          "type": "uint256"
        }
      ],
      "stateMutability": "view",
      "type": "function"
    },
    {
      "inputs": [
        {
          "internalType": "uint256",
          "name": "tokenId",
          "type": "uint256"
        }
      ],
      "name": "musicId",
      "outputs": [
        {
          "internalType": "uint256",
          "name": "",
          "type": "uint256"
        }
      ],
      "stateMutability": "view",
      "type": "function"
    },
    {
      "inputs": [
        {
          "internalType": "uint256",
          "name": "tokenId",
          "type": "uint256"
        }
      ],
      "name": "gain",
      "outputs": [
        {
          "internalType": "uint256",
          "name": "",
          "type": "uint256"
        }
      ],
      "stateMutability": "view",
      "type": "function"
    },
    {
      "inputs": [
        {
          "internalType": "uint256",
          "name": "tokenId",
          "type": "uint256"
        },
        {
          "internalType": "uint256",
          "name": "gain_",
          "type": "uint256"
        }
      ],
      "name": "setGain",
      "outputs": [],
      "stateMutability": "nonpayable",
      "type": "function"
    },
    {
      "inputs": [
        {
          "internalType": "address",
          "name": "to",
          "type": "address"
        },
        {
          "internalType": "uint256",
          "name": "tokenId",
          "type": "uint256"
        },
        {
          "internalType": "uint256",
          "name": "musicId_",
          "type": "uint256"
        },
        {
          "internalType": "uint256",
          "name": "gain_",
          "type": "uint256"
        }
      ],
      "name": "mint",
      "outputs": [],
      "stateMutability": "nonpayable",
      "type": "function"
    },
    {
      "inputs": [
        {
          "internalType": "address",
          "name": "to",
          "type": "address"
        },
        {
          "internalType": "uint256",
          "name": "tokenId",
          "type": "uint256"
        },
        {
          "internalType": "uint256",
          "name": "musicId_",
          "type": "uint256"
        },
        {
          "internalType": "uint256",
          "name": "gain_",
          "type": "uint256"
        }
      ],
      "name": "migrateFrom",
      "outputs": [],
      "stateMutability": "nonpayable",
      "type": "function"
    },
    {
      "inputs": [
        {
          "internalType": "address",
          "name": "from",
          "type": "address"
        },
        {
          "internalType": "uint256",
          "name": "tokenId",
          "type": "uint256"
        }
      ],
      "name": "migrateTo",
      "outputs": [],
      "stateMutability": "nonpayable",
      "type": "function"
    },
    {
      "inputs": [
        {
          "internalType": "uint256",
          "name": "tokenId",
          "type": "uint256"
        }
      ],
      "name": "updateNftEpoch",
      "outputs": [],
      "stateMutability": "nonpayable",
      "type": "function"
    },
    {
      "inputs": [
        {
          "internalType": "uint256",
          "name": "epoch_",
          "type": "uint256"
        }
      ],
      "name": "setEpoch",
      "outputs": [],
      "stateMutability": "nonpayable",
      "type": "function"
    }
  ],
  "bytecode": "0x608060405261dead600960006101000a81548173ffffffffffffffffffffffffffffffffffffffff021916908373ffffffffffffffffffffffffffffffffffffffff1602179055503480156200005457600080fd5b506040518060400160405280600681526020017f4950204e465400000000000000000000000000000000000000000000000000008152506040518060400160405280600581526020017f49504e46540000000000000000000000000000000000000000000000000000008152508160009080519060200190620000d9929190620001e9565b508060019080519060200190620000f2929190620001e9565b50505062000115620001096200011b60201b60201c565b6200012360201b60201c565b620002fe565b600033905090565b6000600660009054906101000a900473ffffffffffffffffffffffffffffffffffffffff16905081600660006101000a81548173ffffffffffffffffffffffffffffffffffffffff021916908373ffffffffffffffffffffffffffffffffffffffff1602179055508173ffffffffffffffffffffffffffffffffffffffff168173ffffffffffffffffffffffffffffffffffffffff167f8be0079c531659141344cd1fd0a4f28419497f9722a3daafe3b4186f6b6457e060405160405180910390a35050565b828054620001f790620002c8565b90600052602060002090601f0160209004810192826200021b576000855562000267565b82601f106200023657805160ff191683800117855562000267565b8280016001018555821562000267579182015b828111156200026657825182559160200191906001019062000249565b5b5090506200027691906200027a565b5090565b5b80821115620002955760008160009055506001016200027b565b5090565b7f4e487b7100000000000000000000000000000000000000000000000000000000600052602260045260246000fd5b60006002820490506001821680620002e157607f821691505b60208210811415620002f857620002f762000299565b5b50919050565b61339b806200030e6000396000f3fe608060405234801561001057600080fd5b50600436106101c45760003560e01c806370a08231116100f9578063a647e8ec11610097578063cd5cfdaf11610071578063cd5cfdaf146104ed578063e4cae3de1461051f578063e985e9c51461053b578063f2fde38b1461056b576101c4565b8063a647e8ec14610485578063b88d4fde146104a1578063c87b56dd146104bd576101c4565b80638da5cb5b116100d35780638da5cb5b1461040f578063900cf0cf1461042d57806395d89b411461044b578063a22cb46514610469576101c4565b806370a08231146103b9578063715018a6146103e9578063871d0e95146103f3576101c4565b80631702942211610166578063421411db11610140578063421411db1461031f57806342842e0e1461034f578063575a86b21461036b5780636352211e14610389576101c4565b806317029422146102cb57806319ab453c146102e757806323b872dd14610303576101c4565b8063081812fc116101a2578063081812fc14610247578063095ea7b3146102775780630ceb2cef146102935780630d213d31146102af576101c4565b806301ffc9a7146101c9578063022e6df6146101f957806306fdde0314610229575b600080fd5b6101e360048036038101906101de91906120d6565b610587565b6040516101f0919061211e565b60405180910390f35b610213600480360381019061020e919061216f565b610669565b60405161022091906121ab565b60405180910390f35b610231610689565b60405161023e919061225f565b60405180910390f35b610261600480360381019061025c919061216f565b61071b565b60405161026e91906122c2565b60405180910390f35b610291600480360381019061028c9190612309565b6107a0565b005b6102ad60048036038101906102a8919061216f565b6108b8565b005b6102c960048036038101906102c49190612309565b61093e565b005b6102e560048036038101906102e09190612349565b610a21565b005b61030160048036038101906102fc9190612389565b610abc565b005b61031d600480360381019061031891906123b6565b610b00565b005b6103396004803603810190610334919061216f565b610b60565b60405161034691906121ab565b60405180910390f35b610369600480360381019061036491906123b6565b610b80565b005b610373610ba0565b60405161038091906122c2565b60405180910390f35b6103a3600480360381019061039e919061216f565b610bc6565b6040516103b091906122c2565b60405180910390f35b6103d360048036038101906103ce9190612389565b610c78565b6040516103e091906121ab565b60405180910390f35b6103f1610d30565b005b61040d60048036038101906104089190612409565b610db8565b005b610417610eb4565b60405161042491906122c2565b60405180910390f35b610435610ede565b60405161044291906121ab565b60405180910390f35b610453610ee4565b604051610460919061225f565b60405180910390f35b610483600480360381019061047e919061249c565b610f76565b005b61049f600480360381019061049a9190612409565b610f8c565b005b6104bb60048036038101906104b69190612611565b611088565b005b6104d760048036038101906104d2919061216f565b6110ea565b6040516104e4919061225f565b60405180910390f35b6105076004803603810190610502919061216f565b611191565b60405161051693929190612694565b60405180910390f35b6105396004803603810190610534919061216f565b6111e8565b005b610555600480360381019061055091906126cb565b611298565b604051610562919061211e565b60405180910390f35b61058560048036038101906105809190612389565b61132c565b005b60007f80ac58cd000000000000000000000000000000000000000000000000000000007bffffffffffffffffffffffffffffffffffffffffffffffffffffffff1916827bffffffffffffffffffffffffffffffffffffffffffffffffffffffff1916148061065257507f5b5e139f000000000000000000000000000000000000000000000000000000007bffffffffffffffffffffffffffffffffffffffffffffffffffffffff1916827bffffffffffffffffffffffffffffffffffffffffffffffffffffffff1916145b80610662575061066182611424565b5b9050919050565b600060076000838152602001908152602001600020600101549050919050565b6060600080546106989061273a565b80601f01602080910402602001604051908101604052809291908181526020018280546106c49061273a565b80156107115780601f106106e657610100808354040283529160200191610711565b820191906000526020600020905b8154815290600101906020018083116106f457829003601f168201915b5050505050905090565b60006107268261148e565b610765576040517f08c379a000000000000000000000000000000000000000000000000000000000815260040161075c906127de565b60405180910390fd5b6004600083815260200190815260200160002060009054906101000a900473ffffffffffffffffffffffffffffffffffffffff169050919050565b60006107ab82610bc6565b90508073ffffffffffffffffffffffffffffffffffffffff168373ffffffffffffffffffffffffffffffffffffffff16141561081c576040517f08c379a000000000000000000000000000000000000000000000000000000000815260040161081390612870565b60405180910390fd5b8073ffffffffffffffffffffffffffffffffffffffff1661083b6114fa565b73ffffffffffffffffffffffffffffffffffffffff16148061086a5750610869816108646114fa565b611298565b5b6108a9576040517f08c379a00000000000000000000000000000000000000000000000000000000081526004016108a090612902565b60405180910390fd5b6108b38383611502565b505050565b6108c06114fa565b73ffffffffffffffffffffffffffffffffffffffff166108de610eb4565b73ffffffffffffffffffffffffffffffffffffffff1614610934576040517f08c379a000000000000000000000000000000000000000000000000000000000815260040161092b9061296e565b60405180910390fd5b8060088190555050565b6109466114fa565b73ffffffffffffffffffffffffffffffffffffffff16610964610eb4565b73ffffffffffffffffffffffffffffffffffffffff16146109ba576040517f08c379a00000000000000000000000000000000000000000000000000000000081526004016109b19061296e565b60405180910390fd5b600760008281526020019081526020016000206000808201600090556001820160009055600282016000905560038201600090555050610a1d82600960009054906101000a900473ffffffffffffffffffffffffffffffffffffffff16836115bb565b5050565b610a296114fa565b73ffffffffffffffffffffffffffffffffffffffff16610a47610eb4565b73ffffffffffffffffffffffffffffffffffffffff1614610a9d576040517f08c379a0000000000000000000000000000000000000000000000000000000008152600401610a949061296e565b60405180910390fd5b8060076000848152602001908152602001600020600101819055505050565b80600a60006101000a81548173ffffffffffffffffffffffffffffffffffffffff021916908373ffffffffffffffffffffffffffffffffffffffff16021790555050565b610b11610b0b6114fa565b82611817565b610b50576040517f08c379a0000000000000000000000000000000000000000000000000000000008152600401610b4790612a00565b60405180910390fd5b610b5b8383836115bb565b505050565b600060076000838152602001908152602001600020600001549050919050565b610b9b83838360405180602001604052806000815250611088565b505050565b600a60009054906101000a900473ffffffffffffffffffffffffffffffffffffffff1681565b6000806002600084815260200190815260200160002060009054906101000a900473ffffffffffffffffffffffffffffffffffffffff169050600073ffffffffffffffffffffffffffffffffffffffff168173ffffffffffffffffffffffffffffffffffffffff161415610c6f576040517f08c379a0000000000000000000000000000000000000000000000000000000008152600401610c6690612a92565b60405180910390fd5b80915050919050565b60008073ffffffffffffffffffffffffffffffffffffffff168273ffffffffffffffffffffffffffffffffffffffff161415610ce9576040517f08c379a0000000000000000000000000000000000000000000000000000000008152600401610ce090612b24565b60405180910390fd5b600360008373ffffffffffffffffffffffffffffffffffffffff1673ffffffffffffffffffffffffffffffffffffffff168152602001908152602001600020549050919050565b610d386114fa565b73ffffffffffffffffffffffffffffffffffffffff16610d56610eb4565b73ffffffffffffffffffffffffffffffffffffffff1614610dac576040517f08c379a0000000000000000000000000000000000000000000000000000000008152600401610da39061296e565b60405180910390fd5b610db660006118f5565b565b610dc06114fa565b73ffffffffffffffffffffffffffffffffffffffff16610dde610eb4565b73ffffffffffffffffffffffffffffffffffffffff1614610e34576040517f08c379a0000000000000000000000000000000000000000000000000000000008152600401610e2b9061296e565b60405180910390fd5b81600760008581526020019081526020016000206000018190555080600760008581526020019081526020016000206001018190555060085460076000858152602001908152602001600020600201819055506008546007600085815260200190815260200160002060030181905550610eae84846119bb565b50505050565b6000600660009054906101000a900473ffffffffffffffffffffffffffffffffffffffff16905090565b60085481565b606060018054610ef39061273a565b80601f0160208091040260200160405190810160405280929190818152602001828054610f1f9061273a565b8015610f6c5780601f10610f4157610100808354040283529160200191610f6c565b820191906000526020600020905b815481529060010190602001808311610f4f57829003601f168201915b5050505050905090565b610f88610f816114fa565b8383611b89565b5050565b610f946114fa565b73ffffffffffffffffffffffffffffffffffffffff16610fb2610eb4565b73ffffffffffffffffffffffffffffffffffffffff1614611008576040517f08c379a0000000000000000000000000000000000000000000000000000000008152600401610fff9061296e565b60405180910390fd5b8160076000858152602001908152602001600020600001819055508060076000858152602001908152602001600020600101819055506008546007600085815260200190815260200160002060020181905550600854600760008581526020019081526020016000206003018190555061108284846119bb565b50505050565b6110996110936114fa565b83611817565b6110d8576040517f08c379a00000000000000000000000000000000000000000000000000000000081526004016110cf90612a00565b60405180910390fd5b6110e484848484611cf6565b50505050565b60606110f58261148e565b611134576040517f08c379a000000000000000000000000000000000000000000000000000000000815260040161112b90612bb6565b60405180910390fd5b600061113e611d52565b9050600081511161115e5760405180602001604052806000815250611189565b8061116884611d69565b604051602001611179929190612c12565b6040516020818303038152906040525b915050919050565b60008060006007600085815260200190815260200160002060000154600760008681526020019081526020016000206001015460076000878152602001908152602001600020600301549250925092509193909250565b600a60009054906101000a900473ffffffffffffffffffffffffffffffffffffffff1673ffffffffffffffffffffffffffffffffffffffff163373ffffffffffffffffffffffffffffffffffffffff1614611278576040517f08c379a000000000000000000000000000000000000000000000000000000000815260040161126f90612c82565b60405180910390fd5b600854600760008381526020019081526020016000206003018190555050565b6000600560008473ffffffffffffffffffffffffffffffffffffffff1673ffffffffffffffffffffffffffffffffffffffff16815260200190815260200160002060008373ffffffffffffffffffffffffffffffffffffffff1673ffffffffffffffffffffffffffffffffffffffff16815260200190815260200160002060009054906101000a900460ff16905092915050565b6113346114fa565b73ffffffffffffffffffffffffffffffffffffffff16611352610eb4565b73ffffffffffffffffffffffffffffffffffffffff16146113a8576040517f08c379a000000000000000000000000000000000000000000000000000000000815260040161139f9061296e565b60405180910390fd5b600073ffffffffffffffffffffffffffffffffffffffff168173ffffffffffffffffffffffffffffffffffffffff161415611418576040517f08c379a000000000000000000000000000000000000000000000000000000000815260040161140f90612d14565b60405180910390fd5b611421816118f5565b50565b60007f01ffc9a7000000000000000000000000000000000000000000000000000000007bffffffffffffffffffffffffffffffffffffffffffffffffffffffff1916827bffffffffffffffffffffffffffffffffffffffffffffffffffffffff1916149050919050565b60008073ffffffffffffffffffffffffffffffffffffffff166002600084815260200190815260200160002060009054906101000a900473ffffffffffffffffffffffffffffffffffffffff1673ffffffffffffffffffffffffffffffffffffffff1614159050919050565b600033905090565b816004600083815260200190815260200160002060006101000a81548173ffffffffffffffffffffffffffffffffffffffff021916908373ffffffffffffffffffffffffffffffffffffffff160217905550808273ffffffffffffffffffffffffffffffffffffffff1661157583610bc6565b73ffffffffffffffffffffffffffffffffffffffff167f8c5be1e5ebec7d5bd14f71427d1e84f3dd0314c0f7b2291e5b200ac8c7c3b92560405160405180910390a45050565b8273ffffffffffffffffffffffffffffffffffffffff166115db82610bc6565b73ffffffffffffffffffffffffffffffffffffffff1614611631576040517f08c379a000000000000000000000000000000000000000000000000000000000815260040161162890612da6565b60405180910390fd5b600073ffffffffffffffffffffffffffffffffffffffff168273ffffffffffffffffffffffffffffffffffffffff1614156116a1576040517f08c379a000000000000000000000000000000000000000000000000000000000815260040161169890612e38565b60405180910390fd5b6116ac838383611eca565b6116b7600082611502565b6001600360008573ffffffffffffffffffffffffffffffffffffffff1673ffffffffffffffffffffffffffffffffffffffff16815260200190815260200160002060008282546117079190612e87565b925050819055506001600360008473ffffffffffffffffffffffffffffffffffffffff1673ffffffffffffffffffffffffffffffffffffffff168152602001908152602001600020600082825461175e9190612ebb565b92505081905550816002600083815260200190815260200160002060006101000a81548173ffffffffffffffffffffffffffffffffffffffff021916908373ffffffffffffffffffffffffffffffffffffffff160217905550808273ffffffffffffffffffffffffffffffffffffffff168473ffffffffffffffffffffffffffffffffffffffff167fddf252ad1be2c89b69c2b068fc378daa952ba7f163c4a11628f55a4df523b3ef60405160405180910390a4505050565b60006118228261148e565b611861576040517f08c379a000000000000000000000000000000000000000000000000000000000815260040161185890612f83565b60405180910390fd5b600061186c83610bc6565b90508073ffffffffffffffffffffffffffffffffffffffff168473ffffffffffffffffffffffffffffffffffffffff1614806118db57508373ffffffffffffffffffffffffffffffffffffffff166118c38461071b565b73ffffffffffffffffffffffffffffffffffffffff16145b806118ec57506118eb8185611298565b5b91505092915050565b6000600660009054906101000a900473ffffffffffffffffffffffffffffffffffffffff16905081600660006101000a81548173ffffffffffffffffffffffffffffffffffffffff021916908373ffffffffffffffffffffffffffffffffffffffff1602179055508173ffffffffffffffffffffffffffffffffffffffff168173ffffffffffffffffffffffffffffffffffffffff167f8be0079c531659141344cd1fd0a4f28419497f9722a3daafe3b4186f6b6457e060405160405180910390a35050565b600073ffffffffffffffffffffffffffffffffffffffff168273ffffffffffffffffffffffffffffffffffffffff161415611a2b576040517f08c379a0000000000000000000000000000000000000000000000000000000008152600401611a2290612fef565b60405180910390fd5b611a348161148e565b15611a74576040517f08c379a0000000000000000000000000000000000000000000000000000000008152600401611a6b9061305b565b60405180910390fd5b611a8060008383611eca565b6001600360008473ffffffffffffffffffffffffffffffffffffffff1673ffffffffffffffffffffffffffffffffffffffff1681526020019081526020016000206000828254611ad09190612ebb565b92505081905550816002600083815260200190815260200160002060006101000a81548173ffffffffffffffffffffffffffffffffffffffff021916908373ffffffffffffffffffffffffffffffffffffffff160217905550808273ffffffffffffffffffffffffffffffffffffffff16600073ffffffffffffffffffffffffffffffffffffffff167fddf252ad1be2c89b69c2b068fc378daa952ba7f163c4a11628f55a4df523b3ef60405160405180910390a45050565b8173ffffffffffffffffffffffffffffffffffffffff168373ffffffffffffffffffffffffffffffffffffffff161415611bf8576040517f08c379a0000000000000000000000000000000000000000000000000000000008152600401611bef906130c7565b60405180910390fd5b80600560008573ffffffffffffffffffffffffffffffffffffffff1673ffffffffffffffffffffffffffffffffffffffff16815260200190815260200160002060008473ffffffffffffffffffffffffffffffffffffffff1673ffffffffffffffffffffffffffffffffffffffff16815260200190815260200160002060006101000a81548160ff0219169083151502179055508173ffffffffffffffffffffffffffffffffffffffff168373ffffffffffffffffffffffffffffffffffffffff167f17307eab39ab6107e8899845ad3d59bd9653f200f220920489ca2b5937696c3183604051611ce9919061211e565b60405180910390a3505050565b611d018484846115bb565b611d0d84848484611ecf565b611d4c576040517f08c379a0000000000000000000000000000000000000000000000000000000008152600401611d4390613159565b60405180910390fd5b50505050565b606060405180602001604052806000815250905090565b60606000821415611db1576040518060400160405280600181526020017f30000000000000000000000000000000000000000000000000000000000000008152509050611ec5565b600082905060005b60008214611de3578080611dcc90613179565b915050600a82611ddc91906131f1565b9150611db9565b60008167ffffffffffffffff811115611dff57611dfe6124e6565b5b6040519080825280601f01601f191660200182016040528015611e315781602001600182028036833780820191505090505b5090505b60008514611ebe57600182611e4a9190612e87565b9150600a85611e599190613222565b6030611e659190612ebb565b60f81b818381518110611e7b57611e7a613253565b5b60200101907effffffffffffffffffffffffffffffffffffffffffffffffffffffffffffff1916908160001a905350600a85611eb791906131f1565b9450611e35565b8093505050505b919050565b505050565b6000611ef08473ffffffffffffffffffffffffffffffffffffffff16612057565b1561204a578373ffffffffffffffffffffffffffffffffffffffff1663150b7a02611f196114fa565b8786866040518563ffffffff1660e01b8152600401611f3b94939291906132d7565b6020604051808303816000875af1925050508015611f7757506040513d601f19601f82011682018060405250810190611f749190613338565b60015b611ffa573d8060008114611fa7576040519150601f19603f3d011682016040523d82523d6000602084013e611fac565b606091505b50600081511415611ff2576040517f08c379a0000000000000000000000000000000000000000000000000000000008152600401611fe990613159565b60405180910390fd5b805181602001fd5b63150b7a0260e01b7bffffffffffffffffffffffffffffffffffffffffffffffffffffffff1916817bffffffffffffffffffffffffffffffffffffffffffffffffffffffff19161491505061204f565b600190505b949350505050565b600080823b905060008111915050919050565b6000604051905090565b600080fd5b600080fd5b60007fffffffff0000000000000000000000000000000000000000000000000000000082169050919050565b6120b38161207e565b81146120be57600080fd5b50565b6000813590506120d0816120aa565b92915050565b6000602082840312156120ec576120eb612074565b5b60006120fa848285016120c1565b91505092915050565b60008115159050919050565b61211881612103565b82525050565b6000602082019050612133600083018461210f565b92915050565b6000819050919050565b61214c81612139565b811461215757600080fd5b50565b60008135905061216981612143565b92915050565b60006020828403121561218557612184612074565b5b60006121938482850161215a565b91505092915050565b6121a581612139565b82525050565b60006020820190506121c0600083018461219c565b92915050565b600081519050919050565b600082825260208201905092915050565b60005b838110156122005780820151818401526020810190506121e5565b8381111561220f576000848401525b50505050565b6000601f19601f8301169050919050565b6000612231826121c6565b61223b81856121d1565b935061224b8185602086016121e2565b61225481612215565b840191505092915050565b600060208201905081810360008301526122798184612226565b905092915050565b600073ffffffffffffffffffffffffffffffffffffffff82169050919050565b60006122ac82612281565b9050919050565b6122bc816122a1565b82525050565b60006020820190506122d760008301846122b3565b92915050565b6122e6816122a1565b81146122f157600080fd5b50565b600081359050612303816122dd565b92915050565b600080604083850312156123205761231f612074565b5b600061232e858286016122f4565b925050602061233f8582860161215a565b9150509250929050565b600080604083850312156123605761235f612074565b5b600061236e8582860161215a565b925050602061237f8582860161215a565b9150509250929050565b60006020828403121561239f5761239e612074565b5b60006123ad848285016122f4565b91505092915050565b6000806000606084860312156123cf576123ce612074565b5b60006123dd868287016122f4565b93505060206123ee868287016122f4565b92505060406123ff8682870161215a565b9150509250925092565b6000806000806080858703121561242357612422612074565b5b6000612431878288016122f4565b94505060206124428782880161215a565b93505060406124538782880161215a565b92505060606124648782880161215a565b91505092959194509250565b61247981612103565b811461248457600080fd5b50565b60008135905061249681612470565b92915050565b600080604083850312156124b3576124b2612074565b5b60006124c1858286016122f4565b92505060206124d285828601612487565b9150509250929050565b600080fd5b600080fd5b7f4e487b7100000000000000000000000000000000000000000000000000000000600052604160045260246000fd5b61251e82612215565b810181811067ffffffffffffffff8211171561253d5761253c6124e6565b5b80604052505050565b600061255061206a565b905061255c8282612515565b919050565b600067ffffffffffffffff82111561257c5761257b6124e6565b5b61258582612215565b9050602081019050919050565b82818337600083830152505050565b60006125b46125af84612561565b612546565b9050828152602081018484840111156125d0576125cf6124e1565b5b6125db848285612592565b509392505050565b600082601f8301126125f8576125f76124dc565b5b81356126088482602086016125a1565b91505092915050565b6000806000806080858703121561262b5761262a612074565b5b6000612639878288016122f4565b945050602061264a878288016122f4565b935050604061265b8782880161215a565b925050606085013567ffffffffffffffff81111561267c5761267b612079565b5b612688878288016125e3565b91505092959194509250565b60006060820190506126a9600083018661219c565b6126b6602083018561219c565b6126c3604083018461219c565b949350505050565b600080604083850312156126e2576126e1612074565b5b60006126f0858286016122f4565b9250506020612701858286016122f4565b9150509250929050565b7f4e487b7100000000000000000000000000000000000000000000000000000000600052602260045260246000fd5b6000600282049050600182168061275257607f821691505b602082108114156127665761276561270b565b5b50919050565b7f4552433732313a20617070726f76656420717565727920666f72206e6f6e657860008201527f697374656e7420746f6b656e0000000000000000000000000000000000000000602082015250565b60006127c8602c836121d1565b91506127d38261276c565b604082019050919050565b600060208201905081810360008301526127f7816127bb565b9050919050565b7f4552433732313a20617070726f76616c20746f2063757272656e74206f776e6560008201527f7200000000000000000000000000000000000000000000000000000000000000602082015250565b600061285a6021836121d1565b9150612865826127fe565b604082019050919050565b600060208201905081810360008301526128898161284d565b9050919050565b7f4552433732313a20617070726f76652063616c6c6572206973206e6f74206f7760008201527f6e6572206e6f7220617070726f76656420666f7220616c6c0000000000000000602082015250565b60006128ec6038836121d1565b91506128f782612890565b604082019050919050565b6000602082019050818103600083015261291b816128df565b9050919050565b7f4f776e61626c653a2063616c6c6572206973206e6f7420746865206f776e6572600082015250565b60006129586020836121d1565b915061296382612922565b602082019050919050565b600060208201905081810360008301526129878161294b565b9050919050565b7f4552433732313a207472616e736665722063616c6c6572206973206e6f74206f60008201527f776e6572206e6f7220617070726f766564000000000000000000000000000000602082015250565b60006129ea6031836121d1565b91506129f58261298e565b604082019050919050565b60006020820190508181036000830152612a19816129dd565b9050919050565b7f4552433732313a206f776e657220717565727920666f72206e6f6e657869737460008201527f656e7420746f6b656e0000000000000000000000000000000000000000000000602082015250565b6000612a7c6029836121d1565b9150612a8782612a20565b604082019050919050565b60006020820190508181036000830152612aab81612a6f565b9050919050565b7f4552433732313a2062616c616e636520717565727920666f7220746865207a6560008201527f726f206164647265737300000000000000000000000000000000000000000000602082015250565b6000612b0e602a836121d1565b9150612b1982612ab2565b604082019050919050565b60006020820190508181036000830152612b3d81612b01565b9050919050565b7f4552433732314d657461646174613a2055524920717565727920666f72206e6f60008201527f6e6578697374656e7420746f6b656e0000000000000000000000000000000000602082015250565b6000612ba0602f836121d1565b9150612bab82612b44565b604082019050919050565b60006020820190508181036000830152612bcf81612b93565b9050919050565b600081905092915050565b6000612bec826121c6565b612bf68185612bd6565b9350612c068185602086016121e2565b80840191505092915050565b6000612c1e8285612be1565b9150612c2a8284612be1565b91508190509392505050565b7f696e76616c696420616464726573732e00000000000000000000000000000000600082015250565b6000612c6c6010836121d1565b9150612c7782612c36565b602082019050919050565b60006020820190508181036000830152612c9b81612c5f565b9050919050565b7f4f776e61626c653a206e6577206f776e657220697320746865207a65726f206160008201527f6464726573730000000000000000000000000000000000000000000000000000602082015250565b6000612cfe6026836121d1565b9150612d0982612ca2565b604082019050919050565b60006020820190508181036000830152612d2d81612cf1565b9050919050565b7f4552433732313a207472616e73666572206f6620746f6b656e2074686174206960008201527f73206e6f74206f776e0000000000000000000000000000000000000000000000602082015250565b6000612d906029836121d1565b9150612d9b82612d34565b604082019050919050565b60006020820190508181036000830152612dbf81612d83565b9050919050565b7f4552433732313a207472616e7366657220746f20746865207a65726f2061646460008201527f7265737300000000000000000000000000000000000000000000000000000000602082015250565b6000612e226024836121d1565b9150612e2d82612dc6565b604082019050919050565b60006020820190508181036000830152612e5181612e15565b9050919050565b7f4e487b7100000000000000000000000000000000000000000000000000000000600052601160045260246000fd5b6000612e9282612139565b9150612e9d83612139565b925082821015612eb057612eaf612e58565b5b828203905092915050565b6000612ec682612139565b9150612ed183612139565b9250827fffffffffffffffffffffffffffffffffffffffffffffffffffffffffffffffff03821115612f0657612f05612e58565b5b828201905092915050565b7f4552433732313a206f70657261746f7220717565727920666f72206e6f6e657860008201527f697374656e7420746f6b656e0000000000000000000000000000000000000000602082015250565b6000612f6d602c836121d1565b9150612f7882612f11565b604082019050919050565b60006020820190508181036000830152612f9c81612f60565b9050919050565b7f4552433732313a206d696e7420746f20746865207a65726f2061646472657373600082015250565b6000612fd96020836121d1565b9150612fe482612fa3565b602082019050919050565b6000602082019050818103600083015261300881612fcc565b9050919050565b7f4552433732313a20746f6b656e20616c7265616479206d696e74656400000000600082015250565b6000613045601c836121d1565b91506130508261300f565b602082019050919050565b6000602082019050818103600083015261307481613038565b9050919050565b7f4552433732313a20617070726f766520746f2063616c6c657200000000000000600082015250565b60006130b16019836121d1565b91506130bc8261307b565b602082019050919050565b600060208201905081810360008301526130e0816130a4565b9050919050565b7f4552433732313a207472616e7366657220746f206e6f6e20455243373231526560008201527f63656976657220696d706c656d656e7465720000000000000000000000000000602082015250565b60006131436032836121d1565b915061314e826130e7565b604082019050919050565b6000602082019050818103600083015261317281613136565b9050919050565b600061318482612139565b91507fffffffffffffffffffffffffffffffffffffffffffffffffffffffffffffffff8214156131b7576131b6612e58565b5b600182019050919050565b7f4e487b7100000000000000000000000000000000000000000000000000000000600052601260045260246000fd5b60006131fc82612139565b915061320783612139565b925082613217576132166131c2565b5b828204905092915050565b600061322d82612139565b915061323883612139565b925082613248576132476131c2565b5b828206905092915050565b7f4e487b7100000000000000000000000000000000000000000000000000000000600052603260045260246000fd5b600081519050919050565b600082825260208201905092915050565b60006132a982613282565b6132b3818561328d565b93506132c38185602086016121e2565b6132cc81612215565b840191505092915050565b60006080820190506132ec60008301876122b3565b6132f960208301866122b3565b613306604083018561219c565b8181036060830152613318818461329e565b905095945050505050565b600081519050613332816120aa565b92915050565b60006020828403121561334e5761334d612074565b5b600061335c84828501613323565b9150509291505056fea26469706673582212201a234da21b22e5ba9cbd0225ae0c7d8140457c6980ecf8ad375c02ec23e1183564736f6c634300080a0033",
  "immutableReferences": {},
  "source": "// SPDX-License-Identifier: MIT\n\npragma solidity ^0.8.0;\n\nimport \"@openzeppelin/contracts/token/ERC721/ERC721.sol\";\nimport \"@openzeppelin/contracts/access/Ownable.sol\";\n\ncontract IPNFT is ERC721(\"IP NFT\", \"IPNFT\"), Ownable {\n    /**\n     * @dev Metadata of NFT.\n     *\n     * - `musicId`: ID of music.\n     * - `gain`: Amount of differential ATIV per NFT.\n     * - `lastUpdatedEpoch`: Number of epoch when entering.\n     */\n    struct Meta {\n        uint256 musicId;\n        uint256 gain;\n        uint256 createdEpoch;\n        uint256 lastUpdatedEpoch;\n    }\n\n    mapping (uint256 => Meta) internal _meta;\n\n    /// @dev Current epoch.\n    uint256 public epoch;\n\n    address dead = address(0x000000000000000000000000000000000000dEaD);\n\n    /// @dev MasterChef address.\n    address public masterChef;\n\n    function init(address masterChef_) public {\n        masterChef = masterChef_;\n    }\n\n    /**\n     * @dev Get metadata of `tokenId`.\n     */\n    function meta(uint256 tokenId) public view returns (uint256, uint256, uint256) {\n        return (_meta[tokenId].musicId, _meta[tokenId].gain, _meta[tokenId].lastUpdatedEpoch);\n    }\n\n    /**\n     * @dev Get `musicId` of `_meta`.\n     */\n    function musicId(uint256 tokenId) public view returns (uint256) {\n        return _meta[tokenId].musicId;\n    }\n\n    /**\n     * @dev Get `gain` of `_meta`.\n     */\n    function gain(uint256 tokenId) public view returns (uint256) {\n        return _meta[tokenId].gain;\n    }\n\n    /**\n     * @dev Change `gain` of `_meta`.\n     */\n    function setGain(uint256 tokenId, uint256 gain_) public onlyOwner {\n        _meta[tokenId].gain = gain_;\n    }\n\n    /**\n     * @dev Mint NFT with amount of `musicId_` and `gain_`.\n     */\n    function mint(\n        address to,\n        uint256 tokenId,\n        uint256 musicId_,\n        uint256 gain_\n    ) public onlyOwner {\n        _meta[tokenId].musicId = musicId_;\n        _meta[tokenId].gain = gain_;\n        _meta[tokenId].createdEpoch = epoch;\n        _meta[tokenId].lastUpdatedEpoch = epoch;\n\n        _mint(to, tokenId);\n    }\n\n    function migrateFrom(\n        address to,\n        uint256 tokenId,\n        uint256 musicId_,\n        uint256 gain_\n    ) public onlyOwner {\n        _meta[tokenId].musicId = musicId_;\n        _meta[tokenId].gain = gain_;\n        _meta[tokenId].createdEpoch = epoch;\n        _meta[tokenId].lastUpdatedEpoch = epoch;\n\n        _mint(to, tokenId);\n    }\n\n    function migrateTo(\n        address from,\n        uint256 tokenId\n    ) public onlyOwner {\n        delete _meta[tokenId];\n\n        _transfer(from, dead, tokenId);\n    }\n\n    /**\n     * @dev Update `lastUpdatedEpoch` of `tokenId`.\n     */\n    function updateNftEpoch(uint256 tokenId) public {\n        require(msg.sender == masterChef, \"invalid address.\");\n\n        _meta[tokenId].lastUpdatedEpoch = epoch;\n    }\n\n    // /**\n    //  * @dev Update current epoch.\n    //  */\n    // function updateEpoch() public onlyOwner {\n    //     epoch++;\n    // }\n\n    /**\n     * @dev Update current epoch.\n     */\n    function setEpoch(uint256 epoch_) public onlyOwner {\n        epoch = epoch_;\n    }\n}\n",
  "sourcePath": "/Users/lukepark/Desktop//dev/ativ-EVM/contracts/IPNFT.sol",
  "compiler": {
    "name": "solc",
    "version": "0.8.10+commit.fc410830.Emscripten.clang"
  },
  "schemaVersion": "3.4.3",
  "updatedAt": "2021-12-17T17:53:57.377Z",
  "devdoc": {
    "kind": "dev",
    "methods": {
      "approve(address,uint256)": {
        "details": "See {IERC721-approve}."
      },
      "balanceOf(address)": {
        "details": "See {IERC721-balanceOf}."
      },
      "gain(uint256)": {
        "details": "Get `gain` of `_meta`."
      },
      "getApproved(uint256)": {
        "details": "See {IERC721-getApproved}."
      },
      "isApprovedForAll(address,address)": {
        "details": "See {IERC721-isApprovedForAll}."
      },
      "meta(uint256)": {
        "details": "Get metadata of `tokenId`."
      },
      "mint(address,uint256,uint256,uint256)": {
        "details": "Mint NFT with amount of `musicId_` and `gain_`."
      },
      "musicId(uint256)": {
        "details": "Get `musicId` of `_meta`."
      },
      "name()": {
        "details": "See {IERC721Metadata-name}."
      },
      "owner()": {
        "details": "Returns the address of the current owner."
      },
      "ownerOf(uint256)": {
        "details": "See {IERC721-ownerOf}."
      },
      "renounceOwnership()": {
        "details": "Leaves the contract without owner. It will not be possible to call `onlyOwner` functions anymore. Can only be called by the current owner. NOTE: Renouncing ownership will leave the contract without an owner, thereby removing any functionality that is only available to the owner."
      },
      "safeTransferFrom(address,address,uint256)": {
        "details": "See {IERC721-safeTransferFrom}."
      },
      "safeTransferFrom(address,address,uint256,bytes)": {
        "details": "See {IERC721-safeTransferFrom}."
      },
      "setApprovalForAll(address,bool)": {
        "details": "See {IERC721-setApprovalForAll}."
      },
      "setEpoch(uint256)": {
        "details": "Update current epoch."
      },
      "setGain(uint256,uint256)": {
        "details": "Change `gain` of `_meta`."
      },
      "supportsInterface(bytes4)": {
        "details": "See {IERC165-supportsInterface}."
      },
      "symbol()": {
        "details": "See {IERC721Metadata-symbol}."
      },
      "tokenURI(uint256)": {
        "details": "See {IERC721Metadata-tokenURI}."
      },
      "transferFrom(address,address,uint256)": {
        "details": "See {IERC721-transferFrom}."
      },
      "transferOwnership(address)": {
        "details": "Transfers ownership of the contract to a new account (`newOwner`). Can only be called by the current owner."
      },
      "updateNftEpoch(uint256)": {
        "details": "Update `lastUpdatedEpoch` of `tokenId`."
      }
    },
    "stateVariables": {
      "epoch": {
        "details": "Current epoch."
      },
      "masterChef": {
        "details": "MasterChef address."
      }
    },
    "version": 1
  },
  "userdoc": {
    "kind": "user",
    "methods": {},
    "version": 1
  }
}