{
  "contractName": "IPNFT",
  "abi": [
    {
      "anonymous": false,
      "inputs": [
        {
          "indexed": true,
          "internalType": "address",
          "name": "owner",
          "type": "address"
        },
        {
          "indexed": true,
          "internalType": "address",
          "name": "approved",
          "type": "address"
        },
        {
          "indexed": true,
          "internalType": "uint256",
          "name": "tokenId",
          "type": "uint256"
        }
      ],
      "name": "Approval",
      "type": "event"
    },
    {
      "anonymous": false,
      "inputs": [
        {
          "indexed": true,
          "internalType": "address",
          "name": "owner",
          "type": "address"
        },
        {
          "indexed": true,
          "internalType": "address",
          "name": "operator",
          "type": "address"
        },
        {
          "indexed": false,
          "internalType": "bool",
          "name": "approved",
          "type": "bool"
        }
      ],
      "name": "ApprovalForAll",
      "type": "event"
    },
    {
      "anonymous": false,
      "inputs": [
        {
          "indexed": true,
          "internalType": "address",
          "name": "previousOwner",
          "type": "address"
        },
        {
          "indexed": true,
          "internalType": "address",
          "name": "newOwner",
          "type": "address"
        }
      ],
      "name": "OwnershipTransferred",
      "type": "event"
    },
    {
      "anonymous": false,
      "inputs": [
        {
          "indexed": true,
          "internalType": "address",
          "name": "from",
          "type": "address"
        },
        {
          "indexed": true,
          "internalType": "address",
          "name": "to",
          "type": "address"
        },
        {
          "indexed": true,
          "internalType": "uint256",
          "name": "tokenId",
          "type": "uint256"
        }
      ],
      "name": "Transfer",
      "type": "event"
    },
    {
      "inputs": [
        {
          "internalType": "address",
          "name": "to",
          "type": "address"
        },
        {
          "internalType": "uint256",
          "name": "tokenId",
          "type": "uint256"
        }
      ],
      "name": "approve",
      "outputs": [],
      "stateMutability": "nonpayable",
      "type": "function"
    },
    {
      "inputs": [
        {
          "internalType": "address",
          "name": "owner",
          "type": "address"
        }
      ],
      "name": "balanceOf",
      "outputs": [
        {
          "internalType": "uint256",
          "name": "",
          "type": "uint256"
        }
      ],
      "stateMutability": "view",
      "type": "function"
    },
    {
      "inputs": [],
      "name": "epoch",
      "outputs": [
        {
          "internalType": "uint256",
          "name": "",
          "type": "uint256"
        }
      ],
      "stateMutability": "view",
      "type": "function"
    },
    {
      "inputs": [
        {
          "internalType": "uint256",
          "name": "tokenId",
          "type": "uint256"
        }
      ],
      "name": "getApproved",
      "outputs": [
        {
          "internalType": "address",
          "name": "",
          "type": "address"
        }
      ],
      "stateMutability": "view",
      "type": "function"
    },
    {
      "inputs": [
        {
          "internalType": "address",
          "name": "owner",
          "type": "address"
        },
        {
          "internalType": "address",
          "name": "operator",
          "type": "address"
        }
      ],
      "name": "isApprovedForAll",
      "outputs": [
        {
          "internalType": "bool",
          "name": "",
          "type": "bool"
        }
      ],
      "stateMutability": "view",
      "type": "function"
    },
    {
      "inputs": [],
      "name": "masterChef",
      "outputs": [
        {
          "internalType": "address",
          "name": "",
          "type": "address"
        }
      ],
      "stateMutability": "view",
      "type": "function"
    },
    {
      "inputs": [],
      "name": "name",
      "outputs": [
        {
          "internalType": "string",
          "name": "",
          "type": "string"
        }
      ],
      "stateMutability": "view",
      "type": "function"
    },
    {
      "inputs": [],
      "name": "owner",
      "outputs": [
        {
          "internalType": "address",
          "name": "",
          "type": "address"
        }
      ],
      "stateMutability": "view",
      "type": "function"
    },
    {
      "inputs": [
        {
          "internalType": "uint256",
          "name": "tokenId",
          "type": "uint256"
        }
      ],
      "name": "ownerOf",
      "outputs": [
        {
          "internalType": "address",
          "name": "",
          "type": "address"
        }
      ],
      "stateMutability": "view",
      "type": "function"
    },
    {
      "inputs": [],
      "name": "renounceOwnership",
      "outputs": [],
      "stateMutability": "nonpayable",
      "type": "function"
    },
    {
      "inputs": [
        {
          "internalType": "address",
          "name": "from",
          "type": "address"
        },
        {
          "internalType": "address",
          "name": "to",
          "type": "address"
        },
        {
          "internalType": "uint256",
          "name": "tokenId",
          "type": "uint256"
        }
      ],
      "name": "safeTransferFrom",
      "outputs": [],
      "stateMutability": "nonpayable",
      "type": "function"
    },
    {
      "inputs": [
        {
          "internalType": "address",
          "name": "from",
          "type": "address"
        },
        {
          "internalType": "address",
          "name": "to",
          "type": "address"
        },
        {
          "internalType": "uint256",
          "name": "tokenId",
          "type": "uint256"
        },
        {
          "internalType": "bytes",
          "name": "_data",
          "type": "bytes"
        }
      ],
      "name": "safeTransferFrom",
      "outputs": [],
      "stateMutability": "nonpayable",
      "type": "function"
    },
    {
      "inputs": [
        {
          "internalType": "address",
          "name": "operator",
          "type": "address"
        },
        {
          "internalType": "bool",
          "name": "approved",
          "type": "bool"
        }
      ],
      "name": "setApprovalForAll",
      "outputs": [],
      "stateMutability": "nonpayable",
      "type": "function"
    },
    {
      "inputs": [
        {
          "internalType": "bytes4",
          "name": "interfaceId",
          "type": "bytes4"
        }
      ],
      "name": "supportsInterface",
      "outputs": [
        {
          "internalType": "bool",
          "name": "",
          "type": "bool"
        }
      ],
      "stateMutability": "view",
      "type": "function"
    },
    {
      "inputs": [],
      "name": "symbol",
      "outputs": [
        {
          "internalType": "string",
          "name": "",
          "type": "string"
        }
      ],
      "stateMutability": "view",
      "type": "function"
    },
    {
      "inputs": [
        {
          "internalType": "uint256",
          "name": "tokenId",
          "type": "uint256"
        }
      ],
      "name": "tokenURI",
      "outputs": [
        {
          "internalType": "string",
          "name": "",
          "type": "string"
        }
      ],
      "stateMutability": "view",
      "type": "function"
    },
    {
      "inputs": [
        {
          "internalType": "address",
          "name": "from",
          "type": "address"
        },
        {
          "internalType": "address",
          "name": "to",
          "type": "address"
        },
        {
          "internalType": "uint256",
          "name": "tokenId",
          "type": "uint256"
        }
      ],
      "name": "transferFrom",
      "outputs": [],
      "stateMutability": "nonpayable",
      "type": "function"
    },
    {
      "inputs": [
        {
          "internalType": "address",
          "name": "newOwner",
          "type": "address"
        }
      ],
      "name": "transferOwnership",
      "outputs": [],
      "stateMutability": "nonpayable",
      "type": "function"
    },
    {
      "inputs": [
        {
          "internalType": "address",
          "name": "masterChef_",
          "type": "address"
        }
      ],
      "name": "init",
      "outputs": [],
      "stateMutability": "nonpayable",
      "type": "function"
    },
    {
      "inputs": [
        {
          "internalType": "uint256",
          "name": "tokenId",
          "type": "uint256"
        }
      ],
      "name": "meta",
      "outputs": [
        {
          "internalType": "uint256",
          "name": "",
          "type": "uint256"
        },
        {
          "internalType": "uint256",
          "name": "",
          "type": "uint256"
        },
        {
          "internalType": "uint256",
          "name": "",
          "type": "uint256"
        }
      ],
      "stateMutability": "view",
      "type": "function"
    },
    {
      "inputs": [
        {
          "internalType": "uint256",
          "name": "tokenId",
          "type": "uint256"
        }
      ],
      "name": "musicId",
      "outputs": [
        {
          "internalType": "uint256",
          "name": "",
          "type": "uint256"
        }
      ],
      "stateMutability": "view",
      "type": "function"
    },
    {
      "inputs": [
        {
          "internalType": "uint256",
          "name": "tokenId",
          "type": "uint256"
        }
      ],
      "name": "gain",
      "outputs": [
        {
          "internalType": "uint256",
          "name": "",
          "type": "uint256"
        }
      ],
      "stateMutability": "view",
      "type": "function"
    },
    {
      "inputs": [
        {
          "internalType": "uint256",
          "name": "tokenId",
          "type": "uint256"
        },
        {
          "internalType": "uint256",
          "name": "gain_",
          "type": "uint256"
        }
      ],
      "name": "setGain",
      "outputs": [],
      "stateMutability": "nonpayable",
      "type": "function"
    },
    {
      "inputs": [
        {
          "internalType": "address",
          "name": "to",
          "type": "address"
        },
        {
          "internalType": "uint256",
          "name": "tokenId",
          "type": "uint256"
        },
        {
          "internalType": "uint256",
          "name": "musicId_",
          "type": "uint256"
        },
        {
          "internalType": "uint256",
          "name": "gain_",
          "type": "uint256"
        }
      ],
      "name": "mint",
      "outputs": [],
      "stateMutability": "nonpayable",
      "type": "function"
    },
    {
      "inputs": [
        {
          "internalType": "uint256",
          "name": "tokenId",
          "type": "uint256"
        }
      ],
      "name": "updateNftEpoch",
      "outputs": [],
      "stateMutability": "nonpayable",
      "type": "function"
    },
    {
      "inputs": [],
      "name": "updateEpoch",
      "outputs": [],
      "stateMutability": "nonpayable",
      "type": "function"
    }
  ],
  "bytecode": "0x60806040523480156200001157600080fd5b506040518060400160405280600681526020017f4950204e465400000000000000000000000000000000000000000000000000008152506040518060400160405280600581526020017f49504e4654000000000000000000000000000000000000000000000000000000815250816000908051906020019062000096929190620001a6565b508060019080519060200190620000af929190620001a6565b505050620000d2620000c6620000d860201b60201c565b620000e060201b60201c565b620002bb565b600033905090565b6000600660009054906101000a900473ffffffffffffffffffffffffffffffffffffffff16905081600660006101000a81548173ffffffffffffffffffffffffffffffffffffffff021916908373ffffffffffffffffffffffffffffffffffffffff1602179055508173ffffffffffffffffffffffffffffffffffffffff168173ffffffffffffffffffffffffffffffffffffffff167f8be0079c531659141344cd1fd0a4f28419497f9722a3daafe3b4186f6b6457e060405160405180910390a35050565b828054620001b49062000285565b90600052602060002090601f016020900481019282620001d8576000855562000224565b82601f10620001f357805160ff191683800117855562000224565b8280016001018555821562000224579182015b828111156200022357825182559160200191906001019062000206565b5b50905062000233919062000237565b5090565b5b808211156200025257600081600090555060010162000238565b5090565b7f4e487b7100000000000000000000000000000000000000000000000000000000600052602260045260246000fd5b600060028204905060018216806200029e57607f821691505b60208210811415620002b557620002b462000256565b5b50919050565b61312f80620002cb6000396000f3fe608060405234801561001057600080fd5b506004361061018e5760003560e01c806370a08231116100de578063a647e8ec11610097578063cd5cfdaf11610071578063cd5cfdaf1461046d578063e4cae3de1461049f578063e985e9c5146104bb578063f2fde38b146104eb5761018e565b8063a647e8ec14610405578063b88d4fde14610421578063c87b56dd1461043d5761018e565b806370a0823114610355578063715018a6146103855780638da5cb5b1461038f578063900cf0cf146103ad57806395d89b41146103cb578063a22cb465146103e95761018e565b806319ab453c1161014b578063421411db11610125578063421411db146102bb57806342842e0e146102eb578063575a86b2146103075780636352211e146103255761018e565b806319ab453c1461027957806323b872dd1461029557806336f4fb02146102b15761018e565b806301ffc9a714610193578063022e6df6146101c357806306fdde03146101f3578063081812fc14610211578063095ea7b314610241578063170294221461025d575b600080fd5b6101ad60048036038101906101a89190611e6a565b610507565b6040516101ba9190611eb2565b60405180910390f35b6101dd60048036038101906101d89190611f03565b6105e9565b6040516101ea9190611f3f565b60405180910390f35b6101fb610609565b6040516102089190611ff3565b60405180910390f35b61022b60048036038101906102269190611f03565b61069b565b6040516102389190612056565b60405180910390f35b61025b6004803603810190610256919061209d565b610720565b005b610277600480360381019061027291906120dd565b610838565b005b610293600480360381019061028e919061211d565b6108d3565b005b6102af60048036038101906102aa919061214a565b610917565b005b6102b9610977565b005b6102d560048036038101906102d09190611f03565b610a0d565b6040516102e29190611f3f565b60405180910390f35b6103056004803603810190610300919061214a565b610a2d565b005b61030f610a4d565b60405161031c9190612056565b60405180910390f35b61033f600480360381019061033a9190611f03565b610a73565b60405161034c9190612056565b60405180910390f35b61036f600480360381019061036a919061211d565b610b25565b60405161037c9190611f3f565b60405180910390f35b61038d610bdd565b005b610397610c65565b6040516103a49190612056565b60405180910390f35b6103b5610c8f565b6040516103c29190611f3f565b60405180910390f35b6103d3610c95565b6040516103e09190611ff3565b60405180910390f35b61040360048036038101906103fe91906121c9565b610d27565b005b61041f600480360381019061041a9190612209565b610d3d565b005b61043b600480360381019061043691906123a5565b610e1c565b005b61045760048036038101906104529190611f03565b610e7e565b6040516104649190611ff3565b60405180910390f35b61048760048036038101906104829190611f03565b610f25565b60405161049693929190612428565b60405180910390f35b6104b960048036038101906104b49190611f03565b610f7c565b005b6104d560048036038101906104d0919061245f565b61102c565b6040516104e29190611eb2565b60405180910390f35b6105056004803603810190610500919061211d565b6110c0565b005b60007f80ac58cd000000000000000000000000000000000000000000000000000000007bffffffffffffffffffffffffffffffffffffffffffffffffffffffff1916827bffffffffffffffffffffffffffffffffffffffffffffffffffffffff191614806105d257507f5b5e139f000000000000000000000000000000000000000000000000000000007bffffffffffffffffffffffffffffffffffffffffffffffffffffffff1916827bffffffffffffffffffffffffffffffffffffffffffffffffffffffff1916145b806105e257506105e1826111b8565b5b9050919050565b600060076000838152602001908152602001600020600101549050919050565b606060008054610618906124ce565b80601f0160208091040260200160405190810160405280929190818152602001828054610644906124ce565b80156106915780601f1061066657610100808354040283529160200191610691565b820191906000526020600020905b81548152906001019060200180831161067457829003601f168201915b5050505050905090565b60006106a682611222565b6106e5576040517f08c379a00000000000000000000000000000000000000000000000000000000081526004016106dc90612572565b60405180910390fd5b6004600083815260200190815260200160002060009054906101000a900473ffffffffffffffffffffffffffffffffffffffff169050919050565b600061072b82610a73565b90508073ffffffffffffffffffffffffffffffffffffffff168373ffffffffffffffffffffffffffffffffffffffff16141561079c576040517f08c379a000000000000000000000000000000000000000000000000000000000815260040161079390612604565b60405180910390fd5b8073ffffffffffffffffffffffffffffffffffffffff166107bb61128e565b73ffffffffffffffffffffffffffffffffffffffff1614806107ea57506107e9816107e461128e565b61102c565b5b610829576040517f08c379a000000000000000000000000000000000000000000000000000000000815260040161082090612696565b60405180910390fd5b6108338383611296565b505050565b61084061128e565b73ffffffffffffffffffffffffffffffffffffffff1661085e610c65565b73ffffffffffffffffffffffffffffffffffffffff16146108b4576040517f08c379a00000000000000000000000000000000000000000000000000000000081526004016108ab90612702565b60405180910390fd5b8060076000848152602001908152602001600020600101819055505050565b80600960006101000a81548173ffffffffffffffffffffffffffffffffffffffff021916908373ffffffffffffffffffffffffffffffffffffffff16021790555050565b61092861092261128e565b8261134f565b610967576040517f08c379a000000000000000000000000000000000000000000000000000000000815260040161095e90612794565b60405180910390fd5b61097283838361142d565b505050565b61097f61128e565b73ffffffffffffffffffffffffffffffffffffffff1661099d610c65565b73ffffffffffffffffffffffffffffffffffffffff16146109f3576040517f08c379a00000000000000000000000000000000000000000000000000000000081526004016109ea90612702565b60405180910390fd5b60086000815480929190610a06906127e3565b9190505550565b600060076000838152602001908152602001600020600001549050919050565b610a4883838360405180602001604052806000815250610e1c565b505050565b600960009054906101000a900473ffffffffffffffffffffffffffffffffffffffff1681565b6000806002600084815260200190815260200160002060009054906101000a900473ffffffffffffffffffffffffffffffffffffffff169050600073ffffffffffffffffffffffffffffffffffffffff168173ffffffffffffffffffffffffffffffffffffffff161415610b1c576040517f08c379a0000000000000000000000000000000000000000000000000000000008152600401610b139061289e565b60405180910390fd5b80915050919050565b60008073ffffffffffffffffffffffffffffffffffffffff168273ffffffffffffffffffffffffffffffffffffffff161415610b96576040517f08c379a0000000000000000000000000000000000000000000000000000000008152600401610b8d90612930565b60405180910390fd5b600360008373ffffffffffffffffffffffffffffffffffffffff1673ffffffffffffffffffffffffffffffffffffffff168152602001908152602001600020549050919050565b610be561128e565b73ffffffffffffffffffffffffffffffffffffffff16610c03610c65565b73ffffffffffffffffffffffffffffffffffffffff1614610c59576040517f08c379a0000000000000000000000000000000000000000000000000000000008152600401610c5090612702565b60405180910390fd5b610c636000611689565b565b6000600660009054906101000a900473ffffffffffffffffffffffffffffffffffffffff16905090565b60085481565b606060018054610ca4906124ce565b80601f0160208091040260200160405190810160405280929190818152602001828054610cd0906124ce565b8015610d1d5780601f10610cf257610100808354040283529160200191610d1d565b820191906000526020600020905b815481529060010190602001808311610d0057829003601f168201915b5050505050905090565b610d39610d3261128e565b838361174f565b5050565b610d4561128e565b73ffffffffffffffffffffffffffffffffffffffff16610d63610c65565b73ffffffffffffffffffffffffffffffffffffffff1614610db9576040517f08c379a0000000000000000000000000000000000000000000000000000000008152600401610db090612702565b60405180910390fd5b8160076000858152602001908152602001600020600001819055508060076000858152602001908152602001600020600101819055506008546007600085815260200190815260200160002060020181905550610e1684846118bc565b50505050565b610e2d610e2761128e565b8361134f565b610e6c576040517f08c379a0000000000000000000000000000000000000000000000000000000008152600401610e6390612794565b60405180910390fd5b610e7884848484611a8a565b50505050565b6060610e8982611222565b610ec8576040517f08c379a0000000000000000000000000000000000000000000000000000000008152600401610ebf906129c2565b60405180910390fd5b6000610ed2611ae6565b90506000815111610ef25760405180602001604052806000815250610f1d565b80610efc84611afd565b604051602001610f0d929190612a1e565b6040516020818303038152906040525b915050919050565b60008060006007600085815260200190815260200160002060000154600760008681526020019081526020016000206001015460076000878152602001908152602001600020600201549250925092509193909250565b600960009054906101000a900473ffffffffffffffffffffffffffffffffffffffff1673ffffffffffffffffffffffffffffffffffffffff163373ffffffffffffffffffffffffffffffffffffffff161461100c576040517f08c379a000000000000000000000000000000000000000000000000000000000815260040161100390612a8e565b60405180910390fd5b600854600760008381526020019081526020016000206002018190555050565b6000600560008473ffffffffffffffffffffffffffffffffffffffff1673ffffffffffffffffffffffffffffffffffffffff16815260200190815260200160002060008373ffffffffffffffffffffffffffffffffffffffff1673ffffffffffffffffffffffffffffffffffffffff16815260200190815260200160002060009054906101000a900460ff16905092915050565b6110c861128e565b73ffffffffffffffffffffffffffffffffffffffff166110e6610c65565b73ffffffffffffffffffffffffffffffffffffffff161461113c576040517f08c379a000000000000000000000000000000000000000000000000000000000815260040161113390612702565b60405180910390fd5b600073ffffffffffffffffffffffffffffffffffffffff168173ffffffffffffffffffffffffffffffffffffffff1614156111ac576040517f08c379a00000000000000000000000000000000000000000000000000000000081526004016111a390612b20565b60405180910390fd5b6111b581611689565b50565b60007f01ffc9a7000000000000000000000000000000000000000000000000000000007bffffffffffffffffffffffffffffffffffffffffffffffffffffffff1916827bffffffffffffffffffffffffffffffffffffffffffffffffffffffff1916149050919050565b60008073ffffffffffffffffffffffffffffffffffffffff166002600084815260200190815260200160002060009054906101000a900473ffffffffffffffffffffffffffffffffffffffff1673ffffffffffffffffffffffffffffffffffffffff1614159050919050565b600033905090565b816004600083815260200190815260200160002060006101000a81548173ffffffffffffffffffffffffffffffffffffffff021916908373ffffffffffffffffffffffffffffffffffffffff160217905550808273ffffffffffffffffffffffffffffffffffffffff1661130983610a73565b73ffffffffffffffffffffffffffffffffffffffff167f8c5be1e5ebec7d5bd14f71427d1e84f3dd0314c0f7b2291e5b200ac8c7c3b92560405160405180910390a45050565b600061135a82611222565b611399576040517f08c379a000000000000000000000000000000000000000000000000000000000815260040161139090612bb2565b60405180910390fd5b60006113a483610a73565b90508073ffffffffffffffffffffffffffffffffffffffff168473ffffffffffffffffffffffffffffffffffffffff16148061141357508373ffffffffffffffffffffffffffffffffffffffff166113fb8461069b565b73ffffffffffffffffffffffffffffffffffffffff16145b806114245750611423818561102c565b5b91505092915050565b8273ffffffffffffffffffffffffffffffffffffffff1661144d82610a73565b73ffffffffffffffffffffffffffffffffffffffff16146114a3576040517f08c379a000000000000000000000000000000000000000000000000000000000815260040161149a90612c44565b60405180910390fd5b600073ffffffffffffffffffffffffffffffffffffffff168273ffffffffffffffffffffffffffffffffffffffff161415611513576040517f08c379a000000000000000000000000000000000000000000000000000000000815260040161150a90612cd6565b60405180910390fd5b61151e838383611c5e565b611529600082611296565b6001600360008573ffffffffffffffffffffffffffffffffffffffff1673ffffffffffffffffffffffffffffffffffffffff16815260200190815260200160002060008282546115799190612cf6565b925050819055506001600360008473ffffffffffffffffffffffffffffffffffffffff1673ffffffffffffffffffffffffffffffffffffffff16815260200190815260200160002060008282546115d09190612d2a565b92505081905550816002600083815260200190815260200160002060006101000a81548173ffffffffffffffffffffffffffffffffffffffff021916908373ffffffffffffffffffffffffffffffffffffffff160217905550808273ffffffffffffffffffffffffffffffffffffffff168473ffffffffffffffffffffffffffffffffffffffff167fddf252ad1be2c89b69c2b068fc378daa952ba7f163c4a11628f55a4df523b3ef60405160405180910390a4505050565b6000600660009054906101000a900473ffffffffffffffffffffffffffffffffffffffff16905081600660006101000a81548173ffffffffffffffffffffffffffffffffffffffff021916908373ffffffffffffffffffffffffffffffffffffffff1602179055508173ffffffffffffffffffffffffffffffffffffffff168173ffffffffffffffffffffffffffffffffffffffff167f8be0079c531659141344cd1fd0a4f28419497f9722a3daafe3b4186f6b6457e060405160405180910390a35050565b8173ffffffffffffffffffffffffffffffffffffffff168373ffffffffffffffffffffffffffffffffffffffff1614156117be576040517f08c379a00000000000000000000000000000000000000000000000000000000081526004016117b590612dcc565b60405180910390fd5b80600560008573ffffffffffffffffffffffffffffffffffffffff1673ffffffffffffffffffffffffffffffffffffffff16815260200190815260200160002060008473ffffffffffffffffffffffffffffffffffffffff1673ffffffffffffffffffffffffffffffffffffffff16815260200190815260200160002060006101000a81548160ff0219169083151502179055508173ffffffffffffffffffffffffffffffffffffffff168373ffffffffffffffffffffffffffffffffffffffff167f17307eab39ab6107e8899845ad3d59bd9653f200f220920489ca2b5937696c31836040516118af9190611eb2565b60405180910390a3505050565b600073ffffffffffffffffffffffffffffffffffffffff168273ffffffffffffffffffffffffffffffffffffffff16141561192c576040517f08c379a000000000000000000000000000000000000000000000000000000000815260040161192390612e38565b60405180910390fd5b61193581611222565b15611975576040517f08c379a000000000000000000000000000000000000000000000000000000000815260040161196c90612ea4565b60405180910390fd5b61198160008383611c5e565b6001600360008473ffffffffffffffffffffffffffffffffffffffff1673ffffffffffffffffffffffffffffffffffffffff16815260200190815260200160002060008282546119d19190612d2a565b92505081905550816002600083815260200190815260200160002060006101000a81548173ffffffffffffffffffffffffffffffffffffffff021916908373ffffffffffffffffffffffffffffffffffffffff160217905550808273ffffffffffffffffffffffffffffffffffffffff16600073ffffffffffffffffffffffffffffffffffffffff167fddf252ad1be2c89b69c2b068fc378daa952ba7f163c4a11628f55a4df523b3ef60405160405180910390a45050565b611a9584848461142d565b611aa184848484611c63565b611ae0576040517f08c379a0000000000000000000000000000000000000000000000000000000008152600401611ad790612f36565b60405180910390fd5b50505050565b606060405180602001604052806000815250905090565b60606000821415611b45576040518060400160405280600181526020017f30000000000000000000000000000000000000000000000000000000000000008152509050611c59565b600082905060005b60008214611b77578080611b60906127e3565b915050600a82611b709190612f85565b9150611b4d565b60008167ffffffffffffffff811115611b9357611b9261227a565b5b6040519080825280601f01601f191660200182016040528015611bc55781602001600182028036833780820191505090505b5090505b60008514611c5257600182611bde9190612cf6565b9150600a85611bed9190612fb6565b6030611bf99190612d2a565b60f81b818381518110611c0f57611c0e612fe7565b5b60200101907effffffffffffffffffffffffffffffffffffffffffffffffffffffffffffff1916908160001a905350600a85611c4b9190612f85565b9450611bc9565b8093505050505b919050565b505050565b6000611c848473ffffffffffffffffffffffffffffffffffffffff16611deb565b15611dde578373ffffffffffffffffffffffffffffffffffffffff1663150b7a02611cad61128e565b8786866040518563ffffffff1660e01b8152600401611ccf949392919061306b565b6020604051808303816000875af1925050508015611d0b57506040513d601f19601f82011682018060405250810190611d0891906130cc565b60015b611d8e573d8060008114611d3b576040519150601f19603f3d011682016040523d82523d6000602084013e611d40565b606091505b50600081511415611d86576040517f08c379a0000000000000000000000000000000000000000000000000000000008152600401611d7d90612f36565b60405180910390fd5b805181602001fd5b63150b7a0260e01b7bffffffffffffffffffffffffffffffffffffffffffffffffffffffff1916817bffffffffffffffffffffffffffffffffffffffffffffffffffffffff191614915050611de3565b600190505b949350505050565b600080823b905060008111915050919050565b6000604051905090565b600080fd5b600080fd5b60007fffffffff0000000000000000000000000000000000000000000000000000000082169050919050565b611e4781611e12565b8114611e5257600080fd5b50565b600081359050611e6481611e3e565b92915050565b600060208284031215611e8057611e7f611e08565b5b6000611e8e84828501611e55565b91505092915050565b60008115159050919050565b611eac81611e97565b82525050565b6000602082019050611ec76000830184611ea3565b92915050565b6000819050919050565b611ee081611ecd565b8114611eeb57600080fd5b50565b600081359050611efd81611ed7565b92915050565b600060208284031215611f1957611f18611e08565b5b6000611f2784828501611eee565b91505092915050565b611f3981611ecd565b82525050565b6000602082019050611f546000830184611f30565b92915050565b600081519050919050565b600082825260208201905092915050565b60005b83811015611f94578082015181840152602081019050611f79565b83811115611fa3576000848401525b50505050565b6000601f19601f8301169050919050565b6000611fc582611f5a565b611fcf8185611f65565b9350611fdf818560208601611f76565b611fe881611fa9565b840191505092915050565b6000602082019050818103600083015261200d8184611fba565b905092915050565b600073ffffffffffffffffffffffffffffffffffffffff82169050919050565b600061204082612015565b9050919050565b61205081612035565b82525050565b600060208201905061206b6000830184612047565b92915050565b61207a81612035565b811461208557600080fd5b50565b60008135905061209781612071565b92915050565b600080604083850312156120b4576120b3611e08565b5b60006120c285828601612088565b92505060206120d385828601611eee565b9150509250929050565b600080604083850312156120f4576120f3611e08565b5b600061210285828601611eee565b925050602061211385828601611eee565b9150509250929050565b60006020828403121561213357612132611e08565b5b600061214184828501612088565b91505092915050565b60008060006060848603121561216357612162611e08565b5b600061217186828701612088565b935050602061218286828701612088565b925050604061219386828701611eee565b9150509250925092565b6121a681611e97565b81146121b157600080fd5b50565b6000813590506121c38161219d565b92915050565b600080604083850312156121e0576121df611e08565b5b60006121ee85828601612088565b92505060206121ff858286016121b4565b9150509250929050565b6000806000806080858703121561222357612222611e08565b5b600061223187828801612088565b945050602061224287828801611eee565b935050604061225387828801611eee565b925050606061226487828801611eee565b91505092959194509250565b600080fd5b600080fd5b7f4e487b7100000000000000000000000000000000000000000000000000000000600052604160045260246000fd5b6122b282611fa9565b810181811067ffffffffffffffff821117156122d1576122d061227a565b5b80604052505050565b60006122e4611dfe565b90506122f082826122a9565b919050565b600067ffffffffffffffff8211156123105761230f61227a565b5b61231982611fa9565b9050602081019050919050565b82818337600083830152505050565b6000612348612343846122f5565b6122da565b90508281526020810184848401111561236457612363612275565b5b61236f848285612326565b509392505050565b600082601f83011261238c5761238b612270565b5b813561239c848260208601612335565b91505092915050565b600080600080608085870312156123bf576123be611e08565b5b60006123cd87828801612088565b94505060206123de87828801612088565b93505060406123ef87828801611eee565b925050606085013567ffffffffffffffff8111156124105761240f611e0d565b5b61241c87828801612377565b91505092959194509250565b600060608201905061243d6000830186611f30565b61244a6020830185611f30565b6124576040830184611f30565b949350505050565b6000806040838503121561247657612475611e08565b5b600061248485828601612088565b925050602061249585828601612088565b9150509250929050565b7f4e487b7100000000000000000000000000000000000000000000000000000000600052602260045260246000fd5b600060028204905060018216806124e657607f821691505b602082108114156124fa576124f961249f565b5b50919050565b7f4552433732313a20617070726f76656420717565727920666f72206e6f6e657860008201527f697374656e7420746f6b656e0000000000000000000000000000000000000000602082015250565b600061255c602c83611f65565b915061256782612500565b604082019050919050565b6000602082019050818103600083015261258b8161254f565b9050919050565b7f4552433732313a20617070726f76616c20746f2063757272656e74206f776e6560008201527f7200000000000000000000000000000000000000000000000000000000000000602082015250565b60006125ee602183611f65565b91506125f982612592565b604082019050919050565b6000602082019050818103600083015261261d816125e1565b9050919050565b7f4552433732313a20617070726f76652063616c6c6572206973206e6f74206f7760008201527f6e6572206e6f7220617070726f76656420666f7220616c6c0000000000000000602082015250565b6000612680603883611f65565b915061268b82612624565b604082019050919050565b600060208201905081810360008301526126af81612673565b9050919050565b7f4f776e61626c653a2063616c6c6572206973206e6f7420746865206f776e6572600082015250565b60006126ec602083611f65565b91506126f7826126b6565b602082019050919050565b6000602082019050818103600083015261271b816126df565b9050919050565b7f4552433732313a207472616e736665722063616c6c6572206973206e6f74206f60008201527f776e6572206e6f7220617070726f766564000000000000000000000000000000602082015250565b600061277e603183611f65565b915061278982612722565b604082019050919050565b600060208201905081810360008301526127ad81612771565b9050919050565b7f4e487b7100000000000000000000000000000000000000000000000000000000600052601160045260246000fd5b60006127ee82611ecd565b91507fffffffffffffffffffffffffffffffffffffffffffffffffffffffffffffffff821415612821576128206127b4565b5b600182019050919050565b7f4552433732313a206f776e657220717565727920666f72206e6f6e657869737460008201527f656e7420746f6b656e0000000000000000000000000000000000000000000000602082015250565b6000612888602983611f65565b91506128938261282c565b604082019050919050565b600060208201905081810360008301526128b78161287b565b9050919050565b7f4552433732313a2062616c616e636520717565727920666f7220746865207a6560008201527f726f206164647265737300000000000000000000000000000000000000000000602082015250565b600061291a602a83611f65565b9150612925826128be565b604082019050919050565b600060208201905081810360008301526129498161290d565b9050919050565b7f4552433732314d657461646174613a2055524920717565727920666f72206e6f60008201527f6e6578697374656e7420746f6b656e0000000000000000000000000000000000602082015250565b60006129ac602f83611f65565b91506129b782612950565b604082019050919050565b600060208201905081810360008301526129db8161299f565b9050919050565b600081905092915050565b60006129f882611f5a565b612a0281856129e2565b9350612a12818560208601611f76565b80840191505092915050565b6000612a2a82856129ed565b9150612a3682846129ed565b91508190509392505050565b7f696e76616c696420616464726573732e00000000000000000000000000000000600082015250565b6000612a78601083611f65565b9150612a8382612a42565b602082019050919050565b60006020820190508181036000830152612aa781612a6b565b9050919050565b7f4f776e61626c653a206e6577206f776e657220697320746865207a65726f206160008201527f6464726573730000000000000000000000000000000000000000000000000000602082015250565b6000612b0a602683611f65565b9150612b1582612aae565b604082019050919050565b60006020820190508181036000830152612b3981612afd565b9050919050565b7f4552433732313a206f70657261746f7220717565727920666f72206e6f6e657860008201527f697374656e7420746f6b656e0000000000000000000000000000000000000000602082015250565b6000612b9c602c83611f65565b9150612ba782612b40565b604082019050919050565b60006020820190508181036000830152612bcb81612b8f565b9050919050565b7f4552433732313a207472616e73666572206f6620746f6b656e2074686174206960008201527f73206e6f74206f776e0000000000000000000000000000000000000000000000602082015250565b6000612c2e602983611f65565b9150612c3982612bd2565b604082019050919050565b60006020820190508181036000830152612c5d81612c21565b9050919050565b7f4552433732313a207472616e7366657220746f20746865207a65726f2061646460008201527f7265737300000000000000000000000000000000000000000000000000000000602082015250565b6000612cc0602483611f65565b9150612ccb82612c64565b604082019050919050565b60006020820190508181036000830152612cef81612cb3565b9050919050565b6000612d0182611ecd565b9150612d0c83611ecd565b925082821015612d1f57612d1e6127b4565b5b828203905092915050565b6000612d3582611ecd565b9150612d4083611ecd565b9250827fffffffffffffffffffffffffffffffffffffffffffffffffffffffffffffffff03821115612d7557612d746127b4565b5b828201905092915050565b7f4552433732313a20617070726f766520746f2063616c6c657200000000000000600082015250565b6000612db6601983611f65565b9150612dc182612d80565b602082019050919050565b60006020820190508181036000830152612de581612da9565b9050919050565b7f4552433732313a206d696e7420746f20746865207a65726f2061646472657373600082015250565b6000612e22602083611f65565b9150612e2d82612dec565b602082019050919050565b60006020820190508181036000830152612e5181612e15565b9050919050565b7f4552433732313a20746f6b656e20616c7265616479206d696e74656400000000600082015250565b6000612e8e601c83611f65565b9150612e9982612e58565b602082019050919050565b60006020820190508181036000830152612ebd81612e81565b9050919050565b7f4552433732313a207472616e7366657220746f206e6f6e20455243373231526560008201527f63656976657220696d706c656d656e7465720000000000000000000000000000602082015250565b6000612f20603283611f65565b9150612f2b82612ec4565b604082019050919050565b60006020820190508181036000830152612f4f81612f13565b9050919050565b7f4e487b7100000000000000000000000000000000000000000000000000000000600052601260045260246000fd5b6000612f9082611ecd565b9150612f9b83611ecd565b925082612fab57612faa612f56565b5b828204905092915050565b6000612fc182611ecd565b9150612fcc83611ecd565b925082612fdc57612fdb612f56565b5b828206905092915050565b7f4e487b7100000000000000000000000000000000000000000000000000000000600052603260045260246000fd5b600081519050919050565b600082825260208201905092915050565b600061303d82613016565b6130478185613021565b9350613057818560208601611f76565b61306081611fa9565b840191505092915050565b60006080820190506130806000830187612047565b61308d6020830186612047565b61309a6040830185611f30565b81810360608301526130ac8184613032565b905095945050505050565b6000815190506130c681611e3e565b92915050565b6000602082840312156130e2576130e1611e08565b5b60006130f0848285016130b7565b9150509291505056fea2646970667358221220b70bb07fa9259e9df511b06352aded5bc4b024d71268493a9b7132e2c9e5ea5064736f6c634300080a0033",
  "immutableReferences": {},
  "source": "// SPDX-License-Identifier: MIT\n\npragma solidity ^0.8.0;\n\nimport \"@openzeppelin/contracts/token/ERC721/ERC721.sol\";\nimport \"@openzeppelin/contracts/access/Ownable.sol\";\n\ncontract IPNFT is ERC721(\"IP NFT\", \"IPNFT\"), Ownable {\n    /**\n     * @dev Metadata of NFT.\n     *\n     * - `musicId`: ID of music.\n     * - `gain`: Amount of differential ATIV per NFT.\n     * - `lastUpdatedEpoch`: Number of epoch when entering.\n     */\n    struct Meta {\n        uint256 musicId;\n        uint256 gain;\n        uint256 lastUpdatedEpoch;\n    }\n\n    mapping (uint256 => Meta) internal _meta;\n\n    /// @dev Current epoch.\n    uint256 public epoch;\n\n    /// @dev MasterChef address.\n    address public masterChef;\n\n    function init(address masterChef_) public {\n        masterChef = masterChef_;\n    }\n\n    /**\n     * @dev Get metadata of `tokenId`.\n     */\n    function meta(uint256 tokenId) public view returns (uint256, uint256, uint256) {\n        return (_meta[tokenId].musicId, _meta[tokenId].gain, _meta[tokenId].lastUpdatedEpoch);\n    }\n\n    /**\n     * @dev Get `musicId` of `_meta`.\n     */\n    function musicId(uint256 tokenId) public view returns (uint256) {\n        return _meta[tokenId].musicId;\n    }\n\n    /**\n     * @dev Get `gain` of `_meta`.\n     */\n    function gain(uint256 tokenId) public view returns (uint256) {\n        return _meta[tokenId].gain;\n    }\n\n    /**\n     * @dev Change `gain` of `_meta`.\n     */\n    function setGain(uint256 tokenId, uint256 gain_) public onlyOwner {\n        _meta[tokenId].gain = gain_;\n    }\n\n    /**\n     * @dev Mint NFT with amount of `musicId_` and `gain_`.\n     */\n    function mint(\n        address to,\n        uint256 tokenId,\n        uint256 musicId_,\n        uint256 gain_\n    ) public onlyOwner {\n        _meta[tokenId].musicId = musicId_;\n        _meta[tokenId].gain = gain_;\n        _meta[tokenId].lastUpdatedEpoch = epoch;\n\n        _mint(to, tokenId);\n    }\n\n    /**\n     * @dev Update `lastUpdatedEpoch` of `tokenId`.\n     */\n    function updateNftEpoch(uint256 tokenId) public {\n        require(msg.sender == masterChef, \"invalid address.\");\n\n        _meta[tokenId].lastUpdatedEpoch = epoch;\n    }\n\n    /**\n     * @dev Update current epoch.\n     */\n    function updateEpoch() public onlyOwner {\n        epoch++;\n    }\n}\n",
  "sourcePath": "/Users/lukepark/Desktop//dev/ativ-EVM/contracts/IPNFT.sol",
  "compiler": {
    "name": "solc",
    "version": "0.8.10+commit.fc410830.Emscripten.clang"
  },
  "schemaVersion": "3.4.3",
  "updatedAt": "2021-12-17T16:08:15.851Z",
  "devdoc": {
    "kind": "dev",
    "methods": {
      "approve(address,uint256)": {
        "details": "See {IERC721-approve}."
      },
      "balanceOf(address)": {
        "details": "See {IERC721-balanceOf}."
      },
      "gain(uint256)": {
        "details": "Get `gain` of `_meta`."
      },
      "getApproved(uint256)": {
        "details": "See {IERC721-getApproved}."
      },
      "isApprovedForAll(address,address)": {
        "details": "See {IERC721-isApprovedForAll}."
      },
      "meta(uint256)": {
        "details": "Get metadata of `tokenId`."
      },
      "mint(address,uint256,uint256,uint256)": {
        "details": "Mint NFT with amount of `musicId_` and `gain_`."
      },
      "musicId(uint256)": {
        "details": "Get `musicId` of `_meta`."
      },
      "name()": {
        "details": "See {IERC721Metadata-name}."
      },
      "owner()": {
        "details": "Returns the address of the current owner."
      },
      "ownerOf(uint256)": {
        "details": "See {IERC721-ownerOf}."
      },
      "renounceOwnership()": {
        "details": "Leaves the contract without owner. It will not be possible to call `onlyOwner` functions anymore. Can only be called by the current owner. NOTE: Renouncing ownership will leave the contract without an owner, thereby removing any functionality that is only available to the owner."
      },
      "safeTransferFrom(address,address,uint256)": {
        "details": "See {IERC721-safeTransferFrom}."
      },
      "safeTransferFrom(address,address,uint256,bytes)": {
        "details": "See {IERC721-safeTransferFrom}."
      },
      "setApprovalForAll(address,bool)": {
        "details": "See {IERC721-setApprovalForAll}."
      },
      "setGain(uint256,uint256)": {
        "details": "Change `gain` of `_meta`."
      },
      "supportsInterface(bytes4)": {
        "details": "See {IERC165-supportsInterface}."
      },
      "symbol()": {
        "details": "See {IERC721Metadata-symbol}."
      },
      "tokenURI(uint256)": {
        "details": "See {IERC721Metadata-tokenURI}."
      },
      "transferFrom(address,address,uint256)": {
        "details": "See {IERC721-transferFrom}."
      },
      "transferOwnership(address)": {
        "details": "Transfers ownership of the contract to a new account (`newOwner`). Can only be called by the current owner."
      },
      "updateEpoch()": {
        "details": "Update current epoch."
      },
      "updateNftEpoch(uint256)": {
        "details": "Update `lastUpdatedEpoch` of `tokenId`."
      }
    },
    "stateVariables": {
      "epoch": {
        "details": "Current epoch."
      },
      "masterChef": {
        "details": "MasterChef address."
      }
    },
    "version": 1
  },
  "userdoc": {
    "kind": "user",
    "methods": {},
    "version": 1
  }
}