{
  "contractName": "IPNFT",
  "abi": [
    {
      "anonymous": false,
      "inputs": [
        {
          "indexed": true,
          "internalType": "address",
          "name": "owner",
          "type": "address"
        },
        {
          "indexed": true,
          "internalType": "address",
          "name": "approved",
          "type": "address"
        },
        {
          "indexed": true,
          "internalType": "uint256",
          "name": "tokenId",
          "type": "uint256"
        }
      ],
      "name": "Approval",
      "type": "event"
    },
    {
      "anonymous": false,
      "inputs": [
        {
          "indexed": true,
          "internalType": "address",
          "name": "owner",
          "type": "address"
        },
        {
          "indexed": true,
          "internalType": "address",
          "name": "operator",
          "type": "address"
        },
        {
          "indexed": false,
          "internalType": "bool",
          "name": "approved",
          "type": "bool"
        }
      ],
      "name": "ApprovalForAll",
      "type": "event"
    },
    {
      "anonymous": false,
      "inputs": [
        {
          "indexed": true,
          "internalType": "address",
          "name": "previousOwner",
          "type": "address"
        },
        {
          "indexed": true,
          "internalType": "address",
          "name": "newOwner",
          "type": "address"
        }
      ],
      "name": "OwnershipTransferred",
      "type": "event"
    },
    {
      "anonymous": false,
      "inputs": [
        {
          "indexed": true,
          "internalType": "address",
          "name": "from",
          "type": "address"
        },
        {
          "indexed": true,
          "internalType": "address",
          "name": "to",
          "type": "address"
        },
        {
          "indexed": true,
          "internalType": "uint256",
          "name": "tokenId",
          "type": "uint256"
        }
      ],
      "name": "Transfer",
      "type": "event"
    },
    {
      "inputs": [
        {
          "internalType": "address",
          "name": "to",
          "type": "address"
        },
        {
          "internalType": "uint256",
          "name": "tokenId",
          "type": "uint256"
        }
      ],
      "name": "approve",
      "outputs": [],
      "stateMutability": "nonpayable",
      "type": "function"
    },
    {
      "inputs": [
        {
          "internalType": "address",
          "name": "owner",
          "type": "address"
        }
      ],
      "name": "balanceOf",
      "outputs": [
        {
          "internalType": "uint256",
          "name": "",
          "type": "uint256"
        }
      ],
      "stateMutability": "view",
      "type": "function"
    },
    {
      "inputs": [],
      "name": "epoch",
      "outputs": [
        {
          "internalType": "uint256",
          "name": "",
          "type": "uint256"
        }
      ],
      "stateMutability": "view",
      "type": "function"
    },
    {
      "inputs": [
        {
          "internalType": "uint256",
          "name": "tokenId",
          "type": "uint256"
        }
      ],
      "name": "getApproved",
      "outputs": [
        {
          "internalType": "address",
          "name": "",
          "type": "address"
        }
      ],
      "stateMutability": "view",
      "type": "function"
    },
    {
      "inputs": [
        {
          "internalType": "address",
          "name": "owner",
          "type": "address"
        },
        {
          "internalType": "address",
          "name": "operator",
          "type": "address"
        }
      ],
      "name": "isApprovedForAll",
      "outputs": [
        {
          "internalType": "bool",
          "name": "",
          "type": "bool"
        }
      ],
      "stateMutability": "view",
      "type": "function"
    },
    {
      "inputs": [],
      "name": "masterChef",
      "outputs": [
        {
          "internalType": "address",
          "name": "",
          "type": "address"
        }
      ],
      "stateMutability": "view",
      "type": "function"
    },
    {
      "inputs": [],
      "name": "name",
      "outputs": [
        {
          "internalType": "string",
          "name": "",
          "type": "string"
        }
      ],
      "stateMutability": "view",
      "type": "function"
    },
    {
      "inputs": [],
      "name": "owner",
      "outputs": [
        {
          "internalType": "address",
          "name": "",
          "type": "address"
        }
      ],
      "stateMutability": "view",
      "type": "function"
    },
    {
      "inputs": [
        {
          "internalType": "uint256",
          "name": "tokenId",
          "type": "uint256"
        }
      ],
      "name": "ownerOf",
      "outputs": [
        {
          "internalType": "address",
          "name": "",
          "type": "address"
        }
      ],
      "stateMutability": "view",
      "type": "function"
    },
    {
      "inputs": [],
      "name": "renounceOwnership",
      "outputs": [],
      "stateMutability": "nonpayable",
      "type": "function"
    },
    {
      "inputs": [
        {
          "internalType": "address",
          "name": "from",
          "type": "address"
        },
        {
          "internalType": "address",
          "name": "to",
          "type": "address"
        },
        {
          "internalType": "uint256",
          "name": "tokenId",
          "type": "uint256"
        }
      ],
      "name": "safeTransferFrom",
      "outputs": [],
      "stateMutability": "nonpayable",
      "type": "function"
    },
    {
      "inputs": [
        {
          "internalType": "address",
          "name": "from",
          "type": "address"
        },
        {
          "internalType": "address",
          "name": "to",
          "type": "address"
        },
        {
          "internalType": "uint256",
          "name": "tokenId",
          "type": "uint256"
        },
        {
          "internalType": "bytes",
          "name": "_data",
          "type": "bytes"
        }
      ],
      "name": "safeTransferFrom",
      "outputs": [],
      "stateMutability": "nonpayable",
      "type": "function"
    },
    {
      "inputs": [
        {
          "internalType": "address",
          "name": "operator",
          "type": "address"
        },
        {
          "internalType": "bool",
          "name": "approved",
          "type": "bool"
        }
      ],
      "name": "setApprovalForAll",
      "outputs": [],
      "stateMutability": "nonpayable",
      "type": "function"
    },
    {
      "inputs": [
        {
          "internalType": "bytes4",
          "name": "interfaceId",
          "type": "bytes4"
        }
      ],
      "name": "supportsInterface",
      "outputs": [
        {
          "internalType": "bool",
          "name": "",
          "type": "bool"
        }
      ],
      "stateMutability": "view",
      "type": "function"
    },
    {
      "inputs": [],
      "name": "symbol",
      "outputs": [
        {
          "internalType": "string",
          "name": "",
          "type": "string"
        }
      ],
      "stateMutability": "view",
      "type": "function"
    },
    {
      "inputs": [
        {
          "internalType": "uint256",
          "name": "tokenId",
          "type": "uint256"
        }
      ],
      "name": "tokenURI",
      "outputs": [
        {
          "internalType": "string",
          "name": "",
          "type": "string"
        }
      ],
      "stateMutability": "view",
      "type": "function"
    },
    {
      "inputs": [
        {
          "internalType": "address",
          "name": "from",
          "type": "address"
        },
        {
          "internalType": "address",
          "name": "to",
          "type": "address"
        },
        {
          "internalType": "uint256",
          "name": "tokenId",
          "type": "uint256"
        }
      ],
      "name": "transferFrom",
      "outputs": [],
      "stateMutability": "nonpayable",
      "type": "function"
    },
    {
      "inputs": [
        {
          "internalType": "address",
          "name": "newOwner",
          "type": "address"
        }
      ],
      "name": "transferOwnership",
      "outputs": [],
      "stateMutability": "nonpayable",
      "type": "function"
    },
    {
      "inputs": [
        {
          "internalType": "address",
          "name": "masterChef_",
          "type": "address"
        }
      ],
      "name": "init",
      "outputs": [],
      "stateMutability": "nonpayable",
      "type": "function"
    },
    {
      "inputs": [
        {
          "internalType": "uint256",
          "name": "tokenId",
          "type": "uint256"
        }
      ],
      "name": "meta",
      "outputs": [
        {
          "internalType": "uint256",
          "name": "",
          "type": "uint256"
        },
        {
          "internalType": "uint256",
          "name": "",
          "type": "uint256"
        },
        {
          "internalType": "uint256",
          "name": "",
          "type": "uint256"
        }
      ],
      "stateMutability": "view",
      "type": "function"
    },
    {
      "inputs": [
        {
          "internalType": "uint256",
          "name": "tokenId",
          "type": "uint256"
        }
      ],
      "name": "musicId",
      "outputs": [
        {
          "internalType": "uint256",
          "name": "",
          "type": "uint256"
        }
      ],
      "stateMutability": "view",
      "type": "function"
    },
    {
      "inputs": [
        {
          "internalType": "uint256",
          "name": "tokenId",
          "type": "uint256"
        }
      ],
      "name": "gain",
      "outputs": [
        {
          "internalType": "uint256",
          "name": "",
          "type": "uint256"
        }
      ],
      "stateMutability": "view",
      "type": "function"
    },
    {
      "inputs": [
        {
          "internalType": "uint256",
          "name": "tokenId",
          "type": "uint256"
        },
        {
          "internalType": "uint256",
          "name": "gain_",
          "type": "uint256"
        }
      ],
      "name": "setGain",
      "outputs": [],
      "stateMutability": "nonpayable",
      "type": "function"
    },
    {
      "inputs": [
        {
          "internalType": "address",
          "name": "to",
          "type": "address"
        },
        {
          "internalType": "uint256",
          "name": "tokenId",
          "type": "uint256"
        },
        {
          "internalType": "uint256",
          "name": "musicId_",
          "type": "uint256"
        },
        {
          "internalType": "uint256",
          "name": "gain_",
          "type": "uint256"
        }
      ],
      "name": "mint",
      "outputs": [],
      "stateMutability": "nonpayable",
      "type": "function"
    },
    {
      "inputs": [
        {
          "internalType": "uint256",
          "name": "tokenId",
          "type": "uint256"
        }
      ],
      "name": "updateNftEpoch",
      "outputs": [],
      "stateMutability": "nonpayable",
      "type": "function"
    },
    {
      "inputs": [
        {
          "internalType": "uint256",
          "name": "epoch_",
          "type": "uint256"
        }
      ],
      "name": "setEpoch",
      "outputs": [],
      "stateMutability": "nonpayable",
      "type": "function"
    }
  ],
  "bytecode": "0x60806040523480156200001157600080fd5b506040518060400160405280600681526020017f4950204e465400000000000000000000000000000000000000000000000000008152506040518060400160405280600581526020017f49504e4654000000000000000000000000000000000000000000000000000000815250816000908051906020019062000096929190620001a6565b508060019080519060200190620000af929190620001a6565b505050620000d2620000c6620000d860201b60201c565b620000e060201b60201c565b620002bb565b600033905090565b6000600660009054906101000a900473ffffffffffffffffffffffffffffffffffffffff16905081600660006101000a81548173ffffffffffffffffffffffffffffffffffffffff021916908373ffffffffffffffffffffffffffffffffffffffff1602179055508173ffffffffffffffffffffffffffffffffffffffff168173ffffffffffffffffffffffffffffffffffffffff167f8be0079c531659141344cd1fd0a4f28419497f9722a3daafe3b4186f6b6457e060405160405180910390a35050565b828054620001b49062000285565b90600052602060002090601f016020900481019282620001d8576000855562000224565b82601f10620001f357805160ff191683800117855562000224565b8280016001018555821562000224579182015b828111156200022357825182559160200191906001019062000206565b5b50905062000233919062000237565b5090565b5b808211156200025257600081600090555060010162000238565b5090565b7f4e487b7100000000000000000000000000000000000000000000000000000000600052602260045260246000fd5b600060028204905060018216806200029e57607f821691505b60208210811415620002b557620002b462000256565b5b50919050565b61314e80620002cb6000396000f3fe608060405234801561001057600080fd5b506004361061018e5760003560e01c806370a08231116100de578063a647e8ec11610097578063cd5cfdaf11610071578063cd5cfdaf1461047f578063e4cae3de146104b1578063e985e9c5146104cd578063f2fde38b146104fd5761018e565b8063a647e8ec14610417578063b88d4fde14610433578063c87b56dd1461044f5761018e565b806370a0823114610367578063715018a6146103975780638da5cb5b146103a1578063900cf0cf146103bf57806395d89b41146103dd578063a22cb465146103fb5761018e565b8063170294221161014b578063421411db11610125578063421411db146102cd57806342842e0e146102fd578063575a86b2146103195780636352211e146103375761018e565b8063170294221461027957806319ab453c1461029557806323b872dd146102b15761018e565b806301ffc9a714610193578063022e6df6146101c357806306fdde03146101f3578063081812fc14610211578063095ea7b3146102415780630ceb2cef1461025d575b600080fd5b6101ad60048036038101906101a89190611e89565b610519565b6040516101ba9190611ed1565b60405180910390f35b6101dd60048036038101906101d89190611f22565b6105fb565b6040516101ea9190611f5e565b60405180910390f35b6101fb61061b565b6040516102089190612012565b60405180910390f35b61022b60048036038101906102269190611f22565b6106ad565b6040516102389190612075565b60405180910390f35b61025b600480360381019061025691906120bc565b610732565b005b61027760048036038101906102729190611f22565b61084a565b005b610293600480360381019061028e91906120fc565b6108d0565b005b6102af60048036038101906102aa919061213c565b61096b565b005b6102cb60048036038101906102c69190612169565b6109af565b005b6102e760048036038101906102e29190611f22565b610a0f565b6040516102f49190611f5e565b60405180910390f35b61031760048036038101906103129190612169565b610a2f565b005b610321610a4f565b60405161032e9190612075565b60405180910390f35b610351600480360381019061034c9190611f22565b610a75565b60405161035e9190612075565b60405180910390f35b610381600480360381019061037c919061213c565b610b27565b60405161038e9190611f5e565b60405180910390f35b61039f610bdf565b005b6103a9610c67565b6040516103b69190612075565b60405180910390f35b6103c7610c91565b6040516103d49190611f5e565b60405180910390f35b6103e5610c97565b6040516103f29190612012565b60405180910390f35b610415600480360381019061041091906121e8565b610d29565b005b610431600480360381019061042c9190612228565b610d3f565b005b61044d600480360381019061044891906123c4565b610e3b565b005b61046960048036038101906104649190611f22565b610e9d565b6040516104769190612012565b60405180910390f35b61049960048036038101906104949190611f22565b610f44565b6040516104a893929190612447565b60405180910390f35b6104cb60048036038101906104c69190611f22565b610f9b565b005b6104e760048036038101906104e2919061247e565b61104b565b6040516104f49190611ed1565b60405180910390f35b6105176004803603810190610512919061213c565b6110df565b005b60007f80ac58cd000000000000000000000000000000000000000000000000000000007bffffffffffffffffffffffffffffffffffffffffffffffffffffffff1916827bffffffffffffffffffffffffffffffffffffffffffffffffffffffff191614806105e457507f5b5e139f000000000000000000000000000000000000000000000000000000007bffffffffffffffffffffffffffffffffffffffffffffffffffffffff1916827bffffffffffffffffffffffffffffffffffffffffffffffffffffffff1916145b806105f457506105f3826111d7565b5b9050919050565b600060076000838152602001908152602001600020600101549050919050565b60606000805461062a906124ed565b80601f0160208091040260200160405190810160405280929190818152602001828054610656906124ed565b80156106a35780601f10610678576101008083540402835291602001916106a3565b820191906000526020600020905b81548152906001019060200180831161068657829003601f168201915b5050505050905090565b60006106b882611241565b6106f7576040517f08c379a00000000000000000000000000000000000000000000000000000000081526004016106ee90612591565b60405180910390fd5b6004600083815260200190815260200160002060009054906101000a900473ffffffffffffffffffffffffffffffffffffffff169050919050565b600061073d82610a75565b90508073ffffffffffffffffffffffffffffffffffffffff168373ffffffffffffffffffffffffffffffffffffffff1614156107ae576040517f08c379a00000000000000000000000000000000000000000000000000000000081526004016107a590612623565b60405180910390fd5b8073ffffffffffffffffffffffffffffffffffffffff166107cd6112ad565b73ffffffffffffffffffffffffffffffffffffffff1614806107fc57506107fb816107f66112ad565b61104b565b5b61083b576040517f08c379a0000000000000000000000000000000000000000000000000000000008152600401610832906126b5565b60405180910390fd5b61084583836112b5565b505050565b6108526112ad565b73ffffffffffffffffffffffffffffffffffffffff16610870610c67565b73ffffffffffffffffffffffffffffffffffffffff16146108c6576040517f08c379a00000000000000000000000000000000000000000000000000000000081526004016108bd90612721565b60405180910390fd5b8060088190555050565b6108d86112ad565b73ffffffffffffffffffffffffffffffffffffffff166108f6610c67565b73ffffffffffffffffffffffffffffffffffffffff161461094c576040517f08c379a000000000000000000000000000000000000000000000000000000000815260040161094390612721565b60405180910390fd5b8060076000848152602001908152602001600020600101819055505050565b80600960006101000a81548173ffffffffffffffffffffffffffffffffffffffff021916908373ffffffffffffffffffffffffffffffffffffffff16021790555050565b6109c06109ba6112ad565b8261136e565b6109ff576040517f08c379a00000000000000000000000000000000000000000000000000000000081526004016109f6906127b3565b60405180910390fd5b610a0a83838361144c565b505050565b600060076000838152602001908152602001600020600001549050919050565b610a4a83838360405180602001604052806000815250610e3b565b505050565b600960009054906101000a900473ffffffffffffffffffffffffffffffffffffffff1681565b6000806002600084815260200190815260200160002060009054906101000a900473ffffffffffffffffffffffffffffffffffffffff169050600073ffffffffffffffffffffffffffffffffffffffff168173ffffffffffffffffffffffffffffffffffffffff161415610b1e576040517f08c379a0000000000000000000000000000000000000000000000000000000008152600401610b1590612845565b60405180910390fd5b80915050919050565b60008073ffffffffffffffffffffffffffffffffffffffff168273ffffffffffffffffffffffffffffffffffffffff161415610b98576040517f08c379a0000000000000000000000000000000000000000000000000000000008152600401610b8f906128d7565b60405180910390fd5b600360008373ffffffffffffffffffffffffffffffffffffffff1673ffffffffffffffffffffffffffffffffffffffff168152602001908152602001600020549050919050565b610be76112ad565b73ffffffffffffffffffffffffffffffffffffffff16610c05610c67565b73ffffffffffffffffffffffffffffffffffffffff1614610c5b576040517f08c379a0000000000000000000000000000000000000000000000000000000008152600401610c5290612721565b60405180910390fd5b610c6560006116a8565b565b6000600660009054906101000a900473ffffffffffffffffffffffffffffffffffffffff16905090565b60085481565b606060018054610ca6906124ed565b80601f0160208091040260200160405190810160405280929190818152602001828054610cd2906124ed565b8015610d1f5780601f10610cf457610100808354040283529160200191610d1f565b820191906000526020600020905b815481529060010190602001808311610d0257829003601f168201915b5050505050905090565b610d3b610d346112ad565b838361176e565b5050565b610d476112ad565b73ffffffffffffffffffffffffffffffffffffffff16610d65610c67565b73ffffffffffffffffffffffffffffffffffffffff1614610dbb576040517f08c379a0000000000000000000000000000000000000000000000000000000008152600401610db290612721565b60405180910390fd5b81600760008581526020019081526020016000206000018190555080600760008581526020019081526020016000206001018190555060085460076000858152602001908152602001600020600201819055506008546007600085815260200190815260200160002060030181905550610e3584846118db565b50505050565b610e4c610e466112ad565b8361136e565b610e8b576040517f08c379a0000000000000000000000000000000000000000000000000000000008152600401610e82906127b3565b60405180910390fd5b610e9784848484611aa9565b50505050565b6060610ea882611241565b610ee7576040517f08c379a0000000000000000000000000000000000000000000000000000000008152600401610ede90612969565b60405180910390fd5b6000610ef1611b05565b90506000815111610f115760405180602001604052806000815250610f3c565b80610f1b84611b1c565b604051602001610f2c9291906129c5565b6040516020818303038152906040525b915050919050565b60008060006007600085815260200190815260200160002060000154600760008681526020019081526020016000206001015460076000878152602001908152602001600020600301549250925092509193909250565b600960009054906101000a900473ffffffffffffffffffffffffffffffffffffffff1673ffffffffffffffffffffffffffffffffffffffff163373ffffffffffffffffffffffffffffffffffffffff161461102b576040517f08c379a000000000000000000000000000000000000000000000000000000000815260040161102290612a35565b60405180910390fd5b600854600760008381526020019081526020016000206003018190555050565b6000600560008473ffffffffffffffffffffffffffffffffffffffff1673ffffffffffffffffffffffffffffffffffffffff16815260200190815260200160002060008373ffffffffffffffffffffffffffffffffffffffff1673ffffffffffffffffffffffffffffffffffffffff16815260200190815260200160002060009054906101000a900460ff16905092915050565b6110e76112ad565b73ffffffffffffffffffffffffffffffffffffffff16611105610c67565b73ffffffffffffffffffffffffffffffffffffffff161461115b576040517f08c379a000000000000000000000000000000000000000000000000000000000815260040161115290612721565b60405180910390fd5b600073ffffffffffffffffffffffffffffffffffffffff168173ffffffffffffffffffffffffffffffffffffffff1614156111cb576040517f08c379a00000000000000000000000000000000000000000000000000000000081526004016111c290612ac7565b60405180910390fd5b6111d4816116a8565b50565b60007f01ffc9a7000000000000000000000000000000000000000000000000000000007bffffffffffffffffffffffffffffffffffffffffffffffffffffffff1916827bffffffffffffffffffffffffffffffffffffffffffffffffffffffff1916149050919050565b60008073ffffffffffffffffffffffffffffffffffffffff166002600084815260200190815260200160002060009054906101000a900473ffffffffffffffffffffffffffffffffffffffff1673ffffffffffffffffffffffffffffffffffffffff1614159050919050565b600033905090565b816004600083815260200190815260200160002060006101000a81548173ffffffffffffffffffffffffffffffffffffffff021916908373ffffffffffffffffffffffffffffffffffffffff160217905550808273ffffffffffffffffffffffffffffffffffffffff1661132883610a75565b73ffffffffffffffffffffffffffffffffffffffff167f8c5be1e5ebec7d5bd14f71427d1e84f3dd0314c0f7b2291e5b200ac8c7c3b92560405160405180910390a45050565b600061137982611241565b6113b8576040517f08c379a00000000000000000000000000000000000000000000000000000000081526004016113af90612b59565b60405180910390fd5b60006113c383610a75565b90508073ffffffffffffffffffffffffffffffffffffffff168473ffffffffffffffffffffffffffffffffffffffff16148061143257508373ffffffffffffffffffffffffffffffffffffffff1661141a846106ad565b73ffffffffffffffffffffffffffffffffffffffff16145b806114435750611442818561104b565b5b91505092915050565b8273ffffffffffffffffffffffffffffffffffffffff1661146c82610a75565b73ffffffffffffffffffffffffffffffffffffffff16146114c2576040517f08c379a00000000000000000000000000000000000000000000000000000000081526004016114b990612beb565b60405180910390fd5b600073ffffffffffffffffffffffffffffffffffffffff168273ffffffffffffffffffffffffffffffffffffffff161415611532576040517f08c379a000000000000000000000000000000000000000000000000000000000815260040161152990612c7d565b60405180910390fd5b61153d838383611c7d565b6115486000826112b5565b6001600360008573ffffffffffffffffffffffffffffffffffffffff1673ffffffffffffffffffffffffffffffffffffffff16815260200190815260200160002060008282546115989190612ccc565b925050819055506001600360008473ffffffffffffffffffffffffffffffffffffffff1673ffffffffffffffffffffffffffffffffffffffff16815260200190815260200160002060008282546115ef9190612d00565b92505081905550816002600083815260200190815260200160002060006101000a81548173ffffffffffffffffffffffffffffffffffffffff021916908373ffffffffffffffffffffffffffffffffffffffff160217905550808273ffffffffffffffffffffffffffffffffffffffff168473ffffffffffffffffffffffffffffffffffffffff167fddf252ad1be2c89b69c2b068fc378daa952ba7f163c4a11628f55a4df523b3ef60405160405180910390a4505050565b6000600660009054906101000a900473ffffffffffffffffffffffffffffffffffffffff16905081600660006101000a81548173ffffffffffffffffffffffffffffffffffffffff021916908373ffffffffffffffffffffffffffffffffffffffff1602179055508173ffffffffffffffffffffffffffffffffffffffff168173ffffffffffffffffffffffffffffffffffffffff167f8be0079c531659141344cd1fd0a4f28419497f9722a3daafe3b4186f6b6457e060405160405180910390a35050565b8173ffffffffffffffffffffffffffffffffffffffff168373ffffffffffffffffffffffffffffffffffffffff1614156117dd576040517f08c379a00000000000000000000000000000000000000000000000000000000081526004016117d490612da2565b60405180910390fd5b80600560008573ffffffffffffffffffffffffffffffffffffffff1673ffffffffffffffffffffffffffffffffffffffff16815260200190815260200160002060008473ffffffffffffffffffffffffffffffffffffffff1673ffffffffffffffffffffffffffffffffffffffff16815260200190815260200160002060006101000a81548160ff0219169083151502179055508173ffffffffffffffffffffffffffffffffffffffff168373ffffffffffffffffffffffffffffffffffffffff167f17307eab39ab6107e8899845ad3d59bd9653f200f220920489ca2b5937696c31836040516118ce9190611ed1565b60405180910390a3505050565b600073ffffffffffffffffffffffffffffffffffffffff168273ffffffffffffffffffffffffffffffffffffffff16141561194b576040517f08c379a000000000000000000000000000000000000000000000000000000000815260040161194290612e0e565b60405180910390fd5b61195481611241565b15611994576040517f08c379a000000000000000000000000000000000000000000000000000000000815260040161198b90612e7a565b60405180910390fd5b6119a060008383611c7d565b6001600360008473ffffffffffffffffffffffffffffffffffffffff1673ffffffffffffffffffffffffffffffffffffffff16815260200190815260200160002060008282546119f09190612d00565b92505081905550816002600083815260200190815260200160002060006101000a81548173ffffffffffffffffffffffffffffffffffffffff021916908373ffffffffffffffffffffffffffffffffffffffff160217905550808273ffffffffffffffffffffffffffffffffffffffff16600073ffffffffffffffffffffffffffffffffffffffff167fddf252ad1be2c89b69c2b068fc378daa952ba7f163c4a11628f55a4df523b3ef60405160405180910390a45050565b611ab484848461144c565b611ac084848484611c82565b611aff576040517f08c379a0000000000000000000000000000000000000000000000000000000008152600401611af690612f0c565b60405180910390fd5b50505050565b606060405180602001604052806000815250905090565b60606000821415611b64576040518060400160405280600181526020017f30000000000000000000000000000000000000000000000000000000000000008152509050611c78565b600082905060005b60008214611b96578080611b7f90612f2c565b915050600a82611b8f9190612fa4565b9150611b6c565b60008167ffffffffffffffff811115611bb257611bb1612299565b5b6040519080825280601f01601f191660200182016040528015611be45781602001600182028036833780820191505090505b5090505b60008514611c7157600182611bfd9190612ccc565b9150600a85611c0c9190612fd5565b6030611c189190612d00565b60f81b818381518110611c2e57611c2d613006565b5b60200101907effffffffffffffffffffffffffffffffffffffffffffffffffffffffffffff1916908160001a905350600a85611c6a9190612fa4565b9450611be8565b8093505050505b919050565b505050565b6000611ca38473ffffffffffffffffffffffffffffffffffffffff16611e0a565b15611dfd578373ffffffffffffffffffffffffffffffffffffffff1663150b7a02611ccc6112ad565b8786866040518563ffffffff1660e01b8152600401611cee949392919061308a565b6020604051808303816000875af1925050508015611d2a57506040513d601f19601f82011682018060405250810190611d2791906130eb565b60015b611dad573d8060008114611d5a576040519150601f19603f3d011682016040523d82523d6000602084013e611d5f565b606091505b50600081511415611da5576040517f08c379a0000000000000000000000000000000000000000000000000000000008152600401611d9c90612f0c565b60405180910390fd5b805181602001fd5b63150b7a0260e01b7bffffffffffffffffffffffffffffffffffffffffffffffffffffffff1916817bffffffffffffffffffffffffffffffffffffffffffffffffffffffff191614915050611e02565b600190505b949350505050565b600080823b905060008111915050919050565b6000604051905090565b600080fd5b600080fd5b60007fffffffff0000000000000000000000000000000000000000000000000000000082169050919050565b611e6681611e31565b8114611e7157600080fd5b50565b600081359050611e8381611e5d565b92915050565b600060208284031215611e9f57611e9e611e27565b5b6000611ead84828501611e74565b91505092915050565b60008115159050919050565b611ecb81611eb6565b82525050565b6000602082019050611ee66000830184611ec2565b92915050565b6000819050919050565b611eff81611eec565b8114611f0a57600080fd5b50565b600081359050611f1c81611ef6565b92915050565b600060208284031215611f3857611f37611e27565b5b6000611f4684828501611f0d565b91505092915050565b611f5881611eec565b82525050565b6000602082019050611f736000830184611f4f565b92915050565b600081519050919050565b600082825260208201905092915050565b60005b83811015611fb3578082015181840152602081019050611f98565b83811115611fc2576000848401525b50505050565b6000601f19601f8301169050919050565b6000611fe482611f79565b611fee8185611f84565b9350611ffe818560208601611f95565b61200781611fc8565b840191505092915050565b6000602082019050818103600083015261202c8184611fd9565b905092915050565b600073ffffffffffffffffffffffffffffffffffffffff82169050919050565b600061205f82612034565b9050919050565b61206f81612054565b82525050565b600060208201905061208a6000830184612066565b92915050565b61209981612054565b81146120a457600080fd5b50565b6000813590506120b681612090565b92915050565b600080604083850312156120d3576120d2611e27565b5b60006120e1858286016120a7565b92505060206120f285828601611f0d565b9150509250929050565b6000806040838503121561211357612112611e27565b5b600061212185828601611f0d565b925050602061213285828601611f0d565b9150509250929050565b60006020828403121561215257612151611e27565b5b6000612160848285016120a7565b91505092915050565b60008060006060848603121561218257612181611e27565b5b6000612190868287016120a7565b93505060206121a1868287016120a7565b92505060406121b286828701611f0d565b9150509250925092565b6121c581611eb6565b81146121d057600080fd5b50565b6000813590506121e2816121bc565b92915050565b600080604083850312156121ff576121fe611e27565b5b600061220d858286016120a7565b925050602061221e858286016121d3565b9150509250929050565b6000806000806080858703121561224257612241611e27565b5b6000612250878288016120a7565b945050602061226187828801611f0d565b935050604061227287828801611f0d565b925050606061228387828801611f0d565b91505092959194509250565b600080fd5b600080fd5b7f4e487b7100000000000000000000000000000000000000000000000000000000600052604160045260246000fd5b6122d182611fc8565b810181811067ffffffffffffffff821117156122f0576122ef612299565b5b80604052505050565b6000612303611e1d565b905061230f82826122c8565b919050565b600067ffffffffffffffff82111561232f5761232e612299565b5b61233882611fc8565b9050602081019050919050565b82818337600083830152505050565b600061236761236284612314565b6122f9565b90508281526020810184848401111561238357612382612294565b5b61238e848285612345565b509392505050565b600082601f8301126123ab576123aa61228f565b5b81356123bb848260208601612354565b91505092915050565b600080600080608085870312156123de576123dd611e27565b5b60006123ec878288016120a7565b94505060206123fd878288016120a7565b935050604061240e87828801611f0d565b925050606085013567ffffffffffffffff81111561242f5761242e611e2c565b5b61243b87828801612396565b91505092959194509250565b600060608201905061245c6000830186611f4f565b6124696020830185611f4f565b6124766040830184611f4f565b949350505050565b6000806040838503121561249557612494611e27565b5b60006124a3858286016120a7565b92505060206124b4858286016120a7565b9150509250929050565b7f4e487b7100000000000000000000000000000000000000000000000000000000600052602260045260246000fd5b6000600282049050600182168061250557607f821691505b60208210811415612519576125186124be565b5b50919050565b7f4552433732313a20617070726f76656420717565727920666f72206e6f6e657860008201527f697374656e7420746f6b656e0000000000000000000000000000000000000000602082015250565b600061257b602c83611f84565b91506125868261251f565b604082019050919050565b600060208201905081810360008301526125aa8161256e565b9050919050565b7f4552433732313a20617070726f76616c20746f2063757272656e74206f776e6560008201527f7200000000000000000000000000000000000000000000000000000000000000602082015250565b600061260d602183611f84565b9150612618826125b1565b604082019050919050565b6000602082019050818103600083015261263c81612600565b9050919050565b7f4552433732313a20617070726f76652063616c6c6572206973206e6f74206f7760008201527f6e6572206e6f7220617070726f76656420666f7220616c6c0000000000000000602082015250565b600061269f603883611f84565b91506126aa82612643565b604082019050919050565b600060208201905081810360008301526126ce81612692565b9050919050565b7f4f776e61626c653a2063616c6c6572206973206e6f7420746865206f776e6572600082015250565b600061270b602083611f84565b9150612716826126d5565b602082019050919050565b6000602082019050818103600083015261273a816126fe565b9050919050565b7f4552433732313a207472616e736665722063616c6c6572206973206e6f74206f60008201527f776e6572206e6f7220617070726f766564000000000000000000000000000000602082015250565b600061279d603183611f84565b91506127a882612741565b604082019050919050565b600060208201905081810360008301526127cc81612790565b9050919050565b7f4552433732313a206f776e657220717565727920666f72206e6f6e657869737460008201527f656e7420746f6b656e0000000000000000000000000000000000000000000000602082015250565b600061282f602983611f84565b915061283a826127d3565b604082019050919050565b6000602082019050818103600083015261285e81612822565b9050919050565b7f4552433732313a2062616c616e636520717565727920666f7220746865207a6560008201527f726f206164647265737300000000000000000000000000000000000000000000602082015250565b60006128c1602a83611f84565b91506128cc82612865565b604082019050919050565b600060208201905081810360008301526128f0816128b4565b9050919050565b7f4552433732314d657461646174613a2055524920717565727920666f72206e6f60008201527f6e6578697374656e7420746f6b656e0000000000000000000000000000000000602082015250565b6000612953602f83611f84565b915061295e826128f7565b604082019050919050565b6000602082019050818103600083015261298281612946565b9050919050565b600081905092915050565b600061299f82611f79565b6129a98185612989565b93506129b9818560208601611f95565b80840191505092915050565b60006129d18285612994565b91506129dd8284612994565b91508190509392505050565b7f696e76616c696420616464726573732e00000000000000000000000000000000600082015250565b6000612a1f601083611f84565b9150612a2a826129e9565b602082019050919050565b60006020820190508181036000830152612a4e81612a12565b9050919050565b7f4f776e61626c653a206e6577206f776e657220697320746865207a65726f206160008201527f6464726573730000000000000000000000000000000000000000000000000000602082015250565b6000612ab1602683611f84565b9150612abc82612a55565b604082019050919050565b60006020820190508181036000830152612ae081612aa4565b9050919050565b7f4552433732313a206f70657261746f7220717565727920666f72206e6f6e657860008201527f697374656e7420746f6b656e0000000000000000000000000000000000000000602082015250565b6000612b43602c83611f84565b9150612b4e82612ae7565b604082019050919050565b60006020820190508181036000830152612b7281612b36565b9050919050565b7f4552433732313a207472616e73666572206f6620746f6b656e2074686174206960008201527f73206e6f74206f776e0000000000000000000000000000000000000000000000602082015250565b6000612bd5602983611f84565b9150612be082612b79565b604082019050919050565b60006020820190508181036000830152612c0481612bc8565b9050919050565b7f4552433732313a207472616e7366657220746f20746865207a65726f2061646460008201527f7265737300000000000000000000000000000000000000000000000000000000602082015250565b6000612c67602483611f84565b9150612c7282612c0b565b604082019050919050565b60006020820190508181036000830152612c9681612c5a565b9050919050565b7f4e487b7100000000000000000000000000000000000000000000000000000000600052601160045260246000fd5b6000612cd782611eec565b9150612ce283611eec565b925082821015612cf557612cf4612c9d565b5b828203905092915050565b6000612d0b82611eec565b9150612d1683611eec565b9250827fffffffffffffffffffffffffffffffffffffffffffffffffffffffffffffffff03821115612d4b57612d4a612c9d565b5b828201905092915050565b7f4552433732313a20617070726f766520746f2063616c6c657200000000000000600082015250565b6000612d8c601983611f84565b9150612d9782612d56565b602082019050919050565b60006020820190508181036000830152612dbb81612d7f565b9050919050565b7f4552433732313a206d696e7420746f20746865207a65726f2061646472657373600082015250565b6000612df8602083611f84565b9150612e0382612dc2565b602082019050919050565b60006020820190508181036000830152612e2781612deb565b9050919050565b7f4552433732313a20746f6b656e20616c7265616479206d696e74656400000000600082015250565b6000612e64601c83611f84565b9150612e6f82612e2e565b602082019050919050565b60006020820190508181036000830152612e9381612e57565b9050919050565b7f4552433732313a207472616e7366657220746f206e6f6e20455243373231526560008201527f63656976657220696d706c656d656e7465720000000000000000000000000000602082015250565b6000612ef6603283611f84565b9150612f0182612e9a565b604082019050919050565b60006020820190508181036000830152612f2581612ee9565b9050919050565b6000612f3782611eec565b91507fffffffffffffffffffffffffffffffffffffffffffffffffffffffffffffffff821415612f6a57612f69612c9d565b5b600182019050919050565b7f4e487b7100000000000000000000000000000000000000000000000000000000600052601260045260246000fd5b6000612faf82611eec565b9150612fba83611eec565b925082612fca57612fc9612f75565b5b828204905092915050565b6000612fe082611eec565b9150612feb83611eec565b925082612ffb57612ffa612f75565b5b828206905092915050565b7f4e487b7100000000000000000000000000000000000000000000000000000000600052603260045260246000fd5b600081519050919050565b600082825260208201905092915050565b600061305c82613035565b6130668185613040565b9350613076818560208601611f95565b61307f81611fc8565b840191505092915050565b600060808201905061309f6000830187612066565b6130ac6020830186612066565b6130b96040830185611f4f565b81810360608301526130cb8184613051565b905095945050505050565b6000815190506130e581611e5d565b92915050565b60006020828403121561310157613100611e27565b5b600061310f848285016130d6565b9150509291505056fea2646970667358221220474ee0f2bd85ef24a384a6b50224e1bd489f6b02ab0eba7051216df9f422017564736f6c634300080a0033",
  "immutableReferences": {},
  "source": "// SPDX-License-Identifier: MIT\n\npragma solidity ^0.8.0;\n\nimport \"@openzeppelin/contracts/token/ERC721/ERC721.sol\";\nimport \"@openzeppelin/contracts/access/Ownable.sol\";\n\ncontract IPNFT is ERC721(\"IP NFT\", \"IPNFT\"), Ownable {\n    /**\n     * @dev Metadata of NFT.\n     *\n     * - `musicId`: ID of music.\n     * - `gain`: Amount of differential ATIV per NFT.\n     * - `lastUpdatedEpoch`: Number of epoch when entering.\n     */\n    struct Meta {\n        uint256 musicId;\n        uint256 gain;\n        uint256 createdEpoch;\n        uint256 lastUpdatedEpoch;\n    }\n\n    mapping (uint256 => Meta) internal _meta;\n\n    /// @dev Current epoch.\n    uint256 public epoch;\n\n    /// @dev MasterChef address.\n    address public masterChef;\n\n    function init(address masterChef_) public {\n        masterChef = masterChef_;\n    }\n\n    /**\n     * @dev Get metadata of `tokenId`.\n     */\n    function meta(uint256 tokenId) public view returns (uint256, uint256, uint256) {\n        return (_meta[tokenId].musicId, _meta[tokenId].gain, _meta[tokenId].lastUpdatedEpoch);\n    }\n\n    /**\n     * @dev Get `musicId` of `_meta`.\n     */\n    function musicId(uint256 tokenId) public view returns (uint256) {\n        return _meta[tokenId].musicId;\n    }\n\n    /**\n     * @dev Get `gain` of `_meta`.\n     */\n    function gain(uint256 tokenId) public view returns (uint256) {\n        return _meta[tokenId].gain;\n    }\n\n    /**\n     * @dev Change `gain` of `_meta`.\n     */\n    function setGain(uint256 tokenId, uint256 gain_) public onlyOwner {\n        _meta[tokenId].gain = gain_;\n    }\n\n    /**\n     * @dev Mint NFT with amount of `musicId_` and `gain_`.\n     */\n    function mint(\n        address to,\n        uint256 tokenId,\n        uint256 musicId_,\n        uint256 gain_\n    ) public onlyOwner {\n        _meta[tokenId].musicId = musicId_;\n        _meta[tokenId].gain = gain_;\n        _meta[tokenId].createdEpoch = epoch;\n        _meta[tokenId].lastUpdatedEpoch = epoch;\n\n        _mint(to, tokenId);\n    }\n\n    /**\n     * @dev Update `lastUpdatedEpoch` of `tokenId`.\n     */\n    function updateNftEpoch(uint256 tokenId) public {\n        require(msg.sender == masterChef, \"invalid address.\");\n\n        _meta[tokenId].lastUpdatedEpoch = epoch;\n    }\n\n    // /**\n    //  * @dev Update current epoch.\n    //  */\n    // function updateEpoch() public onlyOwner {\n    //     epoch++;\n    // }\n\n    /**\n     * @dev Update current epoch.\n     */\n    function setEpoch(uint256 epoch_) public onlyOwner {\n        epoch = epoch_;\n    }\n}\n",
  "sourcePath": "/Users/lukepark/Desktop//dev/ativ-EVM/contracts/IPNFT.sol",
  "compiler": {
    "name": "solc",
    "version": "0.8.10+commit.fc410830.Emscripten.clang"
  },
  "schemaVersion": "3.4.3",
  "updatedAt": "2021-12-17T16:39:11.370Z",
  "devdoc": {
    "kind": "dev",
    "methods": {
      "approve(address,uint256)": {
        "details": "See {IERC721-approve}."
      },
      "balanceOf(address)": {
        "details": "See {IERC721-balanceOf}."
      },
      "gain(uint256)": {
        "details": "Get `gain` of `_meta`."
      },
      "getApproved(uint256)": {
        "details": "See {IERC721-getApproved}."
      },
      "isApprovedForAll(address,address)": {
        "details": "See {IERC721-isApprovedForAll}."
      },
      "meta(uint256)": {
        "details": "Get metadata of `tokenId`."
      },
      "mint(address,uint256,uint256,uint256)": {
        "details": "Mint NFT with amount of `musicId_` and `gain_`."
      },
      "musicId(uint256)": {
        "details": "Get `musicId` of `_meta`."
      },
      "name()": {
        "details": "See {IERC721Metadata-name}."
      },
      "owner()": {
        "details": "Returns the address of the current owner."
      },
      "ownerOf(uint256)": {
        "details": "See {IERC721-ownerOf}."
      },
      "renounceOwnership()": {
        "details": "Leaves the contract without owner. It will not be possible to call `onlyOwner` functions anymore. Can only be called by the current owner. NOTE: Renouncing ownership will leave the contract without an owner, thereby removing any functionality that is only available to the owner."
      },
      "safeTransferFrom(address,address,uint256)": {
        "details": "See {IERC721-safeTransferFrom}."
      },
      "safeTransferFrom(address,address,uint256,bytes)": {
        "details": "See {IERC721-safeTransferFrom}."
      },
      "setApprovalForAll(address,bool)": {
        "details": "See {IERC721-setApprovalForAll}."
      },
      "setEpoch(uint256)": {
        "details": "Update current epoch."
      },
      "setGain(uint256,uint256)": {
        "details": "Change `gain` of `_meta`."
      },
      "supportsInterface(bytes4)": {
        "details": "See {IERC165-supportsInterface}."
      },
      "symbol()": {
        "details": "See {IERC721Metadata-symbol}."
      },
      "tokenURI(uint256)": {
        "details": "See {IERC721Metadata-tokenURI}."
      },
      "transferFrom(address,address,uint256)": {
        "details": "See {IERC721-transferFrom}."
      },
      "transferOwnership(address)": {
        "details": "Transfers ownership of the contract to a new account (`newOwner`). Can only be called by the current owner."
      },
      "updateNftEpoch(uint256)": {
        "details": "Update `lastUpdatedEpoch` of `tokenId`."
      }
    },
    "stateVariables": {
      "epoch": {
        "details": "Current epoch."
      },
      "masterChef": {
        "details": "MasterChef address."
      }
    },
    "version": 1
  },
  "userdoc": {
    "kind": "user",
    "methods": {},
    "version": 1
  }
}