{
  "contractName": "MasterChef",
  "abi": [
    {
      "inputs": [
        {
          "internalType": "contract AtivVotes",
          "name": "ativ_",
          "type": "address"
        },
        {
          "internalType": "contract IPNFT",
          "name": "ipnft_",
          "type": "address"
        },
        {
          "internalType": "address",
          "name": "devaddr_",
          "type": "address"
        }
      ],
      "stateMutability": "nonpayable",
      "type": "constructor"
    },
    {
      "anonymous": false,
      "inputs": [
        {
          "indexed": true,
          "internalType": "address",
          "name": "user",
          "type": "address"
        },
        {
          "indexed": true,
          "internalType": "uint256",
          "name": "musicId",
          "type": "uint256"
        },
        {
          "indexed": false,
          "internalType": "uint256",
          "name": "amount",
          "type": "uint256"
        }
      ],
      "name": "Harvest",
      "type": "event"
    },
    {
      "anonymous": false,
      "inputs": [
        {
          "indexed": true,
          "internalType": "address",
          "name": "previousOwner",
          "type": "address"
        },
        {
          "indexed": true,
          "internalType": "address",
          "name": "newOwner",
          "type": "address"
        }
      ],
      "name": "OwnershipTransferred",
      "type": "event"
    },
    {
      "inputs": [],
      "name": "ativ",
      "outputs": [
        {
          "internalType": "contract AtivVotes",
          "name": "",
          "type": "address"
        }
      ],
      "stateMutability": "view",
      "type": "function"
    },
    {
      "inputs": [],
      "name": "devaddr",
      "outputs": [
        {
          "internalType": "address",
          "name": "",
          "type": "address"
        }
      ],
      "stateMutability": "view",
      "type": "function"
    },
    {
      "inputs": [],
      "name": "feeDenominator",
      "outputs": [
        {
          "internalType": "uint256",
          "name": "",
          "type": "uint256"
        }
      ],
      "stateMutability": "view",
      "type": "function"
    },
    {
      "inputs": [],
      "name": "feeNumerator",
      "outputs": [
        {
          "internalType": "uint256",
          "name": "",
          "type": "uint256"
        }
      ],
      "stateMutability": "view",
      "type": "function"
    },
    {
      "inputs": [],
      "name": "ipnft",
      "outputs": [
        {
          "internalType": "contract IPNFT",
          "name": "",
          "type": "address"
        }
      ],
      "stateMutability": "view",
      "type": "function"
    },
    {
      "inputs": [],
      "name": "owner",
      "outputs": [
        {
          "internalType": "address",
          "name": "",
          "type": "address"
        }
      ],
      "stateMutability": "view",
      "type": "function"
    },
    {
      "inputs": [],
      "name": "renounceOwnership",
      "outputs": [],
      "stateMutability": "nonpayable",
      "type": "function"
    },
    {
      "inputs": [
        {
          "internalType": "address",
          "name": "newOwner",
          "type": "address"
        }
      ],
      "name": "transferOwnership",
      "outputs": [],
      "stateMutability": "nonpayable",
      "type": "function"
    },
    {
      "inputs": [
        {
          "internalType": "address",
          "name": "devaddr_",
          "type": "address"
        }
      ],
      "name": "dev",
      "outputs": [],
      "stateMutability": "nonpayable",
      "type": "function"
    },
    {
      "inputs": [
        {
          "internalType": "uint256",
          "name": "musicId_",
          "type": "uint256"
        },
        {
          "internalType": "uint256",
          "name": "tokenId_",
          "type": "uint256"
        }
      ],
      "name": "pendingAtiv",
      "outputs": [
        {
          "internalType": "uint256",
          "name": "",
          "type": "uint256"
        }
      ],
      "stateMutability": "view",
      "type": "function"
    },
    {
      "inputs": [
        {
          "internalType": "uint256",
          "name": "musicId_",
          "type": "uint256"
        },
        {
          "internalType": "uint256",
          "name": "tokenId_",
          "type": "uint256"
        },
        {
          "internalType": "address",
          "name": "to",
          "type": "address"
        }
      ],
      "name": "harvest",
      "outputs": [],
      "stateMutability": "nonpayable",
      "type": "function"
    }
  ],
  "bytecode": "0x6080604052600a60045560646005553480156200001b57600080fd5b50604051620012e8380380620012e88339818101604052810190620000419190620002ed565b62000061620000556200012d60201b60201c565b6200013560201b60201c565b82600160006101000a81548173ffffffffffffffffffffffffffffffffffffffff021916908373ffffffffffffffffffffffffffffffffffffffff16021790555081600260006101000a81548173ffffffffffffffffffffffffffffffffffffffff021916908373ffffffffffffffffffffffffffffffffffffffff16021790555080600360006101000a81548173ffffffffffffffffffffffffffffffffffffffff021916908373ffffffffffffffffffffffffffffffffffffffff16021790555050505062000349565b600033905090565b60008060009054906101000a900473ffffffffffffffffffffffffffffffffffffffff169050816000806101000a81548173ffffffffffffffffffffffffffffffffffffffff021916908373ffffffffffffffffffffffffffffffffffffffff1602179055508173ffffffffffffffffffffffffffffffffffffffff168173ffffffffffffffffffffffffffffffffffffffff167f8be0079c531659141344cd1fd0a4f28419497f9722a3daafe3b4186f6b6457e060405160405180910390a35050565b600080fd5b600073ffffffffffffffffffffffffffffffffffffffff82169050919050565b60006200022b82620001fe565b9050919050565b60006200023f826200021e565b9050919050565b620002518162000232565b81146200025d57600080fd5b50565b600081519050620002718162000246565b92915050565b600062000284826200021e565b9050919050565b620002968162000277565b8114620002a257600080fd5b50565b600081519050620002b6816200028b565b92915050565b620002c7816200021e565b8114620002d357600080fd5b50565b600081519050620002e781620002bc565b92915050565b600080600060608486031215620003095762000308620001f9565b5b6000620003198682870162000260565b93505060206200032c86828701620002a5565b92505060406200033f86828701620002d6565b9150509250925092565b610f8f80620003596000396000f3fe608060405234801561001057600080fd5b50600436106100a95760003560e01c80638d88a90e116100715780638d88a90e146101405780638da5cb5b1461015c578063d49e77cd1461017a578063e86dea4a14610198578063ee8cc525146101b6578063f2fde38b146101d4576100a9565b8063180b0d7e146100ae57806355ffbe04146100cc57806362b2e12c146100ea578063715018a61461010657806376b8278314610110575b600080fd5b6100b66101f0565b6040516100c391906109b9565b60405180910390f35b6100d46101f6565b6040516100e19190610a53565b60405180910390f35b61010460048036038101906100ff9190610add565b61021c565b005b61010e610476565b005b61012a60048036038101906101259190610b30565b6104fe565b60405161013791906109b9565b60405180910390f35b61015a60048036038101906101559190610b70565b61068d565b005b610164610761565b6040516101719190610bac565b60405180910390f35b61018261078a565b60405161018f9190610bac565b60405180910390f35b6101a06107b0565b6040516101ad91906109b9565b60405180910390f35b6101be6107b6565b6040516101cb9190610be8565b60405180910390f35b6101ee60048036038101906101e99190610b70565b6107dc565b005b60055481565b600260009054906101000a900473ffffffffffffffffffffffffffffffffffffffff1681565b600061022884846104fe565b905060008114156102395750610471565b600260009054906101000a900473ffffffffffffffffffffffffffffffffffffffff1673ffffffffffffffffffffffffffffffffffffffff1663e4cae3de846040518263ffffffff1660e01b815260040161029491906109b9565b600060405180830381600087803b1580156102ae57600080fd5b505af11580156102c2573d6000803e3d6000fd5b50505050600160009054906101000a900473ffffffffffffffffffffffffffffffffffffffff1673ffffffffffffffffffffffffffffffffffffffff166340c10f19600360009054906101000a900473ffffffffffffffffffffffffffffffffffffffff16600554600454856103389190610c32565b6103429190610cbb565b6040518363ffffffff1660e01b815260040161035f929190610cec565b600060405180830381600087803b15801561037957600080fd5b505af115801561038d573d6000803e3d6000fd5b50505050600160009054906101000a900473ffffffffffffffffffffffffffffffffffffffff1673ffffffffffffffffffffffffffffffffffffffff166340c10f1983836040518363ffffffff1660e01b81526004016103ee929190610cec565b600060405180830381600087803b15801561040857600080fd5b505af115801561041c573d6000803e3d6000fd5b50505050833373ffffffffffffffffffffffffffffffffffffffff167f71bab65ced2e5750775a0613be067df48ef06cf92a496ebf7663ae06609249548360405161046791906109b9565b60405180910390a3505b505050565b61047e6108d4565b73ffffffffffffffffffffffffffffffffffffffff1661049c610761565b73ffffffffffffffffffffffffffffffffffffffff16146104f2576040517f08c379a00000000000000000000000000000000000000000000000000000000081526004016104e990610d72565b60405180910390fd5b6104fc60006108dc565b565b600080600080600260009054906101000a900473ffffffffffffffffffffffffffffffffffffffff1673ffffffffffffffffffffffffffffffffffffffff1663cd5cfdaf866040518263ffffffff1660e01b815260040161055f91906109b9565b606060405180830381865afa15801561057c573d6000803e3d6000fd5b505050506040513d601f19601f820116820180604052508101906105a09190610da7565b8093508194508295505050508583146105bf5760009350505050610687565b600081600260009054906101000a900473ffffffffffffffffffffffffffffffffffffffff1673ffffffffffffffffffffffffffffffffffffffff1663900cf0cf6040518163ffffffff1660e01b8152600401602060405180830381865afa15801561062f573d6000803e3d6000fd5b505050506040513d601f19601f820116820180604052508101906106539190610dfa565b61065d9190610e27565b905060008111610674576000945050505050610687565b82816106809190610c32565b9450505050505b92915050565b600360009054906101000a900473ffffffffffffffffffffffffffffffffffffffff1673ffffffffffffffffffffffffffffffffffffffff163373ffffffffffffffffffffffffffffffffffffffff161461071d576040517f08c379a000000000000000000000000000000000000000000000000000000000815260040161071490610ea7565b60405180910390fd5b80600360006101000a81548173ffffffffffffffffffffffffffffffffffffffff021916908373ffffffffffffffffffffffffffffffffffffffff16021790555050565b60008060009054906101000a900473ffffffffffffffffffffffffffffffffffffffff16905090565b600360009054906101000a900473ffffffffffffffffffffffffffffffffffffffff1681565b60045481565b600160009054906101000a900473ffffffffffffffffffffffffffffffffffffffff1681565b6107e46108d4565b73ffffffffffffffffffffffffffffffffffffffff16610802610761565b73ffffffffffffffffffffffffffffffffffffffff1614610858576040517f08c379a000000000000000000000000000000000000000000000000000000000815260040161084f90610d72565b60405180910390fd5b600073ffffffffffffffffffffffffffffffffffffffff168173ffffffffffffffffffffffffffffffffffffffff1614156108c8576040517f08c379a00000000000000000000000000000000000000000000000000000000081526004016108bf90610f39565b60405180910390fd5b6108d1816108dc565b50565b600033905090565b60008060009054906101000a900473ffffffffffffffffffffffffffffffffffffffff169050816000806101000a81548173ffffffffffffffffffffffffffffffffffffffff021916908373ffffffffffffffffffffffffffffffffffffffff1602179055508173ffffffffffffffffffffffffffffffffffffffff168173ffffffffffffffffffffffffffffffffffffffff167f8be0079c531659141344cd1fd0a4f28419497f9722a3daafe3b4186f6b6457e060405160405180910390a35050565b6000819050919050565b6109b3816109a0565b82525050565b60006020820190506109ce60008301846109aa565b92915050565b600073ffffffffffffffffffffffffffffffffffffffff82169050919050565b6000819050919050565b6000610a19610a14610a0f846109d4565b6109f4565b6109d4565b9050919050565b6000610a2b826109fe565b9050919050565b6000610a3d82610a20565b9050919050565b610a4d81610a32565b82525050565b6000602082019050610a686000830184610a44565b92915050565b600080fd5b610a7c816109a0565b8114610a8757600080fd5b50565b600081359050610a9981610a73565b92915050565b6000610aaa826109d4565b9050919050565b610aba81610a9f565b8114610ac557600080fd5b50565b600081359050610ad781610ab1565b92915050565b600080600060608486031215610af657610af5610a6e565b5b6000610b0486828701610a8a565b9350506020610b1586828701610a8a565b9250506040610b2686828701610ac8565b9150509250925092565b60008060408385031215610b4757610b46610a6e565b5b6000610b5585828601610a8a565b9250506020610b6685828601610a8a565b9150509250929050565b600060208284031215610b8657610b85610a6e565b5b6000610b9484828501610ac8565b91505092915050565b610ba681610a9f565b82525050565b6000602082019050610bc16000830184610b9d565b92915050565b6000610bd282610a20565b9050919050565b610be281610bc7565b82525050565b6000602082019050610bfd6000830184610bd9565b92915050565b7f4e487b7100000000000000000000000000000000000000000000000000000000600052601160045260246000fd5b6000610c3d826109a0565b9150610c48836109a0565b9250817fffffffffffffffffffffffffffffffffffffffffffffffffffffffffffffffff0483118215151615610c8157610c80610c03565b5b828202905092915050565b7f4e487b7100000000000000000000000000000000000000000000000000000000600052601260045260246000fd5b6000610cc6826109a0565b9150610cd1836109a0565b925082610ce157610ce0610c8c565b5b828204905092915050565b6000604082019050610d016000830185610b9d565b610d0e60208301846109aa565b9392505050565b600082825260208201905092915050565b7f4f776e61626c653a2063616c6c6572206973206e6f7420746865206f776e6572600082015250565b6000610d5c602083610d15565b9150610d6782610d26565b602082019050919050565b60006020820190508181036000830152610d8b81610d4f565b9050919050565b600081519050610da181610a73565b92915050565b600080600060608486031215610dc057610dbf610a6e565b5b6000610dce86828701610d92565b9350506020610ddf86828701610d92565b9250506040610df086828701610d92565b9150509250925092565b600060208284031215610e1057610e0f610a6e565b5b6000610e1e84828501610d92565b91505092915050565b6000610e32826109a0565b9150610e3d836109a0565b925082821015610e5057610e4f610c03565b5b828203905092915050565b7f6465763a207775743f0000000000000000000000000000000000000000000000600082015250565b6000610e91600983610d15565b9150610e9c82610e5b565b602082019050919050565b60006020820190508181036000830152610ec081610e84565b9050919050565b7f4f776e61626c653a206e6577206f776e657220697320746865207a65726f206160008201527f6464726573730000000000000000000000000000000000000000000000000000602082015250565b6000610f23602683610d15565b9150610f2e82610ec7565b604082019050919050565b60006020820190508181036000830152610f5281610f16565b905091905056fea2646970667358221220cd967b630b9d2f317b4f3b59b4bd6c617e9eb923477a82d1eee325aafb831eaf64736f6c634300080a0033",
  "immutableReferences": {},
  "source": "// SPDX-License-Identifier: MIT\n\npragma solidity ^0.8.0;\n\nimport \"@openzeppelin/contracts/access/Ownable.sol\";\nimport \"./AtivVotes.sol\";\nimport \"./IPNFT.sol\";\n\n/**\n * @title MasterChef\n *\n * As you know, MasterChef is the master of Sushi.\n * He can make Sushi and he is a fair guy.\n *\n * However, He distributes ATIVs per NFT in this system.\n *\n * Master chef said:\n * Have fun reading it. Hopefully it's bug-free. God bless.\n */\ncontract MasterChef is Ownable {\n    /// @dev The ATIV TOKEN!\n    AtivVotes public ativ;\n\n    /// @dev The IP NFT!\n    IPNFT public ipnft;\n    \n    /// @dev Dev address.\n    address public devaddr;\n\n    // Fee. Default: 10%\n    uint256 public feeNumerator = 10;\n    uint256 public feeDenominator = 100;\n\n    event Harvest(address indexed user, uint256 indexed musicId, uint256 amount);\n\n    constructor(\n        AtivVotes ativ_,\n        IPNFT ipnft_,\n        address devaddr_\n    ) {\n        ativ = ativ_;\n        ipnft = ipnft_;\n        devaddr = devaddr_;\n    }\n\n    /// @dev Update dev address by the previous dev.\n    function dev(address devaddr_) public {\n        require(msg.sender == devaddr, \"dev: wut?\");\n        devaddr = devaddr_;\n    }\n\n    /// @dev View function to see pending ATIVs on frontend.\n    function pendingAtiv(uint256 musicId_, uint256 tokenId_)\n        public\n        view\n        returns (uint256)\n    {\n        uint256 musicId;\n        uint256 gain;\n        uint256 lastUpdatedEpoch;\n        \n        (musicId, gain, lastUpdatedEpoch) = ipnft.meta(tokenId_);\n        if (musicId != musicId_) { return 0; }\n\n        uint256 period = ipnft.epoch() - lastUpdatedEpoch;\n        if (period <= 0) { return 0; }\n\n        return period * gain;\n    }\n\n    /// @notice Harvest proceeds for transaction sender to `to`.\n    /// @param musicId_ The ID of the music.\n    /// @param tokenId_ The ID of the token.\n    /// @param to Receiver of ATIV rewards.\n    function harvest(uint256 musicId_, uint256 tokenId_, address to) public {\n        uint256 pendingAtiv_ = pendingAtiv(musicId_, tokenId_);\n        if (pendingAtiv_ == 0) { return; }\n\n        ipnft.updateNftEpoch(tokenId_);\n\n        ativ.mint(devaddr, pendingAtiv_ * feeNumerator / feeDenominator);\n        ativ.mint(to, pendingAtiv_);\n\n        emit Harvest(msg.sender, musicId_, pendingAtiv_);\n    }\n}\n",
  "sourcePath": "/Users/lukepark/Desktop//dev/ativ-EVM/contracts/MasterChef.sol",
  "compiler": {
    "name": "solc",
    "version": "0.8.10+commit.fc410830.Emscripten.clang"
  },
  "schemaVersion": "3.4.3",
  "updatedAt": "2021-12-17T16:08:15.857Z",
  "devdoc": {
    "kind": "dev",
    "methods": {
      "dev(address)": {
        "details": "Update dev address by the previous dev."
      },
      "harvest(uint256,uint256,address)": {
        "params": {
          "musicId_": "The ID of the music.",
          "to": "Receiver of ATIV rewards.",
          "tokenId_": "The ID of the token."
        }
      },
      "owner()": {
        "details": "Returns the address of the current owner."
      },
      "pendingAtiv(uint256,uint256)": {
        "details": "View function to see pending ATIVs on frontend."
      },
      "renounceOwnership()": {
        "details": "Leaves the contract without owner. It will not be possible to call `onlyOwner` functions anymore. Can only be called by the current owner. NOTE: Renouncing ownership will leave the contract without an owner, thereby removing any functionality that is only available to the owner."
      },
      "transferOwnership(address)": {
        "details": "Transfers ownership of the contract to a new account (`newOwner`). Can only be called by the current owner."
      }
    },
    "stateVariables": {
      "ativ": {
        "details": "The ATIV TOKEN!"
      },
      "devaddr": {
        "details": "Dev address."
      },
      "ipnft": {
        "details": "The IP NFT!"
      }
    },
    "title": "MasterChef As you know, MasterChef is the master of Sushi. He can make Sushi and he is a fair guy. However, He distributes ATIVs per NFT in this system. Master chef said: Have fun reading it. Hopefully it's bug-free. God bless.",
    "version": 1
  },
  "userdoc": {
    "kind": "user",
    "methods": {
      "harvest(uint256,uint256,address)": {
        "notice": "Harvest proceeds for transaction sender to `to`."
      }
    },
    "version": 1
  }
}